:020000040800F2
:1000000000000120652C00082D1200082F120008A6
:1000100031120008331200083512000800000000F9
:10002000000000000000000000000000371200087F
:1000300039120008000000003B1200083D120008C1
:10004000F9140008AD2C0008AD2C0008AD2C0008F8
:10005000AD2C0008AD2C000849140008AD2C000898
:10006000AD2C000891140008C5140008AD2C000840
:10007000AD2C0008AD2C0008AD2C0008AD2C0008FC
:10008000AD2C0008AD2C0008AD2C0008AD2C0008EC
:10009000AD2C0008AD2C0008AD2C0008AD2C0008DC
:1000A000AD2C0008AD2C0008AD2C0008AD2C0008CC
:1000B000AD2C00080D150008AD2C0008AD2C000873
:1000C000AD2C0008AD2C0008AD2C0008AD2C0008AC
:1000D000AD2C000821140008AD2C0008AD2C000840
:1000E000AD2C0008AD2C0008AD2C0008AD2C00088C
:1000F000AD2C0008AD2C0008AD2C0008AD2C00087C
:10010000AD2C00087D2A000841150008AD2C000820
:10011000AD2C0008AD2C0008AD2C0008AD2C00085B
:10012000AD2C0008AD2C0008AD2C0008AD2C00084B
:1001300000000000000000000000000000000000BF
:1001400000000000000000000000000000000000AF
:10015000000000000000000000000000000000009F
:10016000000000000000000000000000000000008F
:10017000000000000000000000000000000000007F
:10018000000000000000000000000000000000006F
:10019000000000000000000000000000000000005F
:1001A000000000000000000000000000000000004F
:1001B000000000000000000000000000000000003F
:1001C000000000000000000000000000000000002F
:1001D000000000000000000000000000000000001F
:0401E0005FF8E0F1F3
:1001E800034613F8012B002AFBD1181A013870476F
:1001F80081F0004102E000BF83F0004330B54FEAD0
:1002080041044FEA430594EA050F08BF90EA020F3C
:100218001FBF54EA000C55EA020C7FEA645C7FEACF
:10022800655C00F0E2804FEA5454D4EB5555B8BFF2
:100238006D420CDD2C4480EA020281EA030382EA63
:10024800000083EA010180EA020281EA0303362DF5
:1002580088BF30BD11F0004F4FEA01314FF4801CC8
:100268004CEA113102D0404261EB410113F0004FDA
:100278004FEA03334CEA133302D0524263EB430391
:1002880094EA050F00F0A780A4F10104D5F1200E2F
:100298000DDB02FA0EFC22FA05F2801841F100018A
:1002A80003FA0EF2801843FA05F359410EE0A5F15E
:1002B80020050EF1200E012A03FA0EFC28BF4CF08F
:1002C800020C43FA05F3C01851EBE37101F0004545
:1002D80007D54FF0000EDCF1000C7EEB00006EEB52
:1002E8000101B1F5801F1BD3B1F5001F0CD34908DC
:1002F8005FEA30004FEA3C0C04F101044FEA445233
:1003080012F5800F80F09A80BCF1004F08BF5FEAB9
:10031800500C50F1000041EB045141EA050130BD99
:100328005FEA4C0C404141EB0101013C28BFB1F5AB
:10033800801FE9D291F0000F04BF01460020B1FAF6
:1003480081F308BF2033A3F10B03B3F120020CDAC9
:100358000C3208DD02F1140CC2F10C0201FA0CF0A7
:1003680021FA02F10CE002F11402D8BFC2F1200C0C
:1003780001FA02F120FA0CFCDCBF41EA0C019040C2
:10038800E41AA2BF01EB0451294330BD6FEA04040B
:100398001F3C1CDA0C340EDC04F11404C4F12002F6
:1003A80020FA04F001FA02F340EA030021FA04F308
:1003B80045EA030130BDC4F10C04C4F1200220FA5F
:1003C80002F001FA04F340EA0300294630BD21FA9D
:1003D80004F0294630BD94F0000F83F4801306BF63
:1003E80081F480110134013D4EE77FEA645C18BF57
:1003F8007FEA655C29D094EA050F08BF90EA020FEE
:1004080005D054EA000C04BF1946104630BD91EAE5
:10041800030F1EBF0021002030BD5FEA545C05D1E8
:100428004000494128BF41F0004130BD14F5800427
:100438003CBF01F5801130BD01F0004545F0FE419B
:1004480041F470014FF0000030BD7FEA645C1ABFD0
:10045800194610467FEA655C1CBF0B46024650EA07
:10046800013406BF52EA033591EA030F41F4002133
:1004780030BD00BF90F0000F04BF0021704730B5B9
:100488004FF4806404F132044FF000054FF000018E
:1004980050E700BF90F0000F04BF0021704730B54F
:1004A8004FF4806404F1320410F0004548BF404224
:1004B8004FF000013EE700BF42004FEAE2014FEA79
:1004C80031014FEA02701FBF12F07F4393F07F4F54
:1004D80081F06051704732F07F4208BF704793F057
:1004E8007F4F04BF41F40021704730B54FF460746A
:1004F80001F0004521F000411CE700BF50EA01026D
:1005080008BF704730B54FF000050AE050EA010215
:1005180008BF704730B511F0004502D5404261EB85
:1005280041014FF4806404F132045FEA915C3FF4C6
:10053800D8AE4FF003025FEADC0C18BF03325FEA63
:10054800DC0C18BF033202EBDC02C2F1200300FA14
:1005580003FC20FA02F001FA03FE40EA0E0021FA39
:1005680002F11444BDE600BF70B54FF0FF0C4CF427
:10057800E06C1CEA11541DBF1CEA135594EA0C0FD9
:1005880095EA0C0F00F0DEF82C4481EA030621EA14
:100598004C5123EA4C5350EA013518BF52EA03354F
:1005A80041F4801143F4801338D0A0FB02CE4FF001
:1005B8000005E1FB02E506F00042E0FB03E54FF031
:1005C8000006E1FB03569CF0000F18BF4EF0010E29
:1005D800A4F1FF04B6F5007F64F5407404D25FEA25
:1005E8004E0E6D4146EB060642EAC62141EA5551D8
:1005F8004FEAC52040EA5E504FEACE2EB4F1FD0C1A
:1006080088BFBCF5E06F1ED8BEF1004F08BF5FEA97
:10061800500E50F1000041EB045170BD06F0004649
:1006280046EA010140EA020081EA0301B4EB5C04F6
:10063800C2BFD4EB0C0541EA045170BD41F48011EE
:100648004FF0000E013C00F3AB8014F1360FDEBF13
:10065800002001F0004170BDC4F10004203C35DAEF
:100668000C341BDC04F11404C4F1200500FA05F372
:1006780020FA04F001FA05F240EA020001F0004213
:1006880021F0004110EBD37021FA04F642EB060189
:100698005EEA430E08BF20EAD37070BDC4F10C04B3
:1006A800C4F1200500FA04F320FA05F001FA04F277
:1006B80040EA020001F0004110EBD37041F1000163
:1006C8005EEA430E08BF20EAD37070BDC4F120056E
:1006D80000FA05F24EEA020E20FA04F301FA05F2D6
:1006E80043EA020321FA04F001F0004121FA04F27E
:1006F80020EA020000EBD3705EEA430E08BF20EA4E
:10070800D37070BD94F0000F0FD101F00046400087
:1007180041EB010111F4801F08BF013CF7D041EA09
:10072800060195F0000F18BF704703F0004652000D
:1007380043EB030313F4801F08BF013DF7D043EADE
:100748000603704794EA0C0F0CEA135518BF95EA94
:100758000C0F0CD050EA410618BF52EA4306D1D11B
:1007680081EA030101F000414FF0000070BD50EA3A
:10077800410606BF1046194652EA430619D094EAC4
:100788000C0F02D150EA013613D195EA0C0F05D1AE
:1007980052EA03361CBF104619460AD181EA030102
:1007A80001F0004141F0FE4141F470014FF00000BA
:1007B80070BD41F0FE4141F4780170BD70B54FF055
:1007C800FF0C4CF4E06C1CEA11541DBF1CEA1355D5
:1007D80094EA0C0F95EA0C0F00F0A7F8A4EB0504B7
:1007E80081EA030E52EA03354FEA013100F08880AE
:1007F8004FEA03334FF0805545EA131343EA126377
:100808004FEA022245EA111545EA10654FEA00262B
:100818000EF000419D4208BF964244F1FD0404F5E4
:10082800407402D25B084FEA3202B61A65EB030540
:100838005B084FEA32024FF480104FF4002CB6EBFD
:10084800020E75EB030E22BFB61A754640EA0C007D
:100858005B084FEA3202B6EB020E75EB030E22BFBD
:10086800B61A754640EA5C005B084FEA3202B6EBFE
:10087800020E75EB030E22BFB61A754640EA9C00BD
:100888005B084FEA3202B6EB020E75EB030E22BF8D
:10089800B61A754640EADC0055EA060E18D04FEA4B
:1008A800051545EA16754FEA06164FEAC30343EAEB
:1008B80052734FEAC2025FEA1C1CC0D111F4801FB8
:1008C8000BD141EA00014FF000004FF0004CB6E7B1
:1008D80011F4801F04BF01430020B4F1FD0C88BF50
:1008E800BCF5E06F3FF6AFAEB5EB030C04BFB6EB5B
:1008F800020C5FEA500C50F1000041EB045170BD4E
:100908000EF0004E4EEA113114EB5C04C2BFD4EB7A
:100918000C0541EA045170BD41F480114FF0000EFE
:10092800013C90E645EA060E8DE60CEA135594EA7A
:100938000C0F08BF95EA0C0F3FF43BAF94EA0C0F7D
:100948000AD150EA01347FF434AF95EA0C0F7FF4F2
:1009580025AF104619462CE795EA0C0F06D152EA46
:1009680003353FF4FDAE1046194622E750EA41062A
:1009780018BF52EA43067FF4C5AE50EA41047FF43B
:100988000DAF52EA43057FF4EBAE12E74FF0FF3CA0
:1009980006E000BF4FF0010C02E000BF4FF0010C71
:1009A8004DF804CD4FEA410C7FEA6C5C4FEA430CEA
:1009B80018BF7FEA6C5C1BD001B050EA410C0CBF39
:1009C80052EA430C91EA030F02BF90EA020F00209B
:1009D800704710F1000F91EA030F58BF994208BF02
:1009E80090422CBFD8176FEAE37040F001007047BF
:1009F8004FEA410C7FEA6C5C02D150EA013C07D116
:100A08004FEA430C7FEA6C5CD6D152EA033CD3D060
:100A18005DF8040B704700BF8446104662468C465A
:100A28001946634600E000BF01B5FFF7B7FF00288D
:100A380048BF10F1000F01BD4DF808EDFFF7F4FFB6
:100A48000CBF012000205DF808FB00BF4DF808ED41
:100A5800FFF7EAFF34BF012000205DF808FB00BF64
:100A68004DF808EDFFF7E0FF94BF012000205DF886
:100A780008FB00BF4DF808EDFFF7CEFF94BF01203B
:100A880000205DF808FB00BF4DF808EDFFF7C4FF34
:100A980034BF012000205DF808FB00BF4FEA410287
:100AA80012F5001215D211D56FF47873B3EB6252B8
:100AB80012D94FEAC12343F0004343EA505311F0DF
:100AC800004F23FA02F018BF404270474FF0000071
:100AD800704750EA013005D111F0004008BF6FF0AF
:100AE800004070474FF00000704700BF4A0011D225
:100AF80012F5001211D20DD56FF47873B3EB625270
:100B08000ED44FEAC12343F0004343EA505323FA7B
:100B180002F070474FF00000704750EA013002D1F0
:100B28004FF0FF3070474FF0000070470348044B08
:100B3800834202D0034B03B118477047B800002026
:100B4800B8000020000000000548064B1B1AD90F0A
:100B580001EBA301491002D0034B03B118477047BA
:100B6800B8000020B80000200000000010B5064CB6
:100B7800237843B9FFF7DAFF044B13B10448AFF306
:100B880000800123237010BDB80000200000000081
:100B98005450000808B5054B1BB105490548AFF38B
:100BA8000080BDE80840FFF7CFBF00BF000000008D
:100BB800BC00002054500008C378F3B1144BDB6824
:100BC800DB43C3F30223C3F1040C0F21D94042785D
:100BD80002FA0CF283780B4013431B010278DBB254
:100BE8000C490A4482F80033037803F01F005B09BC
:100BF8000122824041F823207047037803F01F0147
:100C08005B0901228A402033024941F823207047BA
:100C180000ED00E000E100E0042806D04FF0E022FB
:100C2800136923F00403136170474FF0E02213693E
:100C380043F004031361704710B4294B5B6803F059
:100C48000C03042B2BD0082B2CD013B1254B03609D
:100C580001E0244B036022494B68C3F30313224C81
:100C6800E25CD2B20368D34043604A68C2F302220E
:100C7800A25CD2B223FA02F282604A68C2F3C222AC
:100C8800A25CD2B2D340C3604A68C2F3813217492A
:100C98008A5CD2B2B3FBF2F3036110BC7047114B0C
:100CA8000360D8E70E4A53685268C3F3834302339C
:100CB80012F4803F04D10E4A02FB03F30360CAE733
:100CC800074A526812F4003F04D0094A02FB03F3B2
:100CD8000360C0E7034A02FB03F30360BBE700BFFE
:100CE8000010024000127A000400002000000020DA
:100CF80000093D0021B1054A536903435361704718
:100D0800024A536923EA0003536170470010024006
:100D180021B1054A9369034393617047024A936975
:100D280023EA0003936170470010024021B1054A8D
:100D3800D3690343D3617047024AD36923EA0003A6
:100D4800D36170470010024030B5CB7803F00F0232
:100D5800964613F0100F03D091F802E04EEA020E07
:100D68000B78FBB10568002301E042610133072BD2
:100D780017D801229A40B1F800C032EA0C0CF5D11C
:100D88009C004FF00F0C0CFA04FC25EA0C050EFA37
:100D980004F42543CC78282CE7D0482CE6D102610E
:100DA800E4E705600B88FF2B25D94568002303E09D
:100DB800CC78482C1CD00133072B1BD803F1080C26
:100DC800012202FA0CF2B1F800C032EA0C0CF2D19E
:100DD8009C004FF00F0C0CFA04FC25EA0C0C0EFAE0
:100DE80004F444EA0C05CC78282CE1D14261DFE711
:100DF8000261E0E7456030BD8368194201D00120F7
:100E080070470020704701617047416170470000DA
:100E180030B587B004460D46038A9BB2CA8823F4CE
:100E280040531343038283899BB2898828896A893E
:100E380001430A4323F4B05323F00C031343A38163
:100E4800A38A9BB2AA8923F440731343A38201A8FF
:100E5800FFF7F2FE1D4B9C4224D0039BA28912F49B
:100E6800004F21D103EB830303EB83032A6892002D
:100E7800B3FBF2F3164AA2FB0312520911016420D4
:100E880002FB1033A28912F4004F16D11B01323332
:100E98000F4AA2FB0323C3F343130B439BB22381E3
:100EA80007B030BD049BD9E703EB830303EB83034F
:100EB8002A685200B3FBF2F3DCE7DB003233044A62
:100EC800A2FB0323C3F342130B43E7E700380140B7
:100ED8001F85EB5129B183899BB243F40053838169
:100EE800704783899BB223F400539BB28381704778
:100EF800C1F3421C01F01F0101238B40BCF1010F1B
:100F080008D0BCF1020F07D014303AB1026813437D
:100F1800036070470C30F8E71030F6E7026822EA01
:100F2800030303607047C1F308018180704780881C
:100F3800C0F308007047C1F3421201F01F0C0123EF
:100F480003FA0CF3012A0FD0022A11D0828A92B236
:100F58001340090A012202FA01F1028892B20A40FA
:100F680053B15AB900207047828992B21340F0E712
:100F7800028A92B21340ECE70020704701207047C4
:100F8800014B5861704700BF0004014000F07F002A
:100F9800014B1860704700BF002C0040014B002235
:100FA8009A607047002C0040038C9BB223F0020328
:100FB8000B4303847047808E80B27047028A83890E
:100FC8000B40114202D01BB9002070470020704727
:100FD80001207047C94389B2018270472DE9F04169
:100FE800028802F441520F88B1F802808E88CD88B9
:100FF8000C89B1F80AE0B1F80CC0CB8947EA0807B8
:101008003E4335432C434EEA040E4CEA0E0C43EAA9
:101018000C0313430380838B9BB223F400639BB2BE
:1010280083830B8A0382BDE8F08129B103889BB2D0
:1010380043F040030380704703889BB223F04003CA
:101048009BB20380704781817047808980B2704766
:101058000389194201D00120704700207047436876
:1010680082681343C26813430269134342691343F6
:1010780082691343C2691343026A1343426A1343E2
:10108800826A1343C26A1343026B016813434FF029
:10109800204242F821308368082B25D0426B136820
:1010A800516843EA0113916843EA0123D16843EA8E
:1010B8000143116943EA0153516943EA01639169A4
:1010C800026801320B434FF0204141F82230C36AD5
:1010D800B3F5804F10D003689B0003F120436FF0F5
:1010E8007042C3F804217047016852F8213043F078
:1010F800400342F82130D1E7826B1368516843EA14
:101108000113916843EA0123116943EA01535169C4
:1011180043EA0163916902680B43920002F120429D
:10112800C2F804317047000041B14FF0204252F834
:10113800203043F0010342F8203070474FF020423E
:1011480052F82010024B0B4042F82030704700BF85
:10115800FEFF0F0021B1054AD36B0343D3637047E9
:10116800024AD36B23EA0003D3637047008001402F
:10117800014B9863704700BF0080014030B44FF0C6
:10118800E0235D699C691969586100229A611A69AE
:1011980042F001021A614FF0E0231B6903F00113CA
:1011A800012BF8D04FF0E0231A6922F001021A61EE
:1011B80000229A615D619C61196130BC7047000032
:1011C80008B56FF00400FFF727FD084B1B68084AB5
:1011D800A2FB0323C3F34753064A1370C3EB43121E
:1011E80003EB8203DA00044B1A8008BD14000020C8
:1011F80083DE1B43D6000020D400002008B5034B33
:101208001B7803FB00F0FFF7B9FF08BDD6000020EC
:1012180008B5034B1B8803FB00F0FFF7AFFF08BDC1
:10122800D40000207047FEE7FEE7FEE7FEE77047C0
:10123800704770477047000082B000230193009305
:101248002C4A136843F4803313602A4B1B6803F459
:1012580000330093019B01330193009B1BB9019B51
:10126800B3F5A06FF1D1234B1B6813F4003F06D0F0
:1012780001230093009B012B04D002B07047002388
:101288000093F7E71C4B1A6842F010021A601A68BC
:1012980022F003021A601A6842F002021A60A3F5EB
:1012A80080535A685A605A685A605A6842F4806291
:1012B8005A605A6822F47C125A605A6842F4E8125A
:1012C8005A601A6842F080721A600A4B1B6813F061
:1012D800007FFAD0074B5A6822F003025A605A6816
:1012E80042F002025A60034B5B6803F00C03082BC0
:1012F800F9D1C2E7001002400020024008B5FFF70C
:101308009BFF08BD08B5104B1A6842F001021A602D
:1013180059680E4A0A405A601A6822F0847222F408
:1013280080321A601A6822F480221A605A6822F4FD
:10133800FE025A604FF41F029A60FFF7DFFF044B6A
:101348004FF000629A6008BD001002400000FFF8EC
:1013580000ED00E008B501F0C7FA002008BD000064
:1013680070B50E461546002409E0074B1B8813F09C
:10137800400FFAD0315D0448FFF7D5FD0134AC4287
:10138800F3DB284670BD00BF0038014030B589B096
:101398001E4B1868002302221946806801F0FEFDE2
:1013A80001210420FFF7B4FC01214FF48040FFF72E
:1013B800AFFC174C2368079363680693154D07A97C
:1013C8002846FFF7C1FC06A92846FFF7BDFC0DF12A
:1013D800080C04F108030FCB8CE80F0005F5405505
:1013E80061462846FFF714FD01212846FFF772FDE4
:1013F800012240F225512846FFF77AFDA36901939F
:1014080001A8FFF7D9FB09B030BD00BF6800002074
:10141800705000080008014010B540F225510748F7
:10142800FFF789FD00B910BD044C2046FFF77FFD8A
:1014380001462046FFF777FDF5E700BF0038014079
:1014480008B50A20FFF7E4FE01210D48FFF7D4FC98
:10145800012803D00120FFF793FD08BD094AD2F8FF
:101468009431B3FA83F35B09C2F8943102F5C032C0
:10147800D2F89431B3FA83F35B09C2F89431E9E7FF
:10148800000801400080214208B50A20FFF7C0FE8D
:1014980008210848FFF7B0FC38B9074AD2F8943158
:1014A800B3FA83F35B09C2F894310820FFF768FDAB
:1014B80008BD00BF001801400000234208B50A20FB
:1014C800FFF7A6FE10210848FFF796FC38B9074A2F
:1014D800D2F89431B3FA83F35B09C2F8943110203F
:1014E800FFF74EFD08BD00BF0018014000802142F3
:1014F80008B5034B1878FFF749FDFFF74FFD08BD06
:101508001800002008B501210948FFF757FD0128F8
:1015180000D008BD074AD2F89431B3FA83F35B09C7
:10152800C2F8943101210248FFF754FDF1E700BFEA
:10153800000400400080214208B5244B1B7823B1E9
:1015480003212348FFF746FD08BD01212048FFF786
:1015580035FD012814D002211D48FFF72FFD012871
:10156800EED11C4B1B8813BB1B4B00221A60194B76
:1015780002221A80174B19881548FFF715FDDFE777
:10158800144B1B88022BE6D1134B1B68134A93425A
:1015980003D80133104A1360DDE70C4B01221A709F
:1015A80000210C4B19800A48FFF7FEFCD3E7022BF9
:1015B800E0D10748FFF7FFFC094B1880034B0122D5
:1015C8001A70044B00221A80D4E700BFD70000200D
:1015D800000C0040E0000020DC0000207F1A06001C
:1015E800D8000020F0B587B001210820FFF790FB54
:1015F80001214FF48040FFF799FB03238DF8163043
:101608004FF42043ADF8143018238DF81730224CCE
:1016180005A92046FFF798FB4FF48043ADF8143036
:1016280048238DF8173005A92046FFF78DFB4FF4A6
:101638008057ADF8147010238DF8173005A920468F
:10164800FFF782FB0126ADF808600223ADF80630EB
:101658000723ADF810300023ADF80430ADF80C3096
:10166800ADF80030ADF80E304FF48273ADF80230AB
:101678004FF40073ADF80A30084D69462846FFF765
:10168800ADFC39462046FFF7BEFB31462846FFF73A
:10169800CCFC07B0F0BD00BF000C01400038004092
:1016A80070B505460E46C82402211948FFF7D0FC3C
:1016B80070B9631E9BB20CB11C46F5E7154B186850
:1016C800154B67221549C06801F026FC01201DE072
:1016D80031460F48FFF7B7FCC82401210C48FFF733
:1016E800B7FC70B9631E9BB20CB11C46F5E7094BF9
:1016F8001868094B69220949C06801F00DFC0120EE
:1017080004E00348FFF7A1FC2870002070BD00BF6B
:10171800003800406800002048510008AC5000081C
:1017280010B584B00146FF238DF80F300DF10F007E
:10173800FFF7B6FF044610B9204604B010BD074BAA
:101748001B68D86804EB8402054B00937223054993
:1017580001EB8202044901F0DFFBEDE7680000209D
:10176800345100081C000020D450000810B582B085
:10177800FF21FFF795FF044610B9204602B010BDBF
:10178800074B1B68D86804EB8402064B00937A2346
:10179800054901EB8202054901F0BEFBEDE700BFF8
:1017A800680000201C5100081C000020D4500008CC
:1017B80030B583B004464FF480511948FFF725FB34
:1017C8000520FFF7ADFF60B92046FFF7CFFF0546BC
:1017D800B8B94FF480511248FFF715FB284603B0FB
:1017E80030BD05460F4B1B68D86805EB85020E4BCC
:1017F8000093BB230D4901EB82020D4901F08CFBDC
:10180800E7E7084B1B68D86805EB8502064B009391
:10181800BC23064901EB8202054901F07DFBD8E7AC
:10182800000C014068000020085100081C0000203E
:10183800D450000800B583B002E00520FFF7DEFCB5
:101848000DF10700FFF7B4FF9DF8073013F0010F03
:10185800F3D1002003B05DF804FB0000F0B583B0BD
:101868008B18013BB3F1006F38D207460E46154678
:10187800FFF7E0FF044600283CD14FF4805162484E
:10188800FFF7C3FA0B20FFF74BFF0446002847D1A8
:10189800C6F30740FFF744FF044600284FD1C6F3BC
:1018A8000720FFF73DFF0446002857D1F0B2FFF7A5
:1018B80037FF0446002860D1FF20FFF731FF0446B8
:1018C800002869D10026AE4280F08480B819FFF75D
:1018D8004DFF044600286ED10136F4E74B4B1B68D8
:1018E800D8684B4B0093E7234A4A4B4901F014FB55
:1018F80002240DE0454B1B68D86804EB8402444B76
:101908000093EA23454901EB8202434901F004FBB5
:101918004FF480513C48FFF776FA204603B0F0BDFB
:101928003A4B1B68D86804EB8402394B0093EC23CC
:101938003A4901EB8202384901F0EEFAE8E7334B05
:101948001B68D86804EB8402314B0093ED233349BC
:1019580001EB8202304901F0DFFAD9E72B4B1B6813
:10196800D86804EB84022A4B0093EE232B4901EB41
:101978008202294901F0D0FACAE7244B1B68D868CB
:1019880004EB8402224B0093EF23244901EB8202EB
:10199800214901F0C1FABBE71C4B1B68D86804EB6E
:1019A80084021B4B0093F0231C4901EB82021A4965
:1019B80001F0B2FAACE7154B1B68D86804EB840257
:1019C800134B0093F323154901EB8202124901F0EE
:1019D800A3FA9DE74FF480510B48FFF714FAFFF77D
:1019E80029FF0446002893D0084B1B68D86804EBED
:1019F8008402074B0093F623084901EB820206494B
:101A080001F08AFA84E700BF000C0140680000205A
:101A1800F850000844000020D45000081C000020A2
:101A28002DE9F04F9FB001214FF4B470FFF770F922
:101A380001214FF48070FFF75DF94FF0030A8DF82C
:101A48003EA00127ADF83C704FF010098DF83F908B
:101A58000FA9BD48FFF778F94FF48053ADF83C3033
:101A680018248DF83F40B94D0FA92846FFF76CF9A7
:101A7800ADF83C708DF83F400FA92846FFF764F990
:101A88004FF02002ADF83C208DF83F40A5F54065A9
:101A98000FA92846FFF758F9ADF83C908DF83F405C
:101AA8000FA92846FFF750F94FF4804BADF83CB02A
:101AB8008DF83F400FA92846FFF746F948F2000184
:101AC800ADF83C108DF83F400FA801462846FFF7B7
:101AD8003BF9ADF83C708DF83F400FA80146284609
:101AE800FFF732F94FF00208ADF83C808DF83F401F
:101AF8000FA801462846FFF727F94FF08000ADF8F8
:101B08003C008DF83F40924E0DF13C0C614630464A
:101B1800FFF71AF94FF4807CADF83CC08DF83F40D0
:101B28000DF13C0E71463046FFF70EF94FF4007E7A
:101B3800ADF83CE08DF83F400FAA11463046FFF75C
:101B480003F94FF48062ADF83C208DF83F400FA9AF
:101B58003046FFF7F9F84FF40063ADF83C308DF8E4
:101B68003F400FA93046FFF7EFF84FF48053ADF828
:101B78003C308DF83F400FAB19463046FFF7E4F88C
:101B88004FF40053ADF83C308DF83F400FAB194689
:101B98003046FFF7D9F8ADF83CB08DF83F400FABB1
:101BA80019463046FFF7D0F848F20001ADF83C106E
:101BB8008DF83F400FA93046FFF7C6F84FF4807CF8
:101BC800ADF83CC08DF83F400FA92846FFF7BCF898
:101BD8004FF4007EADF83CE08DF83F400FA9284651
:101BE800FFF7B2F84FF48063ADF83C308DF83F4012
:101BF8000FA92846FFF7A8F8002507950295019533
:101C0800049505950695CDF80C800E9509950895CF
:101C18000B950C950D950A94149506240F9413951D
:101C28001095CDF868B0CDF848900823119308AB0B
:101C38001C9319951795159516951B954FF4805378
:101C4800189301AB1D930FAB1846FFF708FA3946F6
:101C58002046FFF769FA3220FFF7DAFA4FF0D84248
:101C6800ED2313803B4B1F80FE211980EE2111804C
:101C7800DE21198021201880F12111801F80DF21A9
:101C88001180A3F80090C42111808F211980C621EA
:101C980011801D80E221198019801980BF211180CF
:101CA800AA211980B02111800D2119801D80198069
:101CB8001D80112119801D80192119801D8018800F
:101CC8001D802D2119801D803D2119801D805D21D9
:101CD80019801D8019801D80B12111804FF080006E
:101CE80018801D808B2018801D80962119801D80EA
:101CF800B22414801D801D80A3F800801D80A3F8E5
:101D080000A01D80B32414801D801D801D801D80AF
:101D18001D801D801D801D801D801D801D801D80D3
:101D28001D801D801D801D801D801D801D801D80C3
:101D38001D801D801D801D80B424148018801D8086
:101D480019801D80A12107E0000C014000200140FE
:101D5800001801400008006C19801D80B521118011
:101D6800A3F800801D80A3F800A01D80042018801F
:101D78001D80B62111801D801D80B72111801D8016
:101D88001D803F2119801D805E2119801D806421DE
:101D980019801D808C2119801D80AC2119801D801F
:101DA800DC2119801D8070241C801D8090241C80DB
:101DB8001D80EB241C801D8019801D80B821118096
:101DC8001D801D801D801D801D801D801D801D8023
:101DD800BA211180242119801D801D801D80C124F5
:101DE80014804FF020041C801D8054241C801D800A
:101DF800FF241C801D80C22414800A241C801D809E
:101E080018801D80C32010803C221A801D803A2033
:101E180018801D80392018801D80372018801D806B
:101E28001A801D80362018801D80322018801D8061
:101E38002F2018801D802C2018801D8029201880B4
:101E48001D80262018801D8019801D8019801D8006
:101E5800232119801D801A801D80362018802A466B
:101E68001D8032251D801A802F2119801A802C216F
:101E780019801A80292119801A80262119801A8030
:101E8800242119801A8019801A80232119801A8028
:101E98004FF0D841C4270F804FF062041C801A808D
:101EA8004FF0050BA3F800B01A8084241C801A8018
:101EB800F0241C801A8018241C801A80A4261E80F6
:101EC8001A801C801A804FF050061E801A800C243D
:101ED8001C801A8017241C801A8095261E801A8060
:101EE8004FF0F309A3F800901A80E6261E801A80A6
:101EF800C5260E801D801A804FF044051D801A806B
:101F080065251D801A8076251D801A804FF0880669
:101F18001E801A80C6250D8020251D801A801C80F1
:101F28001A804FF00108A3F800801A804FF0C70A02
:101F3800A1F800A01A801A801A801A80C8240C8080
:101F48001A801A801A801A80C9240C801A801A8074
:101F58001A801A801A801A801A801A801A801A80A9
:101F68001A801A801A801A801A801A80E0250D803B
:101F78004FF0160CA3F800C01A804FF01C041C8008
:101F88001A8021241C801A8018801A8046241C80FC
:101F98001A804FF0520CA3F800C01A804FF0640E5C
:101FA800A3F800E01A804FF07A041C801A804FF0E2
:101FB8008B0EA3F800E01A804FF0990CA3F800C02C
:101FC8001A804FF0A8041C801A80B9261E801A8037
:101FD8001F801A804FF0CA041C801A80D2241C80EB
:101FE8001A804FF0D90BA3F800B01A801D801A8010
:101FF800A3F800901A804FF0E10BA1F800B04FF061
:10200800160BA3F800B01A804FF01C0BA3F800B011
:102018001A804FF0220BA3F800B01A8018801A809B
:10202800452018801A804FF0520018801A804FF00F
:10203800640018801A804FF07A0018801A80A3F87C
:1020480000E01A80A3F800C01A804FF0A80018809A
:102058001A801E801A801F801A804FF0CA001880CC
:102068001A801C801A80D82018801A801D801A8037
:10207800A3F800901A80E22008804FF0050BA3F81F
:1020880000B01A800B2018801A801B2018801A8034
:10209800342018801A804FF044051D801A804F2084
:1020A80018801A80612018801A80792018801A8078
:1020B8004FF088061E801A804FF0970CA3F800C0D6
:1020C8001A80A6271F801A80B7261E801A80C2256C
:1020D8001D801A80A3F800A01A80D1241C801A80C1
:1020E800D62018801A80DD2018801A80A3F8009066
:1020F8001A804FF0E30EA1F800E0A3F800B01A80B0
:102108004FF00A0EA3F800E01A804FF01C0BA3F85A
:1021180000B01A804FF0330EA3F800E01A804FF099
:10212800440EA3F800E01A804FF0500EA3F800E028
:102138001A804FF0620BA3F800B01A804FF0780EA7
:10214800A3F800E01A804FF0880EA3F800E01A8088
:10215800A3F800C01A801F801A801E801A801D8074
:102168001A80A3F800A01A801C801A80D5241C802D
:102178001A8018801A80A3F800901A80E42008803A
:10218800A3F800801A80A3F800801A800221198021
:102198001A802A2119801A803C2119801A804B2222
:1021A8001A8000251D801C464FF05D0AA3F800A088
:1021B8001D804FF07409A3F800901D804FF084082B
:1021C800A3F800801D804FF0930EA3F800E01D8057
:1021D8004FF0A20CA3F800C01D80B3271F801D80FC
:1021E800BE2018801D80C42119801D80CD221A8030
:1021F8001D80D32323802580DD26268025804FF06F
:10220800F306268025804FF0D8464FF0E50BA6F858
:1022180000B025802580258025804FF0020BA4F88A
:1022280000B025804FF0290BA4F800B025804FF0AE
:102238003C0BA4F800B025804FF04B0BA4F800B07D
:102248002580A4F800A02580A4F800902580A4F893
:1022580000802580A4F800E02580A4F800C025802F
:102268002780258020802580218025802280258048
:1022780023802580DC23238025804FF0F3032380EF
:102288002580E62333804FF01102228025803423F5
:10229800238025804FF05608A4F8008025804FF051
:1022A8007609A4F8009025804FF0770EA4F800E096
:1022B80025806622228025804FF0880CA4F800C073
:1022C8002580992323802580BB202080258023809A
:1022D80025802280258055272780258027802580F6
:1022E8004FF0450BA4F800B02580432121802580BC
:1022F8004421218025804FF0E70AA6F800A04FF07E
:10230800320AA4F800A0258027802580A4F8009030
:102318002580228025804FF06709A4F80090258049
:10232800A4F8009025804FF08709A4F80090258034
:10233800238025802080258023802580A4F800E044
:10234800258021802580A4F8008025804FF023086F
:10235800A4F8008025804FF03308A4F80080258079
:10236800A4F800B025804FF0E808A6F80080258082
:10237800258023802580A4F800902580A4F800C03B
:102388002580A4F800E0258022802580A4F800C0DC
:1023980025804FF0AA0CA4F800C025802080258055
:1023A80023802580228025802780258027802580FE
:1023B800218025802180258027802580E92333807E
:1023C800A4F800C02580258025803580A4F800C0A9
:1023D800CF23338025802580258025802580258072
:1023E80025802580258025802580258025802580BD
:1023F800258025802580F023338025805023238065
:102408002580258025804FF0F30333802580F9232C
:10241800338006232380102323804FF02908A4F853
:10242800008025803A23338027804FF011023280C4
:102438006420FEF7EDFEA6F8008035233380258062
:1024480051233380FF232380532333802C2323807D
:10245800378082222280338001210348FEF7D3FC93
:102468001FB0BDE8F08F00BF000C014038B54FF039
:10247800D843D4221A8003F5006319880C4A1180C6
:1024880019881A8892B21C88A4B244EA0224A4B219
:102498001D88ADB289B2074800F06EFD2146064896
:1024A80000F06AFD2946054800F066FD38BD00BF0A
:1024B800E20000206051000878510008905100089F
:1024C80008B54FF0D8430C221A8003F50063198829
:1024D800034A1180198889B2024800F04DFD08BDF1
:1024E800E2000020A851000882B002AB03E9030013
:1024F8004FF0D8412A230B80BDF80020120A0F4B59
:102508001A809DF800201A80BDF80420120A1A804B
:102518009DF804201A802B220A80BDF80220120A96
:102528001A809DF802201A80BDF80620120A1A8027
:102538009DF806201A8002B0704700BF0008006CA2
:1025480070B582B06B4683E803001546BDF80010ED
:1025580040F23F12914228BF1146ADF80010BDF875
:102568000460964228BF1646ADF80460BDF8022004
:1025780040F2DF10824228BF0246ADF80220BDF8C3
:102588000640844228BF0446ADF80640761A013654
:10259800A41A013493E80300FFF7A6FF4FF0D843CD
:1025A8002C221A80002302E004490D80013304FB29
:1025B80006F19942F8D802B070BD00BF0008006C5F
:1025C80000B583B0024605496B4603C983E803009A
:1025D800FFF7B6FF03B05DF804FB00BF8C5000089E
:1025E800B0F5A07F21D2B1F5F07F1ED200B54FF033
:1025F800D84C2A23ACF800304FEA102E0B4BA3F826
:1026080000E0C0B21880A3F800E018802B20ACF8D6
:102618000000080A1880C9B21980188019802C2176
:10262800ACF800101A805DF804FB70470008006CD5
:102638002DE9F04F8BB006AB83E80300009200232E
:1026480001930293BDF81840BDF81C50AC426DD000
:10265800BDF81A70BDF81E60B74271D0AC4200F0E8
:102668008580DDF80080424639462046FFF7B8FFEE
:10267800424631462846FFF7B3FFAC4207D9ADF8CA
:102688001850ADF81C40ADF81A60ADF81E70BDF8D2
:102698001EB0BDF81A900BEB09039BB20493CB450F
:1026A80003D2ADF81AB0ADF81E90BDF81E00BDF803
:1026B8001A50A0EB0508BDF81C10BDF81840A1EB96
:1026C800040CE04512DD0026ADF81860ADF81A607C
:1026D8001FFA8CF1ADF81C101FFA88F0ADF81E0037
:1026E800ADF81C00ADF81E1002950194BDF81CA0B1
:1026F800BDF81840AAEB0400BDF81E10BDF81A601A
:10270800891B89B24FEA410E1FFA8EFE0FB200B242
:102718003F1A7F00BFB2A4EB0A0575442DB20134FD
:10272800A4B2CDF814E00397674643E0BDF81A1049
:10273800BDF81E3099428BD12046FFF751FF2AE0A1
:102748002346AC4228BF2B46ADF82030AC4238BFF8
:102758002C46ADF82440ADF82670ADF82270009AEA
:102768000AAB13E90300FFF7EBFE14E0ADF82440D1
:10277800ADF820403B46B74228BF3346ADF822307B
:10278800BE4238BF3E46ADF82660009A0AAB13E950
:102798000300FFF7D5FE0BB0BDE8F08F059B1D4485
:1027A8002DB210E03146204615E0009AFFF718FFD9
:1027B8000134A4B2A245EED9002DEFDB039B1D44E2
:1027C8002DB20136B6B2B845ECDD019B981980B23E
:1027D800029B191989B2CB45E7D2049B591A89B2D1
:1027E800E3E700002DE9F04F8BB0824615461E4600
:1027F800BDF85070ADF80000ADF8021000F10F0BF5
:102808001FFA8BFBADF804B00F31ADF80610104677
:10281800FDF7E6FC81464FF000082FE02E4A1780AE
:102828000133FF2B0DD80AAA02EBD30212F8201CA1
:1028380003F00700802202411142EFD0264A168099
:10284800EEE72B780A2B35D0BDF80020234B1B88E8
:102858001A44ADF80020BDF804201344ADF8043044
:10286800BDF802201E4B1B881A44ADF80220BDF8A3
:1028780006201344ADF806302544A044C84528D89E
:10288800294602A800F082F90446BDF80030B3F5E5
:10289800A07FD6D8BDF80230B3F5F07FD1D86B460B
:1028A80093E80300FFF720FE4FF0D8432C221A804C
:1028B8000023B6E7ADF800A0BDF802301033ADF83C
:1028C8000230ADF804B0BDF806301033ADF806306C
:1028D800D2E70BB0BDE8F08F0008006C580000206C
:1028E800F000002000000000D0B58AB0FEF768FCB8
:1028F800FFF796F8FEF74AFDFFF7B8FDFFF7E0FD92
:102908004FF6FF70FFF75CFE374C08AB04F1080286
:1029180092E8030083E803000022FFF711FE06ABEC
:1029280004F1100292E8030083E803000022FFF795
:102938007FFE04AB183494E8030083E80300002208
:10294800FFF776FEC823ADF80830ADF80A3000244A
:1029580034E02046FDF78EFD0022244BFDF72EFFC4
:102968001FA3D3E90023FDF7FFFD06460F4601F03C
:1029780087F900221E4BFDF7F7FD00221D4BFDF7DE
:102988003DFCFEF7B3F8ADF80C003046394601F0CF
:10299800BBF90022164BFDF7E7FD0022154BFDF7AA
:1029A8002DFCFEF7A3F8ADF80E004FF4784202AB09
:1029B80093E80300FFF73CFE0A34A4B2B4F5B47FF1
:1029C800C7D3FEF70FFE4FF6FF73009300230A4AA2
:1029D8003221C820FFF706FFFEE700BFAFF30080F3
:1029E800182D4454FB2109408C5000080080664093
:1029F8000000594000006940C0510008064B5B6B5D
:102A080013F0450FFAD0044B40F2FF529A6358690D
:102A180000F00800704700BF0080014008B5114B66
:102A28001B68012B11D0104B00221A704FF48070D4
:102A3800FEF79EFB00214FF48070FEF78BFB0B4BDB
:102A480001221A60084B187808BD094B00229A60C9
:102A580040F24C42DA600C20FFF7D0FF024B1870AE
:102A6800E4E700BFEC000020E8000020E4000020BC
:102A78000080014008B5FFF7D1FF08BD844600205B
:102A8800052807D80A78802303411A4202D001306A
:102A9800C0B2F5E7062874D8DFE800F004730B1617
:102AA800253A54000B7803F07F03CCF8003001205E
:102AB80070470B789B0103F4F8634A7802F03F02F1
:102AC8001343CCF8003070470B781B039BB24A784D
:102AD800920102F47C6213438A7802F03F021343A6
:102AE800CCF8003070470B789B0403F4E0134A7865
:102AF800120302F47C3213438A78920102F47C6256
:102B08001343CA7802F03F021343CCF800307047F1
:102B18000B781B0603F040734A78920402F47C0297
:102B280013438A78120302F47C321343CA78920161
:102B380002F47C6213430A7902F03F021343CCF893
:102B4800003070470B789B0703F080434A781206E1
:102B580002F07C5213438A78920402F47C021343F5
:102B6800CA78120302F47C3213430A79920102F400
:102B78007C6213434A7902F03F021343CCF80030D9
:102B880070470020CCF800007047000030B583B0D3
:102B9800044601A8FFF772FFF0B10546019B7F2BA1
:102BA80029D9A3F50851FF292ED9A3F59C4145F24F
:102BB800A512914234D9A3F57F43EF2B3CD9254D7B
:102BC8000FCD20606160A260E3600FCD206161617C
:102BD800A261E36101250BE01E4D0FCD206061600D
:102BE800A260E3600FCD20616161A261E36101250C
:102BF800284603B030BD202259012046FEF72EFE9C
:102C0800154B08221A80F3E7202241F2370303EB21
:102C180041112046FEF722FE0F4B08221A80E7E7F3
:102C2800202243F26E0303EB41112046FEF716FE05
:102C3800094B10221A80DBE75B01202203F52621CD
:102C480001F265512046FEF709FE034B10221A8057
:102C5800CEE700BFDC510008580000200C480D49A1
:102C68000D4A002302E0D458C4500433C4188C42DF
:102C7800F9D30A4A0A4C002301E013600432A24245
:102C8800FBD3FEF73FFB00F073FBFEF763FB7047D7
:102C980000000020B800002018540008B8000020E8
:102CA80044020020FEE70000024B0146186800F0CD
:102CB80025B800BF6800002070B50F4E0C4631687B
:102CC800054611B900F032FB30602146284600F075
:102CD8002DFB431C03D14FF0FF34204670BDC41CAC
:102CE80024F00304A042F8D0211A284600F01EFB65
:102CF8000130F2D1EFE700BFF4000020F8B5CD1C99
:102D080025F0030508350C2D38BF0C25002D064687
:102D180001DBA94203D90C2333600020F8BD2E4FF4
:102D280000F05CF83B681C4634BB29463046FFF788
:102D3800C3FF431C04464DD13C682146002940D1BD
:102D4800002C41D023683046E71800F0EFFA87429C
:102D58003AD123680335ED1A25F0030508350C2D03
:102D680038BF0C2530462946FFF7A6FF01302BD087
:102D780023682B4423600EE02268521B1ED40B2AC2
:102D880016D96119A342256018BF5960636808BF46
:102D9800396062514B60304600F026F804F10B00B0
:102DA800231D20F00700C21A1CBF1B1AA350B5E749
:102DB8006268A3420CBF3A605A60ECE72346646835
:102DC800B2E70C464968B9E70C233046336000F097
:102DD8000BF8A2E70560DEE7F8000020014800F0E4
:102DE800EBBA00BF3C020020014800F0E6BA00BF81
:102DF8003C020020002310B50446C0E90033C0E9B6
:102E08000433836081814366C28183611946082245
:102E18005C3000F04FFA054B24626362044BA362F6
:102E2800044BE362044B236310BD00BF0D3100085F
:102E38002F310008673100088B310008024A034926
:102E4800034800F07BB800BF5C000020153B000879
:102E58006C00002041680C4B10B59942044601D023
:102E680000F054FEA168094B994202D0204600F0B8
:102E78004DFEE168064B994204D02046BDE810405B
:102E880000F044BE10BD00BFFC000020640100201B
:102E9800CC01002010B50B4B0B4C0C4A20461A6095
:102EA80004210022FFF7A6FF04F16800012209218E
:102EB800FFF7A0FF04F1D0000222BDE81040122164
:102EC800FFF798BF34020020FC000020452E0008C0
:102ED800014800F071BA00BF3D020020014800F02F
:102EE8006CBA00BF3D02002010B50446FFF7F0FFA2
:102EF800236A1BB1BDE81040FFF7F0BF044B236203
:102F0800044B1B68002BF5D1FFF7C4FFF2E700BFA5
:102F18005D2E0008340200200EB403B5014603AB51
:102F2800054853F8042B0068019300F0B7FA02B083
:102F38005DF804EB03B07047680000202DE9F84302
:102F48000746884614460026D4E90195B9F10109D7
:102F580005D52468002CF7D13046BDE8F883AB8945
:102F6800012B07D9B5F90E30013303D0294638466D
:102F7800C04706436835E9E70FB407B5064904AB0F
:102F8800086853F8042B8168019300F087FA03B0AE
:102F98005DF804EB04B07047680000202DE9F743A2
:102FA8001D46574B04461F680E46904627B13B6A9C
:102FB80013B93846FFF798FFB8F1020F06D0B8F1F9
:102FC800010F00F29A80002DC0F29780636ED90736
:102FD80005D4A3899A0502D4A06D00F0EDF9214625
:102FE800384600F093FD616B41B104F14403994206
:102FF80002D0384600F0E2F9002363630023A3619E
:103008006360A3891B0603D53846216900F0D6F909
:10301800A389B8F1020F23F44A6323F00303A381C1
:1030280061D001AB6A462146384600F097FDA38976
:103038001843A0812DBB009D2846FFF735FE0646A4
:10304800002852D1DDF80090A94540D14FF0FF3556
:10305800B4F90C3043F00202A2810022A26004F10C
:1030680047022260226101226261626ED60704D49F
:10307800980502D4A06D00F0A0F9284603B0BDE879
:10308800F083002ED8D03B6A13B93846FFF72CFFDF
:10309800B8F1010F08BFA389C4E9046504BF43F070
:1030A8000103A381B4F90C30266013F008021ED086
:1030B800D90741BF00226D42A260A56158BFA56033
:1030C800626ED20701D49B0513D50025D5E7484683
:1030D800FFF7EAFD06460028B8D0A3894D4643F01D
:1030E8008003A381CFE70025B2E7A946F5E7A260F0
:1030F800E6E7A06D00F061F9E7E74FF0FF35BCE7C0
:103108006800002010B50C46B1F90E1000F0FCF86C
:103118000028ABBF636DA3891B1823F48053ACBF91
:103128006365A38110BD2DE9F0411F468B890546D3
:10313800DB050C46164605D502230022B1F90E1010
:1031480000F0D0F8A389324623F48053A38128469F
:103158003B46B4F90E10BDE8F04100F0F7B810B5E1
:103168000C46B1F90E1000F0BDF8431CA38915BF39
:10317800606523F4805343F48053A38118BFA3816F
:1031880010BDB1F90E1000F09DB8F8B50E46144602
:10319800054618B1036A0BB9FFF7A6FEA369A36039
:1031A800A3891A0701D5236943B92146284600F0A7
:1031B8002BF818B14FF0FF373846F8BD236822695D
:1031C800F6B2981A63693746834205DC21462846D9
:1031D80000F09CFC0028EDD1A368013BA3602368A4
:1031E8005A1C22601E706269431C9A4204D0A3894B
:1031F800DB07E1D50A2EDFD12146284600F086FC00
:103208000028D9D0D6E7000038B5294B05461868FC
:103218000C4618B1036A0BB9FFF766FEB4F90C3017
:10322800190722D4DA0607D409222A6043F040039A
:103238004FF0FF30A38133E0580712D5616B41B1DD
:1032480004F14403994202D0284600F0B7F800235D
:103258006363A38923F02403A381002363602369A4
:103268002360A38943F00803A38123694BB9A38989
:1032780003F42073B3F5007F03D02146284600F0FD
:1032880092FCB4F90C3013F001020AD00022A260BB
:1032980062695242A261226942B913F08000C5D125
:1032A80038BD990758BF6269A260F4E70020F7E7C4
:1032B8006800002003460244934200D1704703F897
:1032C800011BF9E738B50023054D044608462B6075
:1032D80001F086FE431C02D12B6803B1236038BD80
:1032E8003802002038B50446084611460022054D2C
:1032F8002A601A4601F08CFE431C02D12B6803B1E8
:10330800236038BD3802002038B504460846114607
:103318000022054D2A601A4601F082FE431C02D1A4
:103328002B6803B1236038BD3802002038B500236C
:10333800054D044608462B6001F07AFE431C02D175
:103348002B6803B1236038BD3802002038B5044625
:10335800084611460022054D2A601A46FEF700F875
:10336800431C02D12B6803B1236038BD380200200A
:1033780070B500260C4D0D4C641BA410A64209D153
:1033880001F064FE00260A4D0A4C641BA410A642F4
:1033980005D170BD55F8043B98470136EEE755F85E
:1033A800043B98470136F2E710540008105400080F
:1033B80010540008145400087047704738B5054683
:1033C800002940D051F8043C0C1F002BB8BFE4186A
:1033D800FFF704FD1C4A136833B96360146028467C
:1033E800BDE83840FFF700BDA34208D9206821187E
:1033F8008B4201BF19685B6809182160EDE71A461E
:103408005B680BB1A342FAD911685018A0420BD1DE
:1034180020680144501883421160E0D118685B6845
:10342800084410605360DAE702D90C232B60D6E712
:10343800206821188B4201BF19685B680918216050
:1034480063605460CBE738BDF8000020936810B47F
:10345800013B002B936007DA9469A34201DB0A2938
:1034680002D110BCFFF791BE1368581C1060197088
:10347800084610BC7047F8B506460F461446D518DE
:10348800AC4201D1002007E03A46304614F8011B4F
:10349800FFF7DCFF431CF3D1F8BD00002DE9F04F26
:1034A8000D461446984606469DB018B1036A0BB9F6
:1034B800FFF71AFD6B6ED90705D4AB899A0502D4BC
:1034C800A86DFFF779FFAB891B0701D52B699BB95D
:1034D80029463046FFF798FE70B16B6EDC0704D5BD
:1034E8004FF0FF301DB0BDE8F08FAB899805F7D4D9
:1034F800A86DFFF762FFF3E70023099320238DF8F7
:10350800293030234FF00109CDF80C80DFF8A8816D
:103518008DF82A3023469A4613F8012B0AB1252A3A
:10352800F9D1BAEB040B0BD05B462246294630464C
:10353800FFF7A1FF013000F0A780099A5A440992C9
:103548009AF80030002B00F09F8000234FF0FF32E4
:10355800CDE905230AF1010A049307938DF8533046
:103568001A935446052214F8011B534800F07AFBBD
:10357800049AD8B9D10644BF20238DF853301307D5
:1035880044BF2B238DF853309AF800302A2B15D0DE
:10359800544600204FF00A0C079A214611F8013BC7
:1035A800303B092B4BD9B0B1079214E0A0EB0803CC
:1035B80009FA03F31343A2460493D2E7039B191DA8
:1035C8001B680391002BBBBF5B4242F002020793CA
:1035D8000793B8BF049223782E2B0AD163782A2B3D
:1035E80032D1039B02341A1D1B68039243EAE3732A
:1035F8000593DFF8C8A003225046217800F032FB7B
:1036080038B14022049BA0EB0A00824013430134E6
:10361800049314F8011B062229488DF8281000F09D
:1036280021FB00283FD0274B1BBB039B073323F00C
:10363800070308330393099B3B4409936AE70C4645
:1036480001200CFB0232A8E700234FF00A0C1946B0
:1036580001340593204610F8012B303A092A03D982
:10366800002BC6D00591C4E7044601230CFB0121B9
:10367800F0E703AB00932A463046134B04A9AFF397
:1036880000800746781CD6D16B6ED90705D4AB8964
:103698009A0502D4A86DFFF790FEAB895B063FF54B
:1036A8001FAF09981EE703AB00932A463046064B26
:1036B80004A900F07DF8E4E7FC5100080252000874
:1036C80006520008000000007F3400082DE9F0478A
:1036D800164698468A680B6907469342B8BF134650
:1036E800336091F843200C46DDF820900AB101338D
:1036F80033602368990642BF336802333360256814
:1037080015F0060506D104F1190AE36832689B1A18
:10371800AB422BDC94F843302268003B18BF0123EE
:10372800920630D44146384604F14302C847013076
:1037380023D02368226903F00603042B14BF002555
:1037480033684FF0000608BFE56804F11A0408BFA3
:10375800ED1A54F8123C08BF25EAE5759342C4BF38
:103768009B1AED18B5421AD1002008E001235246F1
:1037780041463846C847013003D14FF0FF30BDE815
:10378800F0870135C1E73020E11881F843005A1C61
:1037980094F845102244023382F84310C2E701230B
:1037A800224641463846C8470130E6D00136D9E7B7
:1037B8002DE9FF470F7E9146782F80460C469A46A2
:1037C8000C9D01F1430207D8622F0AD8002F00F0A0
:1037D800E080582F00F0BB8004F1420684F8427064
:1037E8003AE0A7F16303152BF6D801A151F823F0AD
:1037F8005138000865380008E1370008E13700084B
:10380800E1370008E137000865380008E1370008AB
:10381800E1370008E1370008E1370008813900087E
:10382800F538000837390008E1370008E1370008A3
:10383800A3390008E1370008F5380008E137000827
:10384800E13700083F3900082B6804F142061A1DC9
:103858001B682A6084F842300123ABE0236829689A
:103868001F0601F10400286001D50D6803E05E061B
:10387800FBD5B1F90050002D61687ADA2D200029B6
:1038880084F84300A1602DDA0A235E486D4216468B
:10389800B5FBF3F103FB1157C75D06F8017D2F4611
:1038A800BB420D46F4D9082B0BD12368DF0708D596
:1038B800236961689942DEBF302306F8013C06F1AE
:1038C800FF36921B22614B4621464046CDF800A0A8
:1038D80003AAFFF7FBFE013071D14FF0FF3004B0AF
:1038E800BDE8F08723F004032360CDE72B68206848
:1038F800191D2960050601D51D6802E04106FBD5A2
:103908001D886F2F14BF0A2308233E48002184F81E
:1039180043106668002EA660B9DB216821F0040117
:103928002160002DB3D1002EB1D11646BBE7236824
:1039380043F0200323607827334884F845702968CA
:1039480023680E1D2E601E0603D50D6804E02D4861
:10395800F3E75D06F9D50D88D90744BF43F0200386
:1039680023600DB11023D1E7236823F020032360DF
:10397800F8E70A232348CCE72B682668181D6169F5
:10398800286035061B6801D5196002E07006FBD572
:10399800198000231646236195E72B6800211A1D1C
:1039A8002A601E686268304600F05CF908B1801B26
:1039B800606063682361002384F8433083E73246FC
:1039C800494640462369D047013086D023689B0783
:1039D80014D4E068039B9842B8BF18467FE70123D8
:1039E800324649464046D04701303FF476AF01356C
:1039F800E36803995B1AAB42F1DCEAE7002504F1BE
:103A08001906F5E70D5200081E520008B1F90C20FE
:103A1800F8B5170705460C4656D44B68002B02DC50
:103A28000B6C002B3DDDE66A002E3AD0002312F421
:103A380080522F68216A2B6025D0626DA3895807B0
:103A480005D56368D21A636B0BB1236CD21A216A4D
:103A580000232846E66AB047411C24D0002363604F
:103A680023692360A389DA0400D56065616B2F6040
:103A7800B9B104F14403994202D02846FFF79EFCED
:103A8800002363630DE001232846B047461C024625
:103A9800D4D12B68002BD1D01D2B01D0162B2AD1C5
:103AA8002F6000202EE02A68B4F90C3042B11D2A9C
:103AB80001D0162A21D10023636023692360D5E74A
:103AC800626022692260CEE70F69002FE9D0930770
:103AD80018BF00230E6808BF4B69F61B0F608B6088
:103AE800002EDEDD33463A462846216AD4F828C03F
:103AF800E047002807DCB4F90C304FF0FF3043F002
:103B08004003A381F8BD0744361AE9E738B50B69C5
:103B180005460C4613B90025284638BD18B1036A76
:103B28000BB9FFF7E1F9B4F90C30002BF3D0626E52
:103B3800D00704D4990502D4A06DFFF73DFC2846B0
:103B48002146FFF763FF636E0546DA07E4D4A389CD
:103B58009B05E1D4A06DFFF730FCDDE770B50C469E
:103B6800B1F90E10154600291E4696B00CDAA38945
:103B7800002113F0800F14BF40234FF4806300200E
:103B880031602B6016B070BD6A4600F049F8002815
:103B9800EDDB019901F47041A1F5005359425941F7
:103BA8004FF48063EBE78B89F7B59D0706460C4613
:103BB80007D504F14703236023610123636103B040
:103BC800F0BD6A4601ABFFF7C9FF009F05463946BD
:103BD8003046FFF793F848B9B4F90C309A05EED49B
:103BE80023F0030343F00203A381E2E7A389C4E9B6
:103BF800040743F08003A381019B20605BB130463A
:103C0800B4F90E1000F01EF828B1A38923F00303BD
:103C180043F00103A381A3891D43A581CFE70000D9
:103C280038B50023064D0446084611462B6001F0BE
:103C3800DFF9431C02D12B6803B1236038BD00BFF4
:103C48003802002038B50023054D044608462B608D
:103C580001F0D6F9431C02D12B6803B1236038BDAB
:103C680038020020034610B5C9B2024493421846F0
:103C780001D1002003E0047801338C42F6D110BD55
:103C88001F4A21F0004393421DD930B51D4A87B021
:103C9800934205D902460B46FCF7AEFA07B030BD91
:103CA80002AA00F05DFA00F0030001280FD00228F4
:103CB8001FD0B8B1DDE90423DDE902010124009435
:103CC80000F096F9EAE70022002300F069B80090B6
:103CD800DDE90423DDE9020100F08AF901F1004180
:103CE80007B030BDDDE90423DDE9020100F058F832
:103CF800D4E7DDE90423DDE9020100F051F8EDE73E
:103D0800FB21E93FFFFFEF7F30B5224A21F0004356
:103D1800934287B01CD9204A934205D902460B46E4
:103D2800FCF76AFA07B030BD02AA00F019FA00F0F1
:103D38000300012814D0022822D0C0B1DDE90423F1
:103D4800DDE9020100F02CF801F1004107B030BDB7
:103D5800002400220023009400F04AF907B030BD87
:103D6800DDE90423DDE9020100F01AF8DAE70124AD
:103D7800DDE90423DDE90201009400F039F9D1E717
:103D88000124DDE90423DDE90201009400F030F9A3
:103D9800DAE700BFFB21E93FFFFFEF7F00000000EB
:103DA8002DE9F04F21F00048B8F1795F06460F463B
:103DB80092469B4685B06DD2FCF770FE002800F055
:103DC800ED8032463B4630463946FCF7CDFB76A3BC
:103DD800D3E9002304460D46FCF7C6FB74A3D3E9D8
:103DE8000023FCF70BFA22462B46FCF7BDFB72A317
:103DF800D3E90023FCF700FA22462B46FCF7B4FB74
:103E08006FA3D3E90023FCF7F9F922462B46FCF708
:103E1800ABFB6DA3D3E90023FCF7EEF922462B4652
:103E2800FCF7A2FB6AA3D3E90023FCF7E7F92246D3
:103E38002B46FCF799FBCDE90001002220462946D4
:103E4800654BFCF791FBDDE9002380468946204657
:103E58002946FCF789FB44464D468046894652462A
:103E68005B4630463946FCF77FFB02460B46404628
:103E78004946FCF7C1F902460B4620462946FCF79D
:103E8800BBF902460B4600205449FCF7B5F905B0CA
:103E9800BDE8F08F02460B46FCF766FB42A3D3E968
:103EA800002304460D46FCF75FFB41A3D3E900233A
:103EB800FCF7A4F922462B46FCF756FB3EA3D3E9B0
:103EC8000023FCF799F922462B46FCF74DFB3CA34F
:103ED800D3E90023FCF792F922462B46FCF744FB72
:103EE80039A3D3E90023FCF787F922462B46FCF7D0
:103EF8003BFB37A3D3E90023FCF780F92B46224686
:103F0800FCF732FB364BCDE90001984595D9354B86
:103F1800002298453AD8A8F5001300202F4990466A
:103F28009946FCF769F9CDE90201002220462946A5
:103F3800294BFCF719FB42464B46FCF75DF9DDE9D6
:103F480000238046894620462946FCF70DFB444657
:103F58004D468046894652465B4630463946FCF710
:103F680003FB02460B4640464946FCF745F9024624
:103F78000B4620462946FCF73FF902460B46DDE989
:103F88000201FCF739F905B0BDE8F08F164B4FF088
:103F98000008CDE90223DFF85490C6E700200F4956
:103FA80005B0BDE8F08F00BFD43888BEE9FAA8BDD7
:103FB800C4B1B4BD9EEE213EAD529C804F7E923E70
:103FC8009015CB19A001FA3E7751C1166CC1563F26
:103FD8004C5555555555A53F0000E03F0000F03FB2
:103FE8003233D33F0000E93F0000E73F0000D23FF3
:103FF8002DE9F04F83B0CDE9002321F00043B3F160
:10400800795F04460D4604D2FCF748FD002800F00D
:10401800858022462B4620462946FCF7A5FA064607
:104028000F4632463B4620462946FCF79DFA3EA3FA
:10403800D3E9002382468B4630463946FCF794FA8A
:104048003BA3D3E90023FCF7D7F832463B46FCF7FD
:104058008BFA39A3D3E90023FCF7D0F832463B4664
:10406800FCF782FA36A3D3E90023FCF7C5F83246F9
:104078003B46FCF779FA34A3D3E90023FCF7BEF8F2
:104088000C9B804689469BB3DDE900010022324B38
:10409800FCF76AFA42464B468046894650465946DE
:1040A800FCF762FA02460B4640464946FCF7A4F87C
:1040B80032463B46FCF758FADDE90023FCF79CF84A
:1040C80023A3D3E9002306460F4650465946FCF77A
:1040D8004BFA02460B4630463946FCF78FF8024643
:1040E8000B4620462946FCF787F803B0BDE8F08F59
:1040F80002460B4630463946FCF736FA14A3D3E994
:104108000023FCF779F852465B46FCF72DFA224665
:104118002B46FCF773F803B0BDE8F08F204629461C
:1041280003B0BDE8F08F00BF7CD5CF5A3AD9E53D42
:10413800EB9C2B8AE6E55A3E7DFEB157E31DC73E50
:10414800D561C119A0012A3FA6F810111111813FAC
:10415800495555555555C53F0000E03F0000000042
:104168002DE9F04F884B21F000479F4204460D4649
:1041780093468FB040F29180844B88469F4228D85E
:1041880077A3D3E90023002940F3A681FCF734F88C
:104198007F4B04469F420D4600F0908072A3D3E9FE
:1041A8000023FCF729F802460B4620462946144608
:1041B8001D46FCF721F86CA3D3E90023FCF71CF893
:1041C8000126CBE90045CBE9020130460FB0BDE836
:1041D800F08F704B9F4240F28B806F4B9F4264D8A8
:1041E8004FEA275AAAF21646A7EB06510F4602963F
:1041F8000646FCF753FCFCF74DF902460B463046E1
:104208003946CDE90823FBF7F7FF0022634BFCF79B
:10421800ABF90F460646FCF741FCFCF73BF90246B2
:104228000B4630463946CDE90A23FBF7E5FF002265
:104238005A4BFCF799F903244FF000094FF0000A94
:10424800CDE90C010EAD4A4675E9020153462646F2
:10425800013CFCF7F1FB0028F5D102245049334614
:104268000191029A594608A8009400F08BF9B8F118
:10427800000F0646A9DADBF80400DBF80020DBF8BB
:104288000C1000F10043CBE90023DBF8082001F112
:104298000043CBE90223764297E700220023CBE9CB
:1042A8000045CBE9022300268FE702460B46FBF7C1
:1042B800A3FFCBE90201CBE90001F4E72CA3D3E982
:1042C8000023FBF799FF2CA3D3E9002306460F46EA
:1042D800FBF792FF04460D4622462B4630463946E8
:1042E800FBF78AFF24A3D3E90023FBF785FF67E7E1
:1042F80000F044F922A3D3E9002304460D46FCF755
:1043080033F90022274BFBF779FFFCF7C7FB06467A
:10431800FCF7C0F802460B46CDE9042310A3D3E905
:104328000023FCF721F902460B4620462946FBF7F5
:1043380063FF0DA3D3E9002381468A46DDE9040122
:10434800FCF712F91F2ECDE902012FDC164B721E65
:1043580053F82230BB4229D002460B469AE000BFF0
:1043680000004054FB21F93F3163621A61B4D03D2B
:104378000000601A61B4D03D7370032E8A19A33B04
:1043880083C8C96D305FE43FFB21E93F7BD9024018
:10439800FB21F93FFB213941FFFFEF7F000070410E
:1043A800B05200080000E03F305200083B15079368
:1043B8004846DDE902235146FBF71EFFC1F30A53C5
:1043C800C3EB1753102B04460D4669DD60A3D3E9F0
:1043D8000023DDE90401FCF7C7F804460D46224630
:1043E8002B4648465146FBF707FF02460B46484610
:1043F800514691469A46FBF7FFFE22462B46FBF7AD
:10440800FBFE55A3D3E9002304460D46DDE904016C
:10441800FCF7AAF822462B46FBF7EEFE02460B46AF
:1044280048465146CDE90223FBF7E6FE079AC1F359
:104438000A53D31A312B04460D4631DD48A3D3E97C
:104448000023DDE90401FCF78FF804460D462246F7
:104458002B4648465146FBF7CFFE02460B464846D8
:10446800514691469A46FBF7C7FE22462B46FBF774
:10447800C3FE3DA3D3E9002304460D46DDE904014C
:10448800FCF772F822462B46FBF7B6FE02460B46AF
:10449800CDE9022348465146FBF7AEFE04460D46D9
:1044A80022462B4648465146CBE90045FBF7A4FE79
:1044B800DDE90223FBF7A0FEB8F1000FCBE902010A
:1044C800BFF683AE05F10042CBE9004201F100429C
:1044D800CBE90202764278E6FBF790FE264B0446CB
:1044E8009F420D4618D022A3D3E90023FBF786FE8E
:1044F80002460B462046294614461D46FBF77CFE1D
:104508001BA3D3E90023FBF779FE4FF0FF36CBE975
:104518000045CBE9020158E60DA3D3E90023FBF7D8
:104528006DFE0DA3D3E9002306460F46FBF766FE92
:1045380004460D4622462B4630463946FBF75CFEBC
:1045480005A3D3E90023FBF759FEDEE7AFF30080AC
:104558000000601A61B4D03D7370032E8A19A33B22
:104568000000002E8A19A33BC14920259A837B3974
:104578003163621A61B4D03DFB21F93F21F0004359
:10458800194670472DE9F04FADF5197DBE4CA29D37
:104598009E4654F82540013B12F1140F82460594BB
:1045A8000B910393C0F24C83B849D31E81FB0301DE
:1045B800DB17C3EBA10308930133A3EB8303DB00F1
:1045C800D618089A0EF1FF33D71A059A12EB030989
:1045D80021D409F10109B9440DF18008029600249B
:1045E8004E460025C146DDF88CB2F04608E05BF87F
:1045F8002700FBF74FFF0137B742E9E8020108D06F
:10460800002FF4DA204629460137B742E9E80201CB
:10461800F6D1C646029E059B002BAAF10803049317
:10462800B8BF4FEACE0737DBDDF80C9003EBCE08B6
:104638004B460DF5E07BD9469B4620AA02EBCE0AF5
:104648004FEACE07059ACDE906E772440292009632
:10465800039B002BC0F2AA81574600240025049E24
:1046680077E90223F6E90201FBF77EFF02460B46D3
:1046780020462946FBF7C2FD464504460D46EFD1C4
:10468800029B0BF1010B9B45E9E802450AF1080A78
:10469800DED1DDE906E7009E049B059A03EB070BD4
:1046A8000CAB03EB8203043B09930CAB029203EBC4
:1046B8008207CDF828E0029A98AB03EBC203002AE0
:1046C80053E928452DDD0DF5E07A0DF130090AEBA7
:1046D800C2080096069700226D4B20462946FBF734
:1046E80043FFFCF7DBF9FBF7D5FE0022694B0646D2
:1046F8000F46FBF739FF02460B4620462946FBF7D3
:104708007BFDFCF7CBF978E9022349F8040B39461D
:104718003046FBF773FDD04504460D46DBD1009EBD
:10472800069F20462946324600F052FB00224FF0F1
:104738007F5304460D46FBF717FF00F0CDFB002220
:10474800554BFBF711FF02460B4620462946FBF75F
:1047580053FD0D460446FCF7A1F98246FBF79AFE85
:1047680002460B4620462946FBF746FD002E8046AA
:10477800894640F39380029BC6F11802581E0CAB81
:1047880053F8203043FA02F101FA02F29B1A0CAAFC
:1047980042F82030C6F1170243FA02F5002D8A4488
:1047A80000F3EB800022002340464946FCF744F919
:1047B800002800F04A82029B059A93420CDD0022F1
:1047C8000CA901EB830353F8041DBB4242EA010222
:1047D800F9D1002A40F0F180059B0CAA013B52F860
:1047E8002330002B40F0DD800123099A52F8041D84
:1047F80001330029FAD0029A134402F10108089AF9
:10480800029902EB080A0AF1804AA39A0AF1FF3AD0
:1048180002EB8A0A0A9A20A80A4400EBC20970AA85
:1048280002EBC10202920696009307975AF8040F0A
:10483800FBF730FE039BE9E80201002B20DB4F4623
:1048480000240025049E77E90223F6E90201FBF71C
:104858008BFE02460B4620462946FBF7CFFC5E45F9
:1048680004460D46EFD1029B08F10108E3E9024531
:104878000293009B9845D9DDDDE9066702931AE7A4
:1048880000240025EFE700BFF8530008ABAAAA2AC6
:104898000000703E000070410000204064D1029B7F
:1048A8000CAA013B52F82350ED15002D7FF77AAF83
:1048B800029B0AF1010A002B40F3568200216FF097
:1048C8007F4C0C46CDE90089DDF808E00CA80FE024
:1048D80001318E4542F8049C6BDD136808300131C4
:1048E800ACEB03038E454FF0010440F8043C0BDDAC
:1048F800024652F8043BACBBC3F18079002BE7D1E8
:1049080001318E451046F3DCDDE90089002E0DDD0E
:10491800012E3BD0022E09D1029B0CA95A1E0CABCA
:1049280053F82230C3F3150341F82230022D7FF4E7
:1049380039AF42464B460020B449FBF75DFC804640
:104948008946002C3FF42EAF32460020AF4900F0D4
:104958003FFA02460B4640464946FBF74DFC804667
:1049680089461FE71046BAE70022A94BFCF782F8F0
:10497800002840F05381054614E7029B0AF1010A1A
:10498800002BD8BF002499DC012EC3D1029B0CA9AF
:104998005A1E0CAB53F82230C3F3160341F82230E9
:1049A800C4E7029B03F10108434628E700240025D9
:1049B80066E60124DDE90089A8E7029A0CAB541EDB
:1049C80053F82430CDE9035A183E5BB902F180430D
:1049D800013B0CAA02EB830353F8042D013C183E5B
:1049E800002AF9D032460020884900F0F1F9002C5D
:1049F80006460F46C0F2BE8104F1010A4FEACA0119
:104A08004FF000088B460CAB03EB8A05DFF80492E5
:104A180070AB03EBCA0A55F8040DFBF73BFD3246B1
:104A28003B46FBF7A1FD4B466AE902014246304688
:104A38003946FBF799FD0CAB9D4206460F46EAD175
:104A48005946DDF81490ABF1080370AA0DF5907B78
:104A58001344B9F1000FCDF800B04FF0000A9B469F
:104A6800029405912ADBD8460025002600276A4CC7
:104A780001E0554510DCF4E90223F8E80201FBF7F0
:104A880073FD02460B4630463946FBF7B7FB013546
:104A9800A94506460F46ECDA009BABF1080B03EB81
:104AA800CA05029BC5E900679A454FEACA020AF19E
:104AB800010106D0B9F1000F8A46D4DA0026002792
:104AC800EAE7A29B029C022B0599DDF800B01CDCEA
:104AD800002B00F3E98011D10BEB01040020002129
:104AE80074E90223FBF78AFB5C45F9D1039B13B1F8
:104AF80001F1004319460B9BC3E90001049B03F035
:104B080007000DF5197DBDE8F08FA29B032BF5D1A9
:104B1800002C00F03F81A846CDE905450295079293
:104B2800CDF800B058E902453046394622462B46B2
:104B3800FBF764FBB246BB4606460F4632463B4689
:104B480020462946FBF758FB5B465246FBF756FBC7
:104B5800009BC8E9000148E90267C146A8F10808B6
:104B68004345DFD1DDE90652059CDDF808A0012C9C
:104B7800DDF800B0CDF8089000F00C81D5E90045CB
:104B8800CDF800B093465AE90267204629463246D6
:104B98003B46FBF733FBA046A94604460D46224692
:104BA8002B4630463946FBF727FB4B464246FBF778
:104BB80025FBCAE900016AE90245029B5345E2D197
:104BC8005A461D4600200021DDF800B008320BEBE4
:104BD8000204083574E90223FBF710FBA542F9D15A
:104BE800039B002B40F08380DBE902230B9CC4E984
:104BF8000223DDE94823C4E90023049BC4E9040136
:104C080003F007000DF5197DBDE8F08F0000F03FB7
:104C18000000E03F0000703EB0530008029B0AF11C
:104C2800010A002BC8BF02253FF748AE42464B4653
:104C3800022500206249FBF7DFFA80468946B1E584
:104C480000216FF017030891BAE4404649467242C2
:104C5800CDE9035A00F0BCF800225A4B8046894639
:104C6800FBF708FF002838D00022574B404649463A
:104C7800FBF77AFCFBF712FF0546FBF70BFC00225B
:104C8800504BFBF771FC0B46024649464046FBF782
:104C9800B3FAFBF703FF029F0CAB7C1C43F8270019
:104CA800183643F824509DE60BEB0105002000213F
:104CB80075E90223FBF7A2FAAB45F9D1039B93B33D
:104CC8000B9A01F100431060536002460B46DDE980
:104CD8004801FBF791FA84BB39E040464946FBF7A7
:104CE800DDFE029B0CAA1C4642F823007AE60B9CC8
:104CF80001F10042C4E90402DBF80400DBF80020FB
:104D080000F10043DBF80C10C4E90023DBF80820AD
:104D180001F10043C4E90223049B03F007000DF5E9
:104D2800197DBDE8F08F0B9B0246C3E900010B46D5
:104D3800DDE94801FBF760FA64B10125FBE90223CC
:104D48000135FBF75BFAAC42F8DA039B13B101F1CA
:104D5800004319460B9BC3E90201049B03F00700BB
:104D68000DF5197DBDE8F08F022D7FF41BAD0246CD
:104D78000B465EE7A29B022B06DC002B0DDC7FF4C2
:104D8800BDAE00200021B1E6A29B032B7FF4B6AE96
:104D98000DF5907B0020002122E7039B43B1DDE95C
:104DA800480100224FF000430B9CC4E90023CEE7E2
:104DB8000022DDE9480100230B9CC4E90023C9E770
:104DC8000000F03F000070410000703E000000004D
:104DD8002DE9F0411646C1F30A52074688460B46AC
:104DE8006ABB21F00043034327D0354B0022FBF771
:104DF800BBFB344B07469E42884640DB0B46C1F35B
:104E08000A52363A4CF250318E4221DC164440F2B6
:104E1800FE7296421CDC002E28DC16F1350F35DBBD
:104E280023F0FF4121F4E001363641EA065500221D
:104E380038462946244BFBF797FBBDE8F08140F242
:104E4800FF7C6245DED10246FBF7D8F9BDE8F08168
:104E580017A3D3E900231C464FEAD87565F3DF741E
:104E680021461A48FBF780FBBDE8F08123F0FF4399
:104E780023F4E003384643EA0651BDE8F0810EA367
:104E8800D3E90023FBF770FBBDE8F08108F000448C
:104E980044F0D27141F4B73107A3D3E900230C4899
:104EA80041F01F01FBF760FBC7E700BFAFF30080CD
:104EB8009C7500883CE4377E59F3F8C21F6EA50143
:104EC80000005043B03CFFFF0000903C9C750088F8
:104ED80059F3F8C200000000C1F30A5C2DE9F04163
:104EE800ACF2FF35132D02460B460C46064632DC63
:104EF800002D20DBDFF8E0800F4648FA05F801EACC
:104F0800080C5CEA000C2BD031A3D3E90023FBF793
:104F180075F900220023FBF7B7FD40B1002C03DA36
:104F28004FF480132B411F44002627EA080421462A
:104F38003046BDE8F08126A3D3E90023FBF75EF9EC
:104F480000220023FBF7A0FD0028F0D0002C27DB6F
:104F580000263446EBE7332D06DDB5F5806F1CD00F
:104F680010461946BDE8F0814FF0FF37ACF2134CFC
:104F780027FA0CF70742F3D015A3D3E90023FBF770
:104F88003DF900220023FBF77FFD0028CFD0002C3D
:104F980033460CDB23EA0706C9E7FBF72FF9E1E7FD
:104FA80024F0004426430DD14FF00044BFE7142DF0
:104FB80006D00122C5F13405AA401344B342E9D210
:104FC8000134E7E70026054CB1E700BFAFF30080E6
:104FD8009C7500883CE4377EFFFF0F000000F0BF9F
:104FE8005822024B4FF0FF301A60704738020020F9
:104FF8005822024B4FF0FF301A60704738020020E9
:105008005822024B00201A60704700BF3802002067
:105018005822024B4FF0FF301A60704738020020C8
:105028005822024B4FF0FF301A60704738020020B8
:10503800044A05491368002B08BF0B461844106042
:10504800184670474002002048020020F8B500BF0B
:10505800F8BC08BC9E467047F8B500BFF8BC08BC51
:045068009E467047A9
:10507000000201180004010400C201000000000049
:1050800000000C0000000000250F000100000000DF
:105090003F01DF0132003200640064000000C800FC
:1050A0004001C800C8000000C800E001466C61670C
:1050B000206572726F722C206C696E653A202564CF
:1050C0002C2066756E6374696F6E3A2025730D0A25
:1050D000000000004572726F722025732C206C69ED
:1050E0006E653A2025642C2066756E6374696F6E58
:1050F0003A2025730D0A0000466C6173685F4558BD
:105100005F52656164000000466C6173685F4558DA
:105110005F526561645F535200000000466C61732A
:10512000685F45585F526563696576655F4279746B
:1051300065000000466C6173685F45585F53656E9B
:10514000645F4279746500005F5F466C6173685FFD
:1051500045585F427974655F496D706C00000000CE
:1051600056656E646572204944202020202020204E
:105170003D2025780D0A00004368697020494420CD
:1051800020202020202020203D2025780D0A00000E
:10519000436869702056657273696F6E2020202005
:1051A0003D2025780D0A0000506978656C20466F17
:1051B000726D6174202020203D2025780D0A0000AA
:1051C0004469616E61202B204176610AE69687E58D
:1051D000AD97E6B58BE8AF9500000000FF0000003A
:1051E00000000000000000000000000000000000BF
:1051F000000000000000000000000000232D302B04
:105200002000686C4C0065666745464700303132C7
:10521000333435363738394142434445460030311E
:10522000323334353637383961626364656600007D
:10523000FB21F93FFB2109407CD91240FB21194099
:105240007A6A1F407CD92240BBFD2540FB212940C2
:105250003A462C407A6A2F405C4731407CD9324034
:105260009C6B3440BBFD3540DB8F3740FB21394020
:105270001BB43A403A463C405AD83D407A6A3F40D7
:105280004C7E40405C4741406C1042407CD94240DB
:105290008CA243409C6B4440AC344540BBFD454030
:1052A000CBC64640DB8F4740EB584840FB21494086
:1052B00083F9A200444E6E00FC291500D157270047
:1052C000DD34F50062DBC0003C999500419043005D
:1052D0006351FE00BBDEAB00B761C5003A6E24002F
:1052E000D24D42004906E00009EA2E001C92D1008E
:1052F000EB1DFE0029B11C00E83EA700F535820039
:1053000044BB2E009CE98400B4267000417E5F00FF
:10531000D6913900538339009CF439008B5F8400A7
:1053200028F9BD00F81F3B00DEFF97000F9805002D
:10533000112FEF000A5A8B006D1F6D00CF7E3600D3
:1053400009CB2700464FB7009E663F002DEA5F005D
:10535000BA277500E5EBC7003D7BF100F739070080
:1053600092528A00FB6BEA001FB15F00085D8D005E
:10537000300356007BFC4600F0AB6B0020BCCF0036
:1053800036F49A00E3A91D005E619100081BE60057
:1053900085996500A0145F008D40680080D8FF00EB
:1053A00027734D0006063100CA561500C9A87300C0
:1053B0007BE260006B8CC00000000040FB21F93FE5
:1053C000000000002D44743E000000809846F83C28
:1053D0000000006051CC783B00000080831BF03956
:1053E0000000004020257A38000000802282E33649
:1053F000000000001DF369350200000003000000FA
:0854000004000000060000009A
:08540800E0ADFF7F0100000090
:045410009D0B0008E8
:04541400750B00080C
:10541800020406080000000001020304010203045C
:105428000607080900A24A047F0000007375636339
:105438006573730000000000000000000000000019
:1054480074696D65206F757400000000000000002D
:10545800000000006F7574206F6620626F756E64BF
:1054680073000000000000001000000000000000B1
:1054780003000000FC0000206C0000200000000079
:10548800FC00002064010020CC0100200000000086
:105498000000000000000000000000000000000004
:1054A80000000000000000000000000000000000F4
:1054B80000000000000000000000000000000000E4
:0854C8000000000000000000DC
:0400000508002C655E
:00000001FF
