:020000040800F2
:1000000000000120711C0008A1070008A3070008D8
:10001000A5070008A7070008A907000800000000BE
:10002000000000000000000000000000AB07000816
:10003000AD07000800000000AF070008B107000886
:100040006D0A0008B91C0008B91C0008B91C00089A
:10005000B91C0008B91C0008BD090008B91C00083B
:10006000B91C0008050A0008390A0008B91C000874
:10007000B91C0008B91C0008B91C0008B91C00080C
:10008000B91C0008B91C0008B91C0008B91C0008FC
:10009000B91C0008B91C0008B91C0008B91C0008EC
:1000A000B91C0008B91C0008B91C0008B91C0008DC
:1000B000B91C0008810A0008B91C0008B91C000816
:1000C000B91C0008B91C0008B91C0008B91C0008BC
:1000D000B91C000895090008B91C0008B91C0008E3
:1000E000B91C0008B91C0008B91C0008B91C00089C
:1000F000B91C0008B91C0008B91C0008B91C00088C
:10010000B91C0008B91C0008B50A0008B91C000891
:10011000B91C0008B91C0008B91C0008B91C00086B
:10012000B91C0008B91C0008B91C0008B91C00085B
:1001300000000000000000000000000000000000BF
:1001400000000000000000000000000000000000AF
:10015000000000000000000000000000000000009F
:10016000000000000000000000000000000000008F
:10017000000000000000000000000000000000007F
:10018000000000000000000000000000000000006F
:10019000000000000000000000000000000000005F
:1001A000000000000000000000000000000000004F
:1001B000000000000000000000000000000000003F
:1001C000000000000000000000000000000000002F
:1001D000000000000000000000000000000000001F
:0401E0005FF8E0F1F3
:1001E4000348044B834202D0034B03B118477047C2
:1001F400B4000020B4000020000000000548064BB5
:100204001B1AD90F01EBA301491002D0034B03B110
:1002140018477047B4000020B4000020000000001C
:1002240010B5064C237843B9FFF7DAFF044B13B13A
:100234000448AFF300800123237010BDB4000020F4
:1002440000000000BC2D000808B5054B1BB1054992
:100254000548AFF30080BDE80840FFF7CFBF00BFFB
:1002640000000000B8000020BC2D0008C378F3B1E2
:10027400144BDB68DB43C3F30223C3F1040C0F21EB
:10028400D940427802FA0CF283780B4013431B01E5
:100294000278DBB20C490A4482F80033037803F095
:1002A4001F005B090122824041F823207047037834
:1002B40003F01F015B0901228A402033024941F8FF
:1002C4002320704700ED00E000E100E0042806D0A0
:1002D4004FF0E022136923F00403136170474FF0D9
:1002E400E022136943F004031361704710B4294BEF
:1002F4005B6803F00C03042B2BD0082B2CD013B118
:10030400254B036001E0244B036022494B68C3F38F
:100314000313224CE25CD2B20368D34043604A68C0
:10032400C2F30222A25CD2B223FA02F282604A68C9
:10033400C2F3C222A25CD2B2D340C3604A68C2F301
:10034400813217498A5CD2B2B3FBF2F3036110BC69
:100354007047114B0360D8E70E4A53685268C3F3E1
:100364008343023312F4803F04D10E4A02FB03F3A9
:100374000360CAE7074A526812F4003F04D0094AEE
:1003840002FB03F30360C0E7034A02FB03F30360C9
:10039400BBE700BF0010024000127A0004000020F6
:1003A4000000002000093D0021B1054A9369034380
:1003B40093617047024A936923EA0003936170478B
:1003C4000010024021B1054AD3690343D361704749
:1003D400024AD36923EA0003D36170470010024044
:1003E40030B5CB7803F00F02964613F0100F03D00C
:1003F40091F802E04EEA020E0B78FBB10568002387
:1004040001E042610133072B17D801229A40B1F869
:1004140000C032EA0C0CF5D19C004FF00F0C0CFA22
:1004240004FC25EA0C050EFA04F42543CC78282CA8
:10043400E7D0482CE6D10261E4E705600B88FF2B86
:1004440025D94568002303E0CC78482C1CD001331F
:10045400072B1BD803F1080C012202FA0CF2B1F8A5
:1004640000C032EA0C0CF2D19C004FF00F0C0CFAD5
:1004740004FC25EA0C0C0EFA04F444EA0C05CC78CE
:10048400282CE1D14261DFE70261E0E7456030BD3D
:100494008368194201D00120704700207047016130
:1004A400704741617047000030B587B004460D467F
:1004B400038A9BB2CA8823F440531343038283897B
:1004C4009BB2898828896A8901430A4323F4B0537B
:1004D40023F00C031343A381A38A9BB2AA8923F4B8
:1004E40040731343A38201A8FFF700FF1D4B9C42F6
:1004F40024D0039BA28912F4004F21D103EB830380
:1005040003EB83032A689200B3FBF2F3164AA2FBBF
:10051400031252091101642002FB1033A28912F460
:10052400004F16D11B0132330F4AA2FB0323C3F33E
:1005340043130B439BB2238107B030BD049BD9E71F
:1005440003EB830303EB83032A685200B3FBF2F348
:10055400DCE7DB003233044AA2FB0323C3F3421378
:100564000B43E7E7003801401F85EB5129B183892C
:100574009BB243F400538381704783899BB223F475
:1005840000539BB283817047C1F3421C01F01F01E9
:1005940001238B40BCF1010F08D0BCF1020F07D03E
:1005A40014303AB102681343036070470C30F8E723
:1005B4001030F6E7026822EA030303607047C1F3D0
:1005C4000801818070478088C0F308007047C1F338
:1005D400421201F01F0C012303FA0CF3012A0FD07D
:1005E400022A11D0828A92B21340090A012202FA25
:1005F40001F1028892B20A4053B15AB900207047FF
:10060400828992B21340F0E7028A92B21340ECE777
:100614000020704701207047014B5861704700BFAC
:100624000004014000F07F00014B1860704700BFD8
:10063400002C0040014B00229A607047002C0040BF
:10064400038C9BB223F002030B4303847047808E18
:1006540080B27047028A83890B40114202D01BB9D1
:10066400002070470020704701207047C94389B2B9
:10067400018270472DE9F041028802F441520F884B
:10068400B1F802808E88CD880C89B1F80AE0B1F8FF
:100694000CC0CB8947EA08073E4335432C434EEA56
:1006A400040E4CEA0E0C43EA0C0313430380838BC1
:1006B4009BB223F400639BB283830B8A0382BDE85D
:1006C400F08129B103889BB243F040030380704753
:1006D40003889BB223F040039BB20380704781815F
:1006E4007047808980B270470389194201D0012084
:1006F40070470020704730B44FF0E0235D699C6977
:100704001969586100229A611A6942F001021A615A
:100714004FF0E0231B6903F00113012BF8D04FF0D5
:10072400E0231A6922F001021A6100229A615D61D4
:100734009C61196130BC704708B56FF00400FFF785
:10074400C5FD084B1B68084AA2FB0323C3F34753A8
:10075400064A1370C3EB431203EB8203DA00044B23
:100764001A8008BD1400002083DE1B43D200002041
:10077400D000002008B5034B1B7803FB00F0FFF703
:10078400BAFF08BDD200002008B5034B1B8803FB49
:1007940000F0FFF7B0FF08BDD00000207047FEE76F
:1007A400FEE7FEE7FEE770477047704770470000BA
:1007B40082B00023019300932C4A136843F48033DE
:1007C40013602A4B1B6803F400330093019B01332D
:1007D4000193009B1BB9019BB3F5A06FF1D1234B8F
:1007E4001B6813F4003F06D001230093009B012BE8
:1007F40004D002B0704700230093F7E71C4B1A683B
:1008040042F010021A601A6822F003021A601A6891
:1008140042F002021A60A3F580535A685A605A687B
:100824005A605A6842F480625A605A6822F47C1210
:100834005A605A6842F4E8125A601A6842F08072A8
:100844001A600A4B1B6813F0007FFAD0074B5A68F2
:1008540022F003025A605A6842F002025A60034BC3
:100864005B6803F00C03082BF9D1C2E700100240C7
:100874000020024008B5FFF79BFF08BD08B5104BE8
:100884001A6842F001021A6059680E4A0A405A6016
:100894001A6822F0847222F480321A601A6822F4F0
:1008A40080221A605A6822F4FE025A604FF41F0232
:1008B4009A60FFF7DFFF044B4FF000629A6008BDB7
:1008C400001002400000FFF800ED00E008B501F060
:1008D4002DF9002008BD000070B50E461546002411
:1008E40009E0074B1B8813F0400FFAD0315D044830
:1008F400FFF765FE0134AC42F3DB284670BD00BF50
:100904000038014030B589B01E4B1868002302221C
:100914001946806801F002FB01210420FFF744FD21
:1009240001214FF48040FFF73FFD174C23680793E4
:1009340063680693154D07A92846FFF751FD06A9DC
:100944002846FFF74DFD0DF1080C04F108030FCB09
:100954008CE80F0005F5405561462846FFF7A4FDD5
:1009640001212846FFF702FE012240F225512846C4
:10097400FFF70AFEA369019301A8FFF777FC09B00A
:1009840030BD00BF64000020D42D000800080140E1
:1009940010B540F225510748FFF719FE00B910BD04
:1009A400044C2046FFF70FFE01462046FFF707FEE2
:1009B400F5E700BF0038014008B50A20FFF7E4FE60
:1009C40001210D48FFF764FD012803D00120FFF742
:1009D40023FE08BD094AD2F89431B3FA83F35B09C4
:1009E400C2F8943102F5C032D2F89431B3FA83F3E9
:1009F4005B09C2F89431E9E7000801400080214214
:100A040008B50A20FFF7C0FE08210848FFF740FD9B
:100A140038B9074AD2F89431B3FA83F35B09C2F8C0
:100A240094310820FFF7F8FD08BD00BF001801400D
:100A34000000234208B50A20FFF7A6FE102108484B
:100A4400FFF726FD38B9074AD2F89431B3FA83F395
:100A54005B09C2F894311020FFF7DEFD08BD00BF2A
:100A6400001801400080214208B5034B1878FFF7B5
:100A7400D9FDFFF7DFFD08BD1800002008B50121EE
:100A84000948FFF7E7FD012800D008BD074AD2F85E
:100A94009431B3FA83F35B09C2F89431012102481B
:100AA400FFF7E4FDF1E700BF0004004000802142AD
:100AB40008B5244B1B7823B103212348FFF7D6FD47
:100AC40008BD01212048FFF7C5FD012814D00221EB
:100AD4001D48FFF7BFFD0128EED11C4B1B8813BB3B
:100AE4001B4B00221A60194B02221A80174B1988DB
:100AF4001548FFF7A5FDDFE7144B1B88022BE6D151
:100B0400134B1B68134A934203D80133104A1360F2
:100B1400DDE70C4B01221A7000210C4B19800A48A6
:100B2400FFF78EFDD3E7022BE0D10748FFF78FFDD7
:100B3400094B1880034B01221A70044B00221A80BF
:100B4400D4E700BFD3000020000C0040DC000020EC
:100B5400D80000207F1A0600D4000020F0B587B02A
:100B640001210820FFF720FC01214FF48040FFF70A
:100B740029FC03238DF816304FF42043ADF81430CC
:100B840018238DF81730224C05A92046FFF728FCBE
:100B94004FF48043ADF8143048238DF8173005A97D
:100BA4002046FFF71DFC4FF48057ADF81470102356
:100BB4008DF8173005A92046FFF712FC0126ADF881
:100BC40008600223ADF806300723ADF81030002387
:100BD400ADF80430ADF80C30ADF80030ADF80E309F
:100BE4004FF48273ADF802304FF40073ADF80A305D
:100BF400084D69462846FFF73DFD39462046FFF774
:100C04004EFC31462846FFF75CFD07B0F0BD00BF3F
:100C1400000C01400038004070B505460E46C8245B
:100C240002211948FFF760FD70B9631E9BB20CB135
:100C34001C46F5E7154B1868154B6B221549C0681F
:100C440001F0CCF801201DE031460F48FFF747FDC5
:100C5400C82401210C48FFF747FD70B9631E9BB2FD
:100C64000CB11C46F5E7094B1868094B6D2209497C
:100C7400C06801F0B3F8012004E00348FFF731FD38
:100C84002870002070BD00BF0038004064000020C0
:100C9400B82F0008F02D000810B584B00146FF23DA
:100CA4008DF80F300DF10F00FFF7B6FF044610B9B1
:100CB400204604B010BD074B1B68D86804EB8402BF
:100CC400054B00937623054901EB8202044901F0A8
:100CD40085F8EDE764000020A42F00081C00002024
:100CE400182E000810B582B0FF21FFF795FF0446C7
:100CF40010B9204602B010BD074B1B68D86804EB3E
:100D04008402064B00937E23054901EB82020549C8
:100D140001F064F8EDE700BF640000208C2F0008A8
:100D24001C000020182E000810B584B04FF4805128
:100D34003A48FFF7B6FBAB20FFF7AEFF00BBFF203E
:100D4400FFF7AAFF044668BBFF20FFF7A5FF044690
:100D5400002836D1FF20FFF79FFF044600283FD12B
:100D6400FF238DF80F300DF10F00FFF7BBFF044692
:100D7400002844D14FF480512848FFF790FB0EE03F
:100D84000446274B1B68D86804EB8402254B009368
:100D94008723254901EB8202244901F01FF82046EC
:100DA40004B010BD1E4B1B68D86804EB84021D4BB5
:100DB400009388231C4901EB82021C4901F00EF8C0
:100DC400EDE7174B1B68D86804EB8402154B0093BE
:100DD4008923154901EB8202144900F0FFFFDEE785
:100DE4000F4B1B68D86804EB84020E4B00938A23D4
:100DF4000D4901EB82020D4900F0F0FFCFE7084BEB
:100E04001B68D86804EB8402064B00938C230649C4
:100E140001EB8202054900F0E1FFC0E7000C01404C
:100E240064000020782F00081C000020182E000801
:100E340010B584B04FF480513C48FFF732FB9F203B
:100E4400FFF72AFF48BB03A8FFF74CFF044600281E
:100E54003AD10DF10D00FFF745FF0446002842D1B9
:100E64000DF10E00FFF73EFF044600284AD14FF46F
:100E740080512E48FFF713FB9DF80C309DF80D10A0
:100E8400090241EA03419DF80E301943284B994267
:100E940047D0284800F0D2FF0EE00446264B1B68DA
:100EA400D86804EB8402254B00939623244901EB74
:100EB4008202244900F092FF4FF480511B48FFF74F
:100EC400EEFA204604B010BD1B4B1B68D86804EB37
:100ED40084021A4B00939823194901EB82021949A1
:100EE40000F07CFFE8E7144B1B68D86804EB84022D
:100EF400124B00939923124901EB8202114900F02D
:100F04006DFFD9E70C4B1B68D86804EB84020B4BCC
:100F140000939A230A4901EB82020A4900F05EFF1A
:100F2400CAE7094800F0F2FFC6E700BF000C014021
:100F340018215200542E000864000020602F00087D
:100F44001C000020182E00083C2E000810B582B0AA
:100F54004FF480510F48FFF7A4FA0620FFF79CFED8
:100F6400044638B94FF480510A48FFF798FA2046EE
:100F740002B010BD084B1B68D86804EB8402074B11
:100F84000093AB23064901EB8202064900F026FFD9
:100F9400E8E700BF000C014064000020482F00086F
:100FA4001C000020182E000810B582B04FF48051A8
:100FB4000F48FFF776FA0420FFF76EFE044638B9AF
:100FC4004FF480510A48FFF76AFA204602B010BD78
:100FD400084B1B68D86804EB8402074B0093B523C5
:100FE400064901EB8202064900F0F8FEE8E700BF7B
:100FF400000C014064000020302F00081C00002079
:10100400182E000830B583B004464FF480511948B7
:10101400FFF747FA0520FFF73FFE60B92046FFF7C8
:1010240061FE0546B8B94FF480511248FFF737FA0C
:10103400284603B030BD05460F4B1B68D86805EB46
:1010440085020E4B0093BF230D4901EB82020D492B
:1010540000F0C4FEE7E7084B1B68D86805EB85027F
:10106400064B0093C023064901EB8202054900F0B8
:10107400B5FED8E7000C0140640000201C2F0008D6
:101084001C000020182E000800B583B002E00520E3
:10109400FFF770FB0DF10700FFF7B4FF9DF8073071
:1010A40013F0010FF3D1002003B05DF804FB00003E
:1010B40030B583B0B0F1006F48D2054642F21070EB
:1010C400FFF7E2FF044600284CD1FFF73FFF044638
:1010D40000285DD14FF480515A48FFF7E2F92020EF
:1010E400FFF7DAFD0446002861D1C5F30740FFF796
:1010F400D3FD0446002869D1C5F30720FFF7CCFDD2
:101104000446002871D1E8B2FFF7C6FD0446002862
:101114007AD14FF480514B48FFF7C1F9FFF7B4FF80
:10112400044600287FD1FFF73FFF044640B3464BF7
:101134001B68D86804EB8402444B0093E1234449C0
:1011440001EB8202434900F049FE19E03E4B1B6863
:10115400D8683E4B0093D5233F4A3E4900F03EFEFB
:1011640002240DE0384B1B68D86804EB8402374B2B
:101174000093D823364901EB8202364900F02EFE53
:101184004FF480512F48FFF78AF9204603B030BD51
:101194002D4B1B68D86804EB84022C4B0093D92395
:1011A4002B4901EB82022B4900F018FEE8E7264B9D
:1011B4001B68D86804EB8402244B0093DB23244986
:1011C40001EB8202234900F009FED9E71E4B1B689C
:1011D400D86804EB84021D4B0093DC231C4901EB0B
:1011E40082021C4900F0FAFDCAE7174B1B68D86855
:1011F40004EB8402154B0093DD23154901EB8202B5
:10120400144900F0EBFDBBE70F4B1B68D86804EBF7
:1012140084020E4B0093DE230D4901EB82020D493B
:1012240000F0DCFDACE7084B1B68D86804EB8402D3
:10123400064B0093E023064901EB8202054900F0C6
:10124400CDFD9DE7000C014064000020042F000840
:101254001C000020182E000844000020F0B583B0C4
:101264008B18013BB3F1006F38D207460E46154682
:10127400FFF70AFF044600283CD14FF4805162482E
:10128400FFF70FF90B20FFF707FD0446002847D1AD
:10129400C6F30740FFF700FD044600284FD1C6F30C
:1012A4000720FFF7F9FC0446002857D1F0B2FFF7F6
:1012B400F3FC0446002860D1FF20FFF7EDFC044650
:1012C400002869D10026AE4280F08480B819FFF767
:1012D40009FD044600286ED10136F4E74B4B1B6828
:1012E400D8684B4B0093EB234A4A4B4900F076FDF8
:1012F40002240DE0454B1B68D86804EB8402444B80
:101304000093EE23454901EB8202434900F066FD58
:101314004FF480513C48FFF7C2F8204603B0F0BDBB
:101324003A4B1B68D86804EB8402394B0093F023D2
:101334003A4901EB8202384900F050FDE8E7334BAB
:101344001B68D86804EB8402314B0093F1233349C2
:1013540001EB8202304900F041FDD9E72B4B1B68B9
:10136400D86804EB84022A4B0093F2232B4901EB47
:101374008202294900F032FDCAE7244B1B68D86871
:1013840004EB8402224B0093F323244901EB8202F1
:10139400214900F023FDBBE71C4B1B68D86804EB14
:1013A40084021B4B0093F4231C4901EB82021A496B
:1013B40000F014FDACE7154B1B68D86804EB8402FD
:1013C400134B0093F723154901EB8202124900F0F5
:1013D40005FD9DE74FF480510B48FFF760F8FFF7D8
:1013E40053FE0446002893D0084B1B68D86804EBCE
:1013F4008402074B0093FA23084901EB8202064951
:1014040000F0ECFC84E700BF000C01406400002005
:10141400F42E000844000020182E00081C000020B0
:10142400F0B585B08B18013BB3F1006F40D207468D
:101434000E46154601230370FFF726FE04460028D6
:1014440043D14FF480516A48FFF72BF80B20FFF784
:1014540023FC044600284FD1C6F30740FFF71CFCC9
:101464000446002858D1C6F30720FFF715FC0446AC
:10147400002861D1F0B2FFF70FFC044600286BD1BD
:10148400FF20FFF709FC0446002875D10026AE4270
:1014940080F094800DF10F00FFF724FC044600282F
:1014A4007AD19DF80F30FF2B40F086800136EEE7AD
:1014B400504B1B68D868504B00934FF482734F4ACB
:1014C4004F4900F08BFC02240EE04A4B1B68D8689D
:1014D40004EB8402484B00934FF48473494901EBB5
:1014E4008202474900F07AFC4FF480514048FEF7ED
:1014F400D6FF204605B0F0BD3E4B1B68D86804EB10
:1015040084023D4B00934FF485733E4901EB820204
:101514003B4900F063FCE7E7364B1B68D86804EBF3
:101524008402354B009340F20B13364901EB8202DF
:10153400334900F053FCD7E72E4B1B68D86804EB03
:1015440084022D4B00934FF486732E4901EB8202E3
:101554002B4900F043FCC7E7264B1B68D86804EB13
:101564008402254B009340F20D13264901EB8202BD
:10157400234900F033FCB7E71E4B1B68D86804EB23
:1015840084021D4B00934FF487731E4901EB8202C2
:101594001B4900F023FCA7E7164B1B68D86804EB33
:1015A4008402154B00934FF48973164901EB8202B0
:1015B400134900F013FC97E700233B704FF480516C
:1015C4000B48FEF76CFFFFF75FFD044600288BD045
:1015D400084B1B68D86804EB8402074B009340F265
:1015E4001913084901EB8202054900F0F7FB7BE778
:1015F400000C014064000020E02E0008440000209C
:10160400182E00081C0000202DE9F04385B0431873
:10161400013BB3F1006F1BD204460E46C0F30B0529
:10162400C5F580558D4228BF0D462A4601460DF169
:101634000F00FFF7F5FE8046C0B99DF80F302BB3BD
:101644002C44761B06F6FF794FEA193900274EE041
:101654003C4B1B68D8683C4B009340F223133B4A35
:101664003B4900F0BBFB4FF0020834E0354B1B68EC
:10167400D86808EB8802344B009340F229133549AB
:1016840001EB8202324900F0A9FB24E02046FFF777
:101694000FFD80460028D3D02A4B1B68D86808EB7E
:1016A4008802294B009340F22B132A4901EB820252
:1016B400274900F093FB0EE0224B1B68D86808EB27
:1016C4008802214B00934FF49973224901EB820263
:1016D4001F4900F083FB4FF480511F48FEF7DFFEE3
:1016E400404605B0BDE8F0832C44761B01374F45D6
:1016F400F1D23546B6F5805F28BF4FF480552A46AF
:1017040021460DF10F00FFF78BFE80460028D3D150
:101714009DF80F30002BE7D12046FFF7C9FC804627
:101724000028E1D0074B1B68D86808EB8802064BF9
:1017340000934FF49A73074901EB8202044900F0C5
:101744004DFBC8E764000020C82E000844000020B8
:10175400182E00081C000020000C01402DE9F04F59
:1017640083B08B18013BB3F1006F4BD207468A4616
:10177400164611465046FFF747FF044600284ED14F
:10178400FFF7E4FB0446002861D15FFA8AF8C8F544
:101794008078B04528BFB046FFF776FC04460028A1
:1017A40065D14FF48051AD48FEF77BFE0220FFF770
:1017B40073FA044600286AD1CAF30740FFF76CFAAB
:1017C4000446002873D1CAF30720FFF765FA0446DC
:1017D40000287CD15FFA8AF0FFF75EFA04460028FD
:1017E40040F085804FF00009C14580F0A08017F8D3
:1017F4000900FFF751FA0446002840F0888009F1F7
:101804000109F1E7964B1B68D868964B009340F2A8
:101814004113954A954900F0E1FA02240EE0904BF9
:101824001B68D86804EB84028E4B00934FF4A273B8
:101834008F4901EB82028D4900F0D0FA4FF48051B8
:101844008648FEF72CFE204603B0BDE8F08F844B9B
:101854001B68D86804EB8402824B009340F2471360
:10186400834901EB8202814900F0B8FAE6E77C4B38
:101874001B68D86804EB84027A4B00934FF4A67378
:101884007B4901EB8202794900F0A8FAD6E7744B50
:101894001B68D86804EB8402724B00934FF4A7735F
:1018A400734901EB8202714900F098FAC6E76C4B68
:1018B4001B68D86804EB84026A4B009340F24F1310
:1018C4006B4901EB8202694900F088FAB6E7644B80
:1018D4001B68D86804EB8402624B00934FF4A8732E
:1018E400634901EB8202614900F078FAA6E75C4B98
:1018F4001B68D86804EB84025A4B009340F25113DE
:101904005B4901EB8202594900F068FA96E7544BAF
:101914001B68D86804EB8402524B009340F25313C3
:10192400534901EB8202514900F058FA86E74FF41B
:1019340080514A48FEF7B3FDFFF7A6FB0446002892
:1019440040D1A6EB0806C24406F1FF0B4FEA1B2B5D
:1019540000255D4580F0B780FFF796FB044600281C
:1019640040D14FF480513D48FEF79BFD0220FFF724
:1019740093F90446002844D1CAF30740FFF78CF9D1
:10198400044600284CD1CAF30720FFF785F9044622
:10199400002854D15FFA8AF0FFF77EF981460028C7
:1019A40068D109EB05239E4240F284804344F85CED
:1019B400FFF772F9044600286CD109F101095FFAB6
:1019C40089F9EEE7264B1B68D86804EB8402254BA3
:1019D40000934FF4AB73264901EB8202234900F0D4
:1019E400FDF92BE71E4B1B68D8681E4B00934FF480
:1019F400AF7314211E4A01FB04221C4900F0EEF9C6
:101A04001CE7174B1B68D868164B00934FF4B07350
:101A14001421174A01FB0422144900F0DFF90DE7F1
:101A24000F4B1B68D8680F4B009340F261131421CD
:101A34000F4A01FB04220D4900F0D0F9FEE6084BE1
:101A44001B68D868074B00934FF4B1731421084AFC
:101A540001FB0422054900F0C1F9EFE6000C014046
:101A640064000020B82E000844000020182E00084E
:101A74001C000020284B1B68D868284B009340F2B8
:101A840063131421264A01FB0922264900F0A6F912
:101A94004C46D3E6204B1B68D86804EB84021F4BEA
:101AA40000934FF4B4731E4901EB82021D4900F008
:101AB40095F9C3E60AF5807A4FF480511A48FEF787
:101AC400EEFC013545E7FFF7DFFA0446A0B9FFF75E
:101AD4006BFA044600283FF4B1AE0F4B1B68D8687C
:101AE4000E4B00934FF4B87314210D4A01FB0422EA
:101AF4000C4900F073F9A1E6074B1B68D868074B43
:101B0400009340F26D131421054A01FB0422054998
:101B140000F064F992E600BF64000020B82E0008CB
:101B24001C000020182E0008000C014000B5B5B0C0
:101B3400FEF702FEFEF7E6FEFFF710F8FFF7F4F8F3
:101B440000282FD1FFF774F9024600283DD13F4801
:101B5400FFF7AEFA0246002847D13D4800F0D6F917
:101B64003C4A1BAB1068516803C312891A805A227D
:101B740000210DF1760000F05DFB642233491BA8BF
:101B8400FFF7ECFD024600283FD164222F4902A84A
:101B9400FFF764FB0246002847D102A92E4800F053
:101BA4004DF90FE002462D4B1B68D86802EB820208
:101BB4002B4B009340F281132A4901EB82022A49FC
:101BC40000F00CF935B05DF804FB244B1B68D868B1
:101BD40002EB8202224B00934FF4C273214901EBC2
:101BE4008202214900F0FAF8ECE71C4B1B68D86824
:101BF40002EB82021A4B00934FF4C473194901EBB0
:101C04008202194900F0EAF8DCE7144B1B68D86833
:101C140002EB8202124B009340F28D13114901EB47
:101C24008202114900F0DAF8CCE70C4B1B68D86843
:101C340002EB82020A4B009340F29113094901EB33
:101C44008202094900F0CAF8BCE700BF9CFFFF0705
:101C5400742E00089C2E00088C2E000864000020BE
:101C6400A82E00081C000020182E00080C480D495E
:101C74000D4A002302E0D458C4500433C4188C42E3
:101C8400F9D30A4A0A4C002301E013600432A24249
:101C9400FBD3FEF7F3FD00F01BFBFEF717FE7047C6
:101CA40000000020B400002008300008B400002028
:101CB40030020020FEE70000002310B50446C0E90E
:101CC4000033C0E90433836081814366C281836148
:101CD400194608225C3000F0ADFA054B24626362B9
:101CE400044BA362044BE362044B236310BD00BFA7
:101CF40089200008AB200008E32000080721000821
:101D0400024A0349034800F07BB800BF5800002092
:101D1400BD2B00086800002041680C4B10B59942A7
:101D2400044601D000F048FFA168094B994202D053
:101D3400204600F041FFE168064B994204D020465A
:101D4400BDE8104000F038BF10BD00BFE000002027
:101D540048010020B001002010B50B4B0B4C0C4A7D
:101D640020461A6004210022FFF7A6FF04F1680050
:101D740001220921FFF7A0FF04F1D0000222BDE8EF
:101D840010401221FFF798BF18020020E000002045
:101D9400051D0008014800F0BFBA00BF2102002061
:101DA400014800F0BABA00BF2102002010B5044671
:101DB400FFF7F0FF236A1BB1BDE81040FFF7F0BF47
:101DC400044B2362044B1B68002BF5D1FFF7C4FFBF
:101DD400F2E700BF1D1D0008180200200EB403B571
:101DE400014603AB054853F8042B0068019300F047
:101DF400ABFB02B05DF804EB03B070476400002055
:101E04002DE9F8430746884614460026D4E901958F
:101E1400B9F1010905D52468002CF7D13046BDE895
:101E2400F883AB89012B07D9B5F90E30013303D000
:101E340029463846C04706436835E9E70FB407B575
:101E4400064904AB086853F8042B8168019300F039
:101E54007BFB03B05DF804EB04B070476400002022
:101E6400036A70B505460E4684680BB9FFF79EFFFA
:101E7400636EDB0705D4A389980502D4A06D00F036
:101E84004BFAA389190702D52369002B35D12146C2
:101E9400284600F079F980B34FF0FF35636EDA0716
:101EA40005D4A3899B0502D4A06D00F036FA284618
:101EB40070BD002B15DB23685A1C22601970A368BF
:101EC40016F8011F013BA3600029F2D1002B16DA9A
:101ED40022460A21284600F018F90130DCD00A25F0
:101EE400DCE7A2699A4201DC0A29E4D122462846A9
:101EF40000F00BF90130E2D1CEE7013EDFE72368C1
:101F04005A1C22600A221A70E9E70000024B0146BB
:101F14001868FFF7A5BF00BF640000202DE9F74350
:101F24001D46574B04461F680E46904627B13B6A30
:101F340013B93846FFF73AFFB8F1020F06D0B8F1EB
:101F4400010F00F29A80002DC0F29780636ED907CA
:101F540005D4A3899A0502D4A06D00F0DDF92146C9
:101F6400384600F029FE616B41B104F14403994203
:101F740002D0384600F0D2F9002363630023A36142
:101F84006360A3891B0603D53846216900F0C6F9AE
:101F9400A389B8F1020F23F44A6323F00303A38156
:101FA40061D001AB6A462146384600F02DFEA38974
:101FB4001843A0812DBB009D284600F0F7F9064682
:101FC400002852D1DDF80090A94540D14FF0FF35EB
:101FD400B4F90C3043F00202A2810022A26004F1A1
:101FE40047022260226101226261626ED60704D434
:101FF400980502D4A06D00F090F9284603B0BDE81E
:10200400F083002ED8D03B6A13B93846FFF7CEFED2
:10201400B8F1010F08BFA389C4E9046504BF43F004
:102024000103A381B4F90C30266013F008021ED01A
:10203400D90741BF00226D42A260A56158BFA560C7
:10204400626ED20701D49B0513D50025D5E7484617
:1020540000F0ACF906460028B8D0A3894D4643F0F9
:102064008003A381CFE70025B2E7A946F5E7A26084
:10207400E6E7A06D00F051F9E7E74FF0FF35BCE764
:102084006400002010B50C46B1F90E1000F0FCF805
:102094000028ABBF636DA3891B1823F48053ACBF26
:1020A4006365A38110BD2DE9F0411F468B89054668
:1020B400DB050C46164605D502230022B1F90E10A5
:1020C40000F0D0F8A389324623F48053A381284634
:1020D4003B46B4F90E10BDE8F04100F0E7B810B586
:1020E4000C46B1F90E1000F0BDF8431CA38915BFCE
:1020F400606523F4805343F48053A38118BFA38104
:1021040010BDB1F90E1000F09DB8F8B50E46144696
:10211400054618B1036A0BB9FFF748FEA369A3602B
:10212400A3891A0701D5236943B92146284600F03B
:102134002BF818B14FF0FF373846F8BD23682269F1
:10214400F6B2981A63693746834205DC214628466D
:1021540000F032FD0028EDD1A368013BA3602368A1
:102164005A1C22601E706269431C9A4204D0A389DF
:10217400DB07E1D50A2EDFD12146284600F01CFDFD
:102184000028D9D0D6E7000038B5294B0546186891
:102194000C4618B1036A0BB9FFF708FEB4F90C300A
:1021A400190722D4DA0607D409222A6043F040032F
:1021B4004FF0FF30A38133E0580712D5616B41B172
:1021C40004F14403994202D0284600F0A7F8002302
:1021D4006363A38923F02403A38100236360236939
:1021E4002360A38943F00803A38123694BB9A3891E
:1021F40003F42073B3F5007F03D02146284600F092
:1022040028FDB4F90C3013F001020AD00022A260B8
:1022140062695242A261226942B913F08000C5D1B9
:1022240038BD990758BF6269A260F4E70020F7E758
:102234006400002003460244934200D1704703F82F
:10224400011BF9E738B50023054D044608462B6009
:1022540000F07CFD431C02D12B6803B1236038BD20
:102264001C02002038B50446084611460022054DDC
:102274002A601A4600F082FD431C02D12B6803B188
:10228400236038BD1C02002038B5044608461146B8
:102294000022054D2A601A4600F078FD431C02D145
:1022A4002B6803B1236038BD1C02002038B50446F6
:1022B400084611460022054D2A601A46FEF70CFB1B
:1022C400431C02D12B6803B1236038BD1C020020DB
:1022D40070B500260C4D0D4C641BA410A64209D108
:1022E40000F06AFD00260A4D0A4C641BA410A642A5
:1022F40005D170BD55F8043B98470136EEE755F813
:10230400043B98470136F2E700300008003000082B
:1023140000300008043000087047704738B505469F
:10232400002940D051F8043C0C1F002BB8BFE4181E
:1023340000F0D6F81C4A136833B963601460284669
:10234400BDE8384000F0D2B8A34208D9206821186B
:102354008B4201BF19685B6809182160EDE71A46D2
:102364005B680BB1A342FAD911685018A0420BD193
:1023740020680144501883421160E0D118685B68FA
:10238400084410605360DAE702D90C232B60D6E7C7
:10239400206821188B4201BF19685B680918216005
:1023A40063605460CBE738BD28020020024B01462D
:1023B400186800F025B800BF6400002070B50F4E07
:1023C4000C463168054611B900F0A2FC3060214684
:1023D400284600F09DFC431C03D14FF0FF342046F7
:1023E40070BDC41C24F00304A042F8D0211A28466E
:1023F40000F08EFC0130F2D1EFE700BF2402002090
:10240400F8B5CD1C25F0030508350C2D38BF0C2577
:10241400002D064601DBA94203D90C2333600020BA
:10242400F8BD2E4F00F05CF83B681C4634BB2946CF
:102434003046FFF7C3FF431C04464DD13C68214698
:10244400002940D1002C41D023683046E71800F021
:102454005FFC87423AD123680335ED1A25F0030562
:1024640008350C2D38BF0C2530462946FFF7A6FF4A
:1024740001302BD023682B4423600EE02268521BCA
:102484001ED40B2A16D96119A342256018BF5960BE
:10249400636808BF396062514B60304600F026F82B
:1024A40004F10B00231D20F00700C21A1CBF1B1AE5
:1024B400A350B5E76268A3420CBF3A605A60ECE7E8
:1024C40023466468B2E70C464968B9E70C233046F2
:1024D400336000F00BF8A2E70560DEE72802002075
:1024E4000148FFF719BF00BF200200200148FFF791
:1024F40014BF00BF20020020936810B4013B002BDE
:10250400936007DA9469A34201DB0A2902D110BC63
:10251400FFF7FBBD1368581C10601970084610BC07
:102524007047F8B506460F461446D518AC4201D19B
:10253400002007E03A46304614F8011BFFF7DCFFA1
:10254400431CF3D1F8BD00002DE9F04F0D461446AD
:10255400984606469DB018B1036A0BB9FFF726FCEE
:102564006B6ED90705D4AB899A0502D4A86DFFF721
:10257400D3FEAB891B0701D52B699BB9294630468D
:10258400FFF702FE70B16B6EDC0704D54FF0FF302D
:102594001DB0BDE8F08FAB899805F7D4A86DFFF79F
:1025A400BCFEF3E70023099320238DF82930302360
:1025B4004FF00109CDF80C80DFF8A8818DF82A309E
:1025C40023469A4613F8012B0AB1252AF9D1BAEB0E
:1025D400040B0BD05B46224629463046FFF7A1FF89
:1025E400013000F0A780099A5A4409929AF8003001
:1025F400002B00F09F8000234FF0FF32CDE905232C
:102604000AF1010A049307938DF853301A93544640
:10261400052214F8011B534800F08AFB049AD8B928
:10262400D10644BF20238DF85330130744BF2B2316
:102634008DF853309AF800302A2B15D054460020D8
:102644004FF00A0C079A214611F8013B303B092B45
:102654004BD9B0B1079214E0A0EB080309FA03F3D5
:102664001343A2460493D2E7039B191D1B680391ED
:10267400002BBBBF5B4242F0020207930793B8BF33
:10268400049223782E2B0AD163782A2B32D1039B10
:1026940002341A1D1B68039243EAE3730593DFF8BF
:1026A400C8A003225046217800F042FB38B14022F2
:1026B400049BA0EB0A00824013430134049314F8F2
:1026C400011B062229488DF8281000F031FB002850
:1026D4003FD0274B1BBB039B073323F0070308336F
:1026E4000393099B3B4409936AE70C4601200CFBC6
:1026F4000232A8E700234FF00A0C1946013405936F
:10270400204610F8012B303A092A03D9002BC6D0F1
:102714000591C4E7044601230CFB0121F0E703AB58
:1027240000932A463046134B04A9AFF300800746B2
:10273400781CD6D16B6ED90705D4AB899A0502D41F
:10274400A86DFFF7EAFDAB895B063FF51FAF09985B
:102754001EE703AB00932A463046064B04A900F05B
:102764007DF8E4E7CD2F0008D32F0008D72F000809
:1027740000000000272500082DE9F047164698467A
:102784008A680B6907469342B8BF1346336091F8D1
:1027940043200C46DDF820900AB1013333602368EE
:1027A400990642BF336802333360256815F0060585
:1027B40006D104F1190AE36832689B1AAB422BDC98
:1027C40094F843302268003B18BF0123920630D4AA
:1027D4004146384604F14302C847013023D02368F8
:1027E400226903F00603042B14BF002533684FF05D
:1027F400000608BFE56804F11A0408BFED1A54F88E
:10280400123C08BF25EAE5759342C4BF9B1AED1834
:10281400B5421AD1002008E0012352464146384609
:10282400C847013003D14FF0FF30BDE8F0870135D0
:10283400C1E73020E11881F843005A1C94F8451090
:102844002244023382F84310C2E701232246414660
:102854003846C8470130E6D00136D9E72DE9FF47AD
:102864000F7E9146782F80460C469A460C9D01F1C6
:10287400430207D8622F0AD8002F00F0E080582FB7
:1028840000F0BB8004F1420684F842703AE0A7F1FC
:102894006303152BF6D801A151F823F0F928000899
:1028A4000D290008892800088928000889280008BB
:1028B400892800080D2900088928000889280008AB
:1028C4008928000889280008292A00089D29000869
:1028D400DF29000889280008892800084B2A0008F5
:1028E400892800089D2900088928000889280008EB
:1028F400E72900082B6804F142061A1D1B682A60A8
:1029040084F842300123ABE0236829681F0601F1F3
:102914000400286001D50D6803E05E06FBD5B1F91B
:102924000050002D61687ADA2D20002984F84300D4
:10293400A1602DDA0A235E486D421646B5FBF3F119
:1029440003FB1157C75D06F8017D2F46BB420D46B8
:10295400F4D9082B0BD12368DF0708D523696168F4
:102964009942DEBF302306F8013C06F1FF36921B84
:1029740022614B4621464046CDF800A003AAFFF74A
:10298400FBFE013071D14FF0FF3004B0BDE8F08799
:1029940023F004032360CDE72B682068191D296008
:1029A400050601D51D6802E04106FBD51D886F2F81
:1029B40014BF0A2308233E48002184F843106668A4
:1029C400002EA660B9DB216821F004012160002DEE
:1029D400B3D1002EB1D11646BBE7236843F02003E0
:1029E40023607827334884F84570296823680E1DCE
:1029F4002E601E0603D50D6804E02D48F3E75D063E
:102A0400F9D50D88D90744BF43F0200323600DB1E5
:102A14001023D1E7236823F020032360F8E70A2377
:102A24002348CCE72B682668181D616928603506A1
:102A34001B6801D5196002E07006FBD519800023DC
:102A44001646236195E72B6800211A1D2A601E682B
:102A54006268304600F06CF908B1801B60606368FE
:102A64002361002384F8433083E7324649464046D5
:102A74002369D047013086D023689B0714D4E068CB
:102A8400039B9842B8BF18467FE701233246494664
:102A94004046D04701303FF476AF0135E3680399EF
:102AA4005B1AAB42F1DCEAE7002504F11906F5E70D
:102AB400DE2F0008EF2F0008B1F90C20F8B5170736
:102AC40005460C4656D44B68002B02DC0B6C002BDD
:102AD4003DDDE66A002E3AD0002312F480522F68BE
:102AE400216A2B6025D0626DA389580705D56368D8
:102AF400D21A636B0BB1236CD21A216A00232846C5
:102B0400E66AB047411C24D0002363602369236034
:102B1400A389DA0400D56065616B2F60B9B104F153
:102B24004403994202D02846FFF7F8FB002363636D
:102B34000DE001232846B047461C0246D4D12B6839
:102B4400002BD1D01D2B01D0162B2AD12F600020B1
:102B54002EE02A68B4F90C3042B11D2A01D0162A9D
:102B640021D10023636023692360D5E76260226971
:102B74002260CEE70F69002FE9D0930718BF002326
:102B84000E6808BF4B69F61B0F608B60002EDEDDFC
:102B940033463A462846216AD4F828C0E04700283C
:102BA40007DCB4F90C304FF0FF3043F04003A3814D
:102BB400F8BD0744361AE9E738B50B6905460C46F3
:102BC40013B90025284638BD18B1036A0BB9FFF7BD
:102BD400EDF8B4F90C30002BF3D0626ED00704D4B6
:102BE400990502D4A06DFFF797FB28462146FFF70D
:102BF40063FF636E0546DA07E4D4A3899B05E1D439
:102C0400A06DFFF78AFBDDE770B50C46B1F90E1035
:102C1400154600291E4696B00CDAA389002113F04C
:102C2400800F14BF40234FF48063002031602B6079
:102C340016B070BD6A4600F049F80028EDDB019932
:102C440001F47041A1F50053594259414FF4806396
:102C5400EBE78B89F7B59D0706460C4607D504F1CB
:102C64004703236023610123636103B0F0BD6A4617
:102C740001ABFFF7C9FF009F054639463046FFF711
:102C8400BFFB48B9B4F90C309A05EED423F0030322
:102C940043F00203A381E2E7A389C4E9040743F0F4
:102CA4008003A381019B20605BB13046B4F90E1010
:102CB40000F01EF828B1A38923F0030343F00103B5
:102CC400A381A3891D43A581CFE7000038B5002364
:102CD400064D0446084611462B6000F03FF8431C9D
:102CE40002D12B6803B1236038BD00BF1C02002051
:102CF40038B50023054D044608462B6000F036F82D
:102D0400431C02D12B6803B1236038BD1C02002090
:102D140038B50023054D044608462B6000F03EF804
:102D2400431C02D12B6803B1236038BD1C02002070
:102D3400034610B5C9B202449342184601D100209B
:102D440003E0047801338C42F6D110BD5822024BC3
:102D54004FF0FF301A6070471C0200205822024BCB
:102D64004FF0FF301A6070471C0200205822024BBB
:102D740000201A60704700BF1C0200205822024B3A
:102D84004FF0FF301A6070471C0200205822024B9B
:102D94004FF0FF301A6070471C020020044A0549B6
:102DA4001368002B08BF0B46184410601846704780
:102DB4002C02002030020020F8B500BFF8BC08BC8B
:102DC4009E467047F8B500BFF8BC08BC9E467047E5
:102DD400000201180004010400C201000000000008
:102DE40000000C0000000000250F0001466C616724
:102DF400206572726F722C206C696E653A202564AE
:102E04002C2066756E6374696F6E3A2025730D0A03
:102E1400000000004572726F722025732C206C69CB
:102E24006E653A2025642C2066756E6374696F6E36
:102E34003A2025730D0A00004A454445432076652F
:102E4400726966792073756363657373210D00007D
:102E54004A4544454320766572696679206661690E
:102E64006C65643A2069643D2523780D0A000000EE
:102E7400457261736520736563746F722073756343
:102E840063657373210D00005265616420446174AD
:102E9400613A2025730D0A00417661204469616E10
:102EA40061000000466C6173685F45585F52756E3F
:102EB40000000000466C6173685F45585F57726993
:102EC40074650000466C6173685F45585F457261C4
:102ED40073655F4E6F6E456D70747900466C6173F7
:102EE400685F45585F49735F456D707479000000F1
:102EF400466C6173685F45585F5265616400000009
:102F0400466C6173685F45585F45726173655F53D2
:102F14006563746F72000000466C6173685F4558A6
:102F24005F526561645F535200000000466C617338
:102F3400685F45585F57726974655F44697361627D
:102F44006C650000466C6173685F45585F57726931
:102F540074655F456E61626C65000000466C617368
:102F6400685F45585F436865636B5F4A4544454302
:102F74005F494400466C6173685F45585F57616BF5
:102F8400655F557000000000466C6173685F4558CA
:102F94005F526563696576655F4279746500000018
:102FA400466C6173685F45585F53656E645F427930
:102FB400746500005F5F466C6173685F45585F42EB
:102FC4007974655F496D706C00232D302B20006887
:102FD4006C4C006566674546470030313233343502
:102FE4003637383941424344454600303132333470
:0C2FF40035363738396162636465660069
:043000004D02000875
:043004002502000899
:103008000204060800000000010203040102030490
:103018000607080900A24A047F000000737563636D
:10302800657373000000000000000000000000004D
:1030380074696D65206F7574000000000000000061
:10304800000000006F7574206F6620626F756E64F3
:1030580073000000000000000000000003000000F2
:10306800E00000206800002000000000E0000020D0
:1030780048010020B001002000000000000000000E
:103088000000000000000000000000000000000038
:103098000000000000000000000000000000000028
:1030A8000000000000000000000000000000000018
:0430B8000000000014
:0400000508001C7162
:00000001FF
