:020000040800F2
:10000000000001204D570008D1300008D33000080F
:10001000D5300008D7300008D930000800000000B3
:10002000000000000000000000000000DB300008BD
:10003000DD30000800000000DF300008E13000087B
:100040009D330008955700089557000895570008FC
:100050009557000895570008ED320008955700089D
:100060009557000835330008693300089557000894
:1000700095570008955700089557000895570008B0
:1000800095570008955700089557000895570008A0
:100090009557000895570008955700089557000890
:1000A0009557000895570008955700089557000880
:1000B00095570008B1330008955700089557000878
:1000C0009557000895570008955700089557000860
:1000D00095570008C5320008955700089557000845
:1000E0009557000895570008955700089557000840
:1000F0009557000895570008955700089557000830
:1001000095570008BD540008E533000895570008CE
:10011000955700089557000895570008955700080F
:1001200095570008955700089557000895570008FF
:1001300000000000000000000000000000000000BF
:1001400000000000000000000000000000000000AF
:10015000000000000000000000000000000000009F
:10016000000000000000000000000000000000008F
:10017000000000000000000000000000000000007F
:10018000000000000000000000000000000000006F
:10019000000000000000000000000000000000005F
:1001A000000000000000000000000000000000004F
:1001B000000000000000000000000000000000003F
:1001C000000000000000000000000000000000002F
:1001D000000000000000000000000000000000001F
:0401E0005FF8E0F1F3
:1001E40053B94AB9002908BF00281CBF4FF0FF319A
:1001F4004FF0FF3000F00CB8ADF1080C6DE904CEFF
:1002040006F07CFBDDF804E0DDE9022304B070476E
:10021400704700BF0348044B834202D0034B03B131
:1002240018477047540600205406002000000000C0
:100234000548064B1B1AD90F01EBA301491002D044
:10024400034B03B11847704754060020540600209E
:100254000000000010B5064C237843B9FFF7DAFF1D
:10026400044B13B10448AFF300800123237010BD85
:100274005806002000000000C06B000808B5054BBC
:100284001BB105490548AFF30080BDE80840FFF7FE
:10029400CFBF00BF000000005C060020C06B000858
:1002A40040F0BF6040F40030014BD860704700BF9D
:1002B40000ED00E0C378F3B1144BDB68DB43C3F318
:1002C4000223C3F1040C0F21D940427802FA0CF244
:1002D40083780B4013431B010278DBB20C490A44B8
:1002E40082F80033037803F01F005B090122824087
:1002F40041F823207047037803F01F015B090122B2
:100304008A402033024941F82320704700ED00E081
:1003140000E100E0042806D04FF0E022136923F046
:100324000403136170474FF0E022136943F00403A0
:100334001361704710B4294B5B6803F00C03042B62
:100344002BD0082B2CD013B1254B036001E0244B98
:10035400036022494B68C3F30313224CE25CD2B21C
:100364000368D34043604A68C2F30222A25CD2B25B
:1003740023FA02F282604A68C2F3C222A25CD2B2B9
:10038400D340C3604A68C2F3813217498A5CD2B24F
:10039400B3FBF2F3036110BC7047114B0360D8E761
:1003A4000E4A53685268C3F38343023312F4803F06
:1003B40004D10E4A02FB03F30360CAE7074A5268FA
:1003C40012F4003F04D0094A02FB03F30360C0E7C0
:1003D400034A02FB03F30360BBE700BF00100240C3
:1003E40000127A00040000200000002000093D00F3
:1003F40021B1054A5369034353617047024A536963
:1004040023EA0003536170470010024021B1054AFA
:100414009369034393617047024A936923EA000393
:10042400936170470010024021B1054AD369034328
:10043400D3617047024AD36923EA0003D36170474A
:100444000010024030B5CB7803F00F02964613F04B
:10045400100F03D091F802E04EEA020E0B78FBB1C4
:100464000568002301E042610133072B17D80122FC
:100474009A40B1F800C032EA0C0CF5D19C004FF060
:100484000F0C0CFA04FC25EA0C050EFA04F42543BF
:10049400CC78282CE7D0482CE6D10261E4E705604B
:1004A4000B88FF2B25D94568002303E0CC78482C22
:1004B4001CD00133072B1BD803F1080C012202FACC
:1004C4000CF2B1F800C032EA0C0CF2D19C004FF0EF
:1004D4000F0C0CFA04FC25EA0C0C0EFA04F444EAA2
:1004E4000C05CC78282CE1D14261DFE70261E0E71A
:1004F400456030BD8368194201D001207047002057
:1005040070470161704741617047000030B587B0A2
:1005140004460D46038A9BB2CA8823F4405313430E
:10052400038283899BB2898828896A8901430A43A3
:1005340023F4B05323F00C031343A381A38A9BB287
:10054400AA8923F440731343A38201A8FFF7F2FEA0
:100554001D4B9C4224D0039BA28912F4004F21D14D
:1005640003EB830303EB83032A689200B3FBF2F3E8
:10057400164AA2FB031252091101642002FB103334
:10058400A28912F4004F16D11B0132330F4AA2FB89
:100594000323C3F343130B439BB2238107B030BD42
:1005A400049BD9E703EB830303EB83032A6852001C
:1005B400B3FBF2F3DCE7DB003233044AA2FB032390
:1005C400C3F342130B43E7E7003801401F85EB51A7
:1005D40029B183899BB243F4005383817047838993
:1005E4009BB223F400539BB283817047C1F3421C36
:1005F40001F01F0101238B40BCF1010F08D0BCF1B5
:10060400020F07D014303AB10268134303607047F5
:100614000C30F8E71030F6E7026822EA03030360BF
:100624007047C1F30801818070478088C0F30800D7
:100634007047C1F3421201F01F0C012303FA0CF3BB
:10064400012A0FD0022A11D0828A92B21340090AD9
:10065400012202FA01F1028892B20A4053B15AB956
:1006640000207047828992B21340F0E7028A92B266
:100674001340ECE70020704701207047014B58619C
:10068400704700BF0004014000F07F00014B186078
:10069400704700BF002C0040014B00229A60704755
:1006A400002C0040038C9BB223F002030B43038411
:1006B4007047808E80B27047028A83890B40114252
:1006C40002D01BB9002070470020704701207047FA
:1006D400C94389B20182704710B4026822F4FF4210
:1006E40022F070028B680C6A23430C6923434C6923
:1006F40023438C692343CC6923434C6A23438C6A88
:10070400234313430360CB6843600B6883604B68E7
:10071400C36010BC704721B1036843F00103036058
:100724007047036823F001031B041B0C036070472C
:1007340010F0805F05D0054B1B68034204D00120F4
:100744007047034B1B68F8E7002070470004024021
:100754000000024010F0805F02D0034B58607047E5
:10076400024B5860704700BF000402400000024082
:100774002DE9F041028802F441520F88B1F8028059
:100784008E88CD880C89B1F80AE0B1F80CC0CB8909
:1007940047EA08073E4335432C434EEA040E4CEA2D
:1007A4000E0C43EA0C0313430380838B9BB223F4A4
:1007B40000639BB283830B8A0382BDE8F08129B175
:1007C40003889BB243F040030380704703889BB2C5
:1007D40023F040039BB20380704781817047808976
:1007E40080B270470389194201D00120704700206C
:1007F40070470000064B00221A605A609A60DA6063
:100804005A629A62DA6203499963DA63704700BFF5
:1008140000800140FF07C00010B40A494A6822F46E
:10082400FD4222F07F02037D84682343446823430E
:10083400C4682343046823430069034313434B60A0
:1008440010BC704700800140014BC3F8A000704702
:1008540000003042044B1A6822F003021A601A683E
:1008640002431A60704700BF00800140024B1868C1
:1008740000F00300704700BF0080014021B1054A29
:10088400D36B0343D3637047024AD36B23EA000359
:10089400D363704700800140014BC3F88C05704757
:1008A4000000304210B4036808498B60CA6822F41F
:1008B400FF6222F00702436884682343C468234329
:1008C400006903431343CB6010BC704700800140B0
:1008D400014B1869C0B270470080014082B0002308
:1008E4000193034B03440193019B186802B07047C2
:1008F4001480014010B40368084A53624368936249
:10090400D16A21F0F7018368C4682343046923434F
:10091400406903430B43D36210BC7047008001401D
:10092400014BD3F88000704700800140034B5B6BA0
:10093400034201D00120704700207047008001402D
:10094400014B9863704700BF00800140014B9863DE
:10095400704700BF0080014030B44FF0E0235D6970
:100964009C691969586100229A611A6942F001026E
:100974001A614FF0E0231B6903F00113012BF8D037
:100984004FF0E0231A6922F001021A6100229A61F1
:100994005D619C61196130BC7047000008B56FF05F
:1009A4000400FFF7B7FC084B1B68084AA2FB0323AB
:1009B400C3F34753064A1370C3EB431203EB82039A
:1009C400DA00044B1A8008BD1400002083DE1B43A8
:1009D400760600207406002008B5034B1B7803FB41
:1009E40000F0FFF7B9FF08BD7606002008B5034BF9
:1009F4001B8803FB00F0FFF7AFFF08BD740600205F
:100A04004278007840EA02207047C378827842EA4C
:100A14000322437843EA0223007840EA0320704724
:100A24000170090A417070470170C1F307234370D4
:100A3400C1F307438370090EC170704700207047EB
:100A440000B58646026812F8013B184613F0800F81
:100A540003D1CEF800205DF804FB03F0E001C029C7
:100A64000BD003F0F001E02931D003F0F801F029B4
:100A740031D103F00700032102E003F01F0001213C
:100A84001378013203F0C00CBCF1800F26D103F0BF
:100A94003F0343EA80100139F2D17F2821D9A0F520
:100AA4005843B3F5006F1FD3B0F5881F1FD2B0F5BC
:100AB400803FCED3A0F580330E4901EA8311C0F301
:100AC4000903194341F0584040F45C40C1E703F086
:100AD4000F000221D4E74FF0FF30BCE74FF0FF30A6
:100AE400B9E74FF0FF30B6E74FF0FF30B3E74FF010
:100AF400FF30B0E70000FF030239C369023B8B42B9
:100B040004D9036B428901FB02307047002070470F
:100B140070B506460D4601F11A00FFF771FF3378F0
:100B2400032B00D070BD044605F11400FFF768FFE5
:100B340044EA0040F6E770B506460C46154691B205
:100B440004F11A00FFF76CFF3378032B00D070BD5B
:100B5400290C04F11400FFF763FFF8E72DE9F843CB
:100B640080460F4691464B730F23CB7200240C73BF
:100B7400214607F11A00FFF753FF09F1FF3606EB90
:100B8400460306EB8306254602E001340C2C11D8FB
:100B94004FF6FF739D4202D038F8165001360C4BC5
:100BA400185D29463844FFF73BFF002DEDD14FF681
:100BB400FF75EAE74FF6FF739D4202D038F816300E
:100BC4000BB949F0400987F80090BDE8F88300BFED
:100BD4000C6D000801464FF00B0C0020C30143EAE2
:100BE4005003DBB20A7801311344D8B2BCF1010CD2
:100BF400F4D170470146006820B3024613780132ED
:100C04001F2B01D93A2BF9D13A2B01D00020704780
:100C14000378A3F1300C5FFA8CFCBCF1090F0ED8F9
:100C24000230904202D04FF0FF307047A3F1300001
:100C3400012802DD4FF0FF3070470A6070474FF023
:100C4400FF3070474FF0FF30704738B50D4604460B
:100C540098B103689BB11A78A2B18188DA8891426D
:100C640003D0092000242C6038BD587802F0DEF847
:100C740010F0010009D12468F5E70920F3E71C46C8
:100C84000920F0E709200024EDE709200024EAE721
:100C940070B505790DB9284670BD044600F13806D3
:100CA4000123426B3146407802F030F9054688B999
:100CB40000232371616BA36ACB1A226A9342EAD29E
:100CC400E378022BE7D101230A443146607802F02D
:100CD4001DF9E0E70125DEE770B5436B8B4202D1D5
:100CE4000026304670BD04460D46FFF7D1FF064688
:100CF4000028F6D101232A4604F13801607802F075
:100D0400CBF810B101264FF0FF356563E9E7000029
:100D140038B50446002303714FF0FF334363FFF7F4
:100D2400DBFF00285CD104F23620FFF769FE05469C
:100D340094F83830EB2B09D0E92B07D0E82B05D0F9
:100D44004AF655239D4249D0032038BD4AF655231F
:100D54009D4239D004F14300FFF752FE94F8452038
:100D6400431E1842ECD1B0F5007FE9D3B0F5805FA3
:100D7400E6D8002AE4D0531E1A42E1D104F1460019
:100D8400FFF73EFE0028DBD094F84830013B012BEE
:100D9400D6D804F14900FFF733FE0028D0D004F17F
:100DA4004B00FFF72DFE7F2806D804F15800FFF70B
:100DB4002CFEB0F5803FC3D304F14E00FFF720FEB4
:100DC4000028BDD00020C0E70822064904F18A00AB
:100DD40005F04CF80028BDD10020B6E70220B4E7A6
:100DE4000420B2E7086C000870B584B006460D46CE
:100DF4000021FFF78DFF022803D02BD855B3002420
:100E040000E00024032C0ED806F13800230103F57A
:100E1400E3731844FFF7F9FD04AB03EB840343F8D1
:100E2400100C0134EEE70DB16C1E0AE02C4608E00C
:100E34003046FFF76DFF6DB901280BD90134032C3F
:100E440008D804AB03EB840353F8101C0029EFD13A
:100E54000320F0E704B070BD2DE9F04F83B00D46D8
:100E6400164600230B60FFF7C5FE0028C0F23F8141
:100E7400B54B53F82040002C00F03E812C6006F066
:100E8400FE06237873B1607801F0D0FF10F00105FD
:100E940008D1002E00F02C8110F0040F00F02881FE
:100EA4000A2525E100232370607801F0D3FF10F0B8
:100EB400010F40F023811EB110F0040F40F0208197
:100EC40004F10C020221607802F056F8054600286D
:100ED40040F01881A289A2F500739BB2B3F5606F4C
:100EE40000F21281531E1A4201D0012500E10021B3
:100EF4002046FFF779FF042800F00881012800F25A
:100F04000781D4F834A004F14300FFF779FDA789E1
:100F1400B84240F0FF8004F14E00FFF771FD064631
:100F240020B904F15C00FFF770FD0646266294F8D0
:100F34004820E270531EDBB2012B00F2ED8006FB69
:100F440002F3009394F84580A4F80A80B8F1000FE6
:100F540000F0E48008F1FF3318EA030F40F0E0806A
:100F640004F14900FFF74CFD814620814FEA571BED
:100F7400B0FBFBF30BFB13039BB2002B40F0D280BE
:100F840004F14B00FFF73CFD019020B904F1580037
:100F9400FFF73BFD019004F14600FFF731FD0146E8
:100FA400002800F0C180009BC318B9FBFBFB5B4425
:100FB400019A9A42C0F0BA80D21AB2FBF8F04245C4
:100FC400C0F0B680614A904206D84FF6F57290425E
:100FD40043D84FF0020801E04FF0000840F6F572E4
:100FE40090423DD9B8F1000F00F0A48000F1020B4B
:100FF400C4F81CB0C4F824A001EB0A02A262534452
:101004002363B8F1030F2ED0B9F1000F00F09880DC
:10101400009B1A44E262B8F1020F35D00BEB4B028D
:101024000BF0010303EB52033B44013BB3FBF7F327
:10103400B34200F287804FF0FF33A36163618023E2
:101044006371B8F1030F22D084F80080404A1388FA
:1010540001339BB21380E3804AE04FF00308C1E7F9
:101064004FF00108C2E704F16200FFF7C9FC002851
:1010740062D1B9F1000F61D104F16400FFF7C5FC3E
:10108400E0624FEA8B03CFE74FEA4B03CCE704F16E
:101094006800FFF7B5FC0128D6D10AF1010120460A
:1010A400FFF71AFE0028CFD10023637104F2362023
:1010B400FFF7A6FC4AF655239842C5D104F138003F
:1010C400FFF7A3FC234B9842BED104F50770FFF74A
:1010D4009CFC214B9842B7D104F50870FFF795FCAE
:1010E400A06104F50970FFF790FC6061ACE70B2583
:1010F400284603B0BDE8F08F0C25F9E70325F7E790
:101104000A25F5E70125F3E70125F1E70125EFE7D6
:101114000D25EDE70D25EBE70D25E9E70D25E7E7BF
:101124000D25E5E70D25E3E70D25E1E70D25DFE7CF
:101134000D25DDE70D25DBE70D25D9E70D25D7E7DF
:101144000D25D5E70D25D3E77C060020F5FFFF0F1D
:101154007806002052526141727241612DE9F047D4
:10116400012940F2958004460D461746C3698B4217
:1011740040F290800378022B4ED0032B66D0012BD3
:1011840003D002263046BDE8F08701EB5108816A9E
:101194008389B8FBF3F31944FFF79EFD0646002844
:1011A400F0D104F1380A08F10109A389B8FBF3F27C
:1011B40003FB128815F0010524D01AF808303A010F
:1011C40002F47F6203F00F031343DBB20AF8083022
:1011D40001232371A16AA389B9FBF3F319442046BF
:1011E400FFF77AFD06460028CCD1A389B9FBF3F2B8
:1011F40003FB129945B1C7F307130AF80930012319
:101204002371BFE7FBB2E1E71AF80930C7F3032201
:1012140023F00F031343F0E7816A83895B08B5FB6E
:10122400F3F31944FFF758FD06460028AAD104F148
:1012340038006D00A389B5FBF3F203FB1255B9B274
:101244002844FFF7EDFB012323719BE7816A83891F
:101254009B08B5FBF3F31944FFF73EFD064600284F
:1012640090D127F0704704F13803AD00A289B5FB93
:10127400F2F102FB11551D442846FFF7C6FB00F0AE
:10128400704139432846FFF7CFFB0123237179E7E7
:10129400022677E7022675E7F8B5056801296CD9B7
:1012A4000C46EB698B426AD92B78022B37D0032B7F
:1012B4004BD0012B01D0012060E001EB5106A96A5B
:1012C400AB89B6FBF3F319442846FFF705FD10B1CB
:1012D4004FF0FF3052E0771CAB89B6FBF3F203FB0F
:1012E40012662E4496F83860A96AB7FBF3F31944E2
:1012F4002846FFF7F1FC002843D1AB89B7FBF3F292
:1013040003FB12772F4497F8383046EA032014F091
:10131400010F01D0000931E0C0F30B002EE0A96AEF
:10132400AB895B08B4FBF3F319442846FFF7D4FCFC
:1013340050BB05F138006400AB89B4FBF3F203FB46
:1013440012442044FFF75CFB18E0A96AAB899B08B0
:10135400B4FBF3F319442846FFF7BEFCB8B905F112
:101364003800A400AB89B4FBF3F203FB124420441D
:10137400FFF74BFB20F0704000E00120F8BD012096
:10138400FCE74FF0FF30F9E74FF0FF30F6E74FF09E
:10139400FF30F3E72DE9F041D0F80080B1F5001FEC
:1013A40049D207460E4611F01F0F47D101618468E8
:1013B4001CBB98F80030022B01D9D8F82C40E4B9B2
:1013C400B8F80830B3EB561F3AD9D8F82C30BB61C3
:1013D4007C61BB69E3B3B8F80C20B6FBF2F21344AA
:1013E400BB6108F13803B8F80C20B6FBF2F102FB3C
:1013F40011610B44FB6100201EE0B8F80A50B8F8F4
:101404000C3003FB05F5AE420FD321463846FFF7F7
:1014140043FF0446B0F1FF3F14D0012814D9D8F893
:101424001C30834212D9761BEDE721464046FFF774
:1014340063FBB861CCE70220BDE8F0810220FBE742
:101444000220F9E70120F7E70220F5E70220F3E79D
:101454000220F1E72DE9F84306460768884631B9CA
:101464007D698DB1FB69AB420FD801250DE0FFF713
:1014740013FF0346012878D9B0F1FF3F6FD0FA6912
:1014840082426CD8454600E00125BB69002B66D03A
:10149400454506D04FF00009B9F1000F3AD12C466A
:1014A4002FE005F10109FB694B4501D84FF0020912
:1014B40049463046FFF7F0FE034601284FD0B0F10D
:1014C400FF3F4CD00028E7D07B69012B05D9FA698E
:1014D4009A4205D84FF00009DEE74FF00009DBE738
:1014E4001D464FF00009D7E721463046FFF7D4FEEA
:1014F400034670B1012832D0B0F1FF3F2FD0AC4287
:1015040037D00134FB69A342EED8012D2FD9022430
:10151400EAE7A1464FF0FF3249463846FFF71EFE80
:101524000346C8B9B8F1000F0FD1ABB9C7F814908E
:10153400BA69FB69023B9A4201D8013ABA617B79E4
:1015440043F001037B714B4609E04A464146384665
:10155400FFF704FE0346E8E7012B03D001231846F6
:10156400BDE8F8834FF0FF33F9E70123F7E74B4673
:10157400F5E74B46F3E7F8B50C46056801292ED983
:1015840006461146EB69A3422BD94AB14FF0FF320C
:101594002846FFF7E3FD074610B123E0A24221D914
:1015A400274621463046FFF777FE0446E0B101287E
:1015B4001CD0B0F1FF3F1BD0002239462846FFF76C
:1015C400CDFD074670B9AB69EA69911E8B42E5D23D
:1015D4000133AB616B7943F001036B71DEE70227E2
:1015E40000E002273846F8BD0027FBE70227F9E7A9
:1015F4000127F7E7F8B505460C46FFF749FB08B1A4
:101604000120F8BD21462846FFF776FA06466863AE
:1016140005F138074FF480520021384604F036FCB7
:10162400002400E001346B89A34207D90123A219E5
:101634003946687801F06AFC0028F3D06889001BF9
:1016440018BF0120DDE72DE9F04105460F46066885
:1016540004692034B4F5001F01D300238361AB690E
:10166400002B4ED0B189B4FBF1F201FB12423AB91E
:101674000133AB616969A1B93389B3EB541F0CD948
:101684002C6106F13803B289B4FBF2F102FB114478
:101694002344EB610020BDE8F0810023AB6104200A
:1016A400F9E7B289B4FBF2F27389013B1A42E7D13C
:1016B4002846FFF7F1FD8046012824D9B0F1FF3F09
:1016C40023D0F369834210D8BFB169692846FFF774
:1016D400C1FE8046D8B101281BD0B0F1FF3F1AD01B
:1016E40001463046FFF786FFB8B9C5F81480414675
:1016F4003046FFF701FAA861C2E70023AB6104207A
:10170400C9E70420C7E70220C5E70120C3E7072093
:10171400C1E70220BFE70120BDE70120BBE7F8B520
:1017240004460E4607680021FFF734FE0246C0B99E
:10173400002508E00135B54213D001212046FFF70A
:1017440082FF024668B9A1693846FFF7C5FA024626
:1017540038B9E3691B78E52BECD0002BEAD00025DF
:10176400EBE7042A01D01046F8BD0722FBE700008E
:1017740070B50446FFF78CFA054648B92378032B65
:1017840008D000221146607801F0F6FB00B1012573
:10179400284670BD6379012BF3D104F138064FF468
:1017A40080520021304604F071FB4AF6552104F2C0
:1017B4003620FFF735F90F493046FFF735F90E4962
:1017C40004F50770FFF730F9A16904F50870FFF715
:1017D4002BF9616904F50970FFF726F9626A013291
:1017E400626301233146607801F090FB002363714A
:1017F400C7E700BF52526141727241612DE9F04F57
:1018040085B001908B4600929A4603AA012101F00B
:10181400B3FB002840F08880DDF80C80082444B134
:10182400B8FBF4F24FF63E439A4202D96400E4B2A4
:10183400F5E704B9FF244FF480520021504604F028
:1018440025FB0AF5DF763F254FF0000945E04746C2
:1018540054E0A8EB0507002F56D0294606F10800EE
:10186400FFF7E2F8394606F10C00FFF7DDF8009BBC
:1018740033712F4AA2FB0513E91A03EB51035B09E9
:10188400B3FBF4F104FB1130C3EB8313EB1ADBB2AB
:101894000133DBB27070880800F0C0000343B370FA
:1018A400F1703D446B1EA2FB0312991A02EB510224
:1018B4005209B2FBF4F104FB1120C2EB82129B1A11
:1018C400DBB20133DBB270718A0802F0C002134349
:1018D400B371F171103609F10109B9F1030F13D88D
:1018E40095B1454510D25BF82970642F06D8AED067
:1018F400104BA3FB08235B0903FB07F7EB194345D4
:10190400A7D8AB42A7D2A4E74AF655210AF5FF703F
:10191400FFF786F8012300225146019801F0F6FAF8
:1019240020B905B0BDE8F08F0120FAE70120F8E7FF
:10193400054110041F85EB512DE9F04F85B0074692
:1019440089460B68039303681D69002405E0FE2C97
:1019540000F21C8125F81460013403A8FFF770F825
:10196400B0F1FF3F00F01081B0F5803F03D3030CCA
:1019740025F81430013486B21F2E0DD92F2E0BD02A
:101984005C2E09D07F2EE2D83146814804F086FAD5
:101994000028DCD006209CE01F2E07D84FF0040856
:1019A400039BC9F8003010E001330393039B1A78BA
:1019B4002F2AF9D05C2AF7D01F2A02D94FF0000849
:1019C400EEE74FF00408EBE7013C44B104F10043B7
:1019D400013B35F81330202BF6D02E2BF4D0002306
:1019E40025F8143014B9062073E0013335F81320B8
:1019F400202AFAD00BB92E2A01D148F0030844B1A9
:101A040004F10042013A35F812202E2A01D0013C9B
:101A1400F5E74FF020323A627A62C7F827204FF098
:101A2400080B4FF0000ACDF800A003F1010935F8C6
:101A3400136056B3202E1BD02E2E17D0DA451BD29E
:101A44004C4519D07F2E54D82EB13146514804F05C
:101A540025FA002879D048F003085F2607EB0A032B
:101A640083F820604B460AF1010ADEE74C45E5D0D5
:101A740048F003084B46D8E7BBF10B0F2CD04C457C
:101A840001D048F003084C4529D297F82030E52BC3
:101A940071D0BBF1080F72D0009A02F00C030C2B2A
:101AA40003D002F00303032B01D148F0020818F01D
:101AB400020F0BD1009B13F0010F01D048F0100866
:101AC400009B13F0040F01D048F0080887F82B801E
:101AD400002005B0BDE8F08F48F00308D5E7009B6F
:101AE4009B00DBB2009323464FF00B0B4FF0080A28
:101AF4009BE748F00203019340F2B511304601F030
:101B040075FA064610F0800F06D000F07F06224BCF
:101B14009E5DDDF8048097E7FF2813D90BF1FF33AE
:101B240053450AD9C0F3072307EB0A0282F8203091
:101B34000AF1010ADDF8048090E748F003084B46F7
:101B4400DA4672E7DDF804807EE7A6F141039BB232
:101B5400192B03D8009B43F002030093A6F1610301
:101B64009BB2192B3FF67AAF009B43F0010300931D
:101B7400203EB6B272E7052387F8203089E7009B40
:101B84009B00DBB2009387E70620A2E70620A0E7CC
:101B9400146C0008206C00088C6C00082DE9F047D8
:101BA40081460F4601F11A00FEF72AFFC8BB3E78B2
:101BB40006F03F06013E06EB460306EB83064FF0B4
:101BC4000108002506E000202CE04FF6FF73984240
:101BD4002AD101350C2D18D8174B585D3844FEF71F
:101BE4000FFF0446B8F1000FEFD0FF2EEBD801F041
:101BF4001DFA804606F1010A39F8160001F016FABA
:101C04008045E0D1A0465646E3E73B7813F0400F09
:101C14000CD0B8F1000F0BD039F8163053B90120AD
:101C240000E00020BDE8F0870020FBE70120F9E791
:101C34000120F7E70020F5E70C6D00082DE9F843D3
:101C44000446D0F800800021FFF7A4FB06460028D4
:101C540064D14FF0FF33E3624FF0FF094F460AE0CF
:101C64004FF0FF33E362FF2700212046FFF7EBFC30
:101C74000646002852D1A1694046FFF72DF80646D2
:101C840000284BD1E5692B78002B46D0EA7A02F084
:101C94003F01A171E52BE3D012F0080F14D00F29F6
:101CA400DED194F82B2012F0400FDDD113F0400F59
:101CB40006D095F80D9003F0BF032269E2621F4637
:101CC400BB421AD0FF27CFE70F29EAD027B928460D
:101CD400FEF780FF484521D094F82B3013F0010F14
:101CE40006D10B2204F12001284604F0BFF8A8B164
:101CF4004FF0FF33E362FF27B6E76B7B4B4501D020
:101D0400FF27B1E72946D8F81000FFF747FF10B1C5
:101D1400013FFFB2A8E7FF27A6E704263046BDE847
:101D2400F88330B583B004460191056801E00133BE
:101D34000193019B1A782F2AF9D05C2AF7D000224C
:101D4400A2601B781F2B21D901A92046FFF7F4FDBF
:101D5400034618BB2046FFF771FF94F82B20034677
:101D6400F8B912F0040F19D1A37913F0100F1FD092
:101D740005F138012369AA89B3FBF2F002FB1033A1
:101D840019442846FEF7C4FEA060DDE7802384F8EA
:101D94002B3011462046FFF7FDFA0346184603B0E0
:101DA40030BD0428FAD112F0040FF7D10523F5E76A
:101DB4000523F3E7F0B583B006460C684868346041
:101DC40070600889897A3081B172052B13D807278E
:101DD40022E00CF1010CBCF10F0F0CD801F0010E44
:101DE4000EEB4303490813F4803FF2D083F48833A5
:101DF40083F02103EDE711880029E8D002324FF087
:101E0400000CE8E707F10801694401F8082C7D1E7D
:101E14000DD00F280BD92F4603F00F0101F130022A
:101E240018461B09392AEDD901F13702EAE77E2267
:101E340005F108036B4403F8082C002400E0013486
:101E4400AC4211D2305D20280ED0FEF7F7FD0028F9
:101E5400F5D0BB1EA34207D00134F0E72022631C57
:101E64003255072B09D81C46072DF7D805F108036E
:101E74006B4413F8082C0135F1E703B0F0BD000002
:101E84002DE9F04184B0076890F82B5015F0A00FAD
:101E940040F08D800646002400E001343B6933F8AD
:101EA4001430002BF9D101AB306A716AB26A07C3EE
:101EB40015F0010F1DD0402386F82B30012500E0DA
:101EC4000135632D0CD82B463A6901A906F120008F
:101ED400FFF770FF3046FFF7B1FE80460028EFD0D1
:101EE400642D6AD0B8F1040F63D19DF80F3086F8E1
:101EF4002B309DF80F3013F0020F06D00C34304B0A
:101F0400A3FB0434A408013400E001242146304634
:101F1400FFF705FC804600284BD1013C21D1B8F1E4
:101F2400000F46D1B1693846FEF7D6FE8046002838
:101F34003FD120220021F06903F0A8FFF369316A40
:101F4400726A19605A60318D96F82A2019819A7242
:101F540096F82B30F26903F01803137301233B71D5
:101F640027E03169A1EB44113046FFF713FA8046AC
:101F7400F8B906F12000FEF72DFE0546B169384692
:101F8400FEF7AAFE80460028C9D12B46E2B2F169C9
:101F94003869FEF7E3FD01233B7100213046FFF76A
:101FA40052FB80460028BAD1013CE7D1B7E74FF095
:101FB4000608404604B0BDE8F0814FF00708F8E792
:101FC4004FECC44E10B584B00190009114460391B7
:101FD40003A8FEF70FFE00281CDB0F4B53F820303C
:101FE40023B100220C4941F820201A70019B3BB117
:101FF4005870019B00221A70074B019A43F8202065
:1020040014B9204604B010BD002201A96846FEF7A9
:1020140023FFF7E70B20F5E77C0600202DE9F047C6
:10202400ADF5107D0191002800F0FD8014460646B0
:1020340002F03F073A4683A901A8FEF70DFF0546C3
:1020440030B10023336028460DF5107DBDE8F087DC
:10205400839B849303AA1A61019984A8FFF761FE04
:10206400054618B99DF93B32002B47DB14F01C0FD1
:1020740055D0002D49D0042D42D047F00807002D3B
:10208400DFD117F0080F5AD000F0AEFF0446014626
:102094008B980E30FEF7C8FC21468B981630FEF75D
:1020A400C3FCDDF80C82DDF82C9249464046FEF76D
:1020B4002FFD0446202389F80B3000228B994046DB
:1020C400FEF739FD00218B981C30FEF7ADFC839B95
:1020D40001221A719CB3D3F834800022214684A8CB
:1020E400FFF749FA05460028ABD141468398FEF72D
:1020F400F3FD0546013C839B5C6120E00625B5E7C2
:1021040084A8FFF7BDFE0546B7E79DF8163213F025
:10211400110F13D114F0040FB1D0082591E7002D4D
:102124008FD19DF8163213F0100F78D114F0020FEE
:1021340005D013F0010F02D0072582E70725002DF3
:102144007FF47FAF17F0080F01D047F04007DDF8A8
:102154000CA2DAF834303362DDF82C82C6F824801D
:1021640041465046FEF7D4FC0446B06008F11C001A
:10217400FEF74BFC8046F060C6F800A0BAF80630C3
:10218400B380377400217174F161716106F128091B
:102194004FF48052484603F079FE17F0200F3AD0EE
:1021A400B8F1000F37D0C6F81480BAF80A70BAF83C
:1021B4000C3003FB07F702E00225A8EB07086DB912
:1021C400B8450BD921463046FFF766F80446012886
:1021D400F2D9B0F1FF3FF0D10125EEE7B461002D53
:1021E4007FF42FAF839FB7F80CA0B8FBFAF30AFB78
:1021F400138383B121463846FEF77EFC08B90225D5
:102204001FE7B8FBFAF20244F261012349467878E9
:1022140000F042FE28B9002D3FF415AF11E7042564
:102224000FE701250DE709250DE72DE9F04F85B0EE
:1022340004460F46154698460023C8F8003003A903
:10224400FEF703FD0190002840F0B380637C019306
:10225400002B40F0AE80237C13F0010F00F0C88007
:10226400E6686369F61AAE4261D32E465FE0A1695F
:102274002046FFF711F86EE04FF0020A84F811A02F
:10228400CDF804A095E04FF0010A84F811A0CDF830
:1022940004A08EE04FF0020A84F811A0CDF804A047
:1022A40087E094F91030002B04DB039B9D890AFB23
:1022B40005F532E0E369A3EB09035345F5D2039A2C
:1022C400928904F1280102FB037003F071FEECE72C
:1022D400E2694A450DD094F91030002B6DDB0123DF
:1022E4004A4604F128010398407800F0D5FD0028FF
:1022F40077D1C4F81C90039B9D896369B3FBF5F205
:1023040005FB1233ED1AAE4200D2354604F1280122
:102314002A461944384603F04BFE761BD8F80030A1
:102324002B44C8F800302F4463692B446361002EAA
:102334003FD0626903998D89B2FBF5F305FB132342
:10234400002BD8D1B2FBF5F54B89013B1D4008D1D8
:10235400002A8CD1A06801288ED9B0F1FF3F92D019
:10236400A061DDF80CB0A1695846FEF7C5FB8146B3
:1023740000288FD0A944BBF80C30B6FBF3FAB34263
:10238400A6D805EB0A03BBF80A20934201D9A2EBB5
:10239400050A53464A4639469BF8010000F07CFD85
:1023A40000283FF47EAF4FF0010A84F811A0CDF865
:1023B40004A0019805B0BDE8F08F012304F12801C1
:1023C4009BF8010000F0A2FD20B9237C03F07F03F9
:1023D400237484E74FF0010A84F811A0CDF804A017
:1023E400E7E74FF0010A84F811A0CDF804A0E0E774
:1023F40007230193DDE72DE9F04F85B004460F462E
:10240400154698460023C8F8003003A9FEF71DFCC2
:102414000190002848D1637C0193002B44D1237C94
:1024240013F0020F00F0E6806369EB42C0F0AF8066
:10243400DD43ACE0A1692046FFF70CF8002800F06A
:10244400D480012834D0B0F1FF3F38D0A061A36814
:1024540003B9A06094F91030002B37DBDDF80CB021
:10246400A1695846FEF748FB8146002843D0B14491
:10247400BBF80C30B5FBF3FAAB425AD806EB0A03AF
:10248400BBF80A20934201D9A2EB060A53464A46F6
:1024940039469BF8010000F039FD98B34FF0010A6A
:1024A40084F811A0CDF804A0019805B0BDE8F08F20
:1024B4004FF0020A84F811A0CDF804A0F4E74FF01D
:1024C400010A84F811A0CDF804A0EDE70123E26924
:1024D40004F128010398407800F018FD20B9237C0A
:1024E40003F07F032374B9E74FF0010A84F811A0C5
:1024F400CDF804A0D8E74FF0020A84F811A0CDF873
:1025040004A0D1E7E369A3EB0903534504D3039B78
:102514009E890AFB06F62BE0039A928902FB03715B
:1025240004F1280003F044FD237C03F07F032374AB
:10253400EDE7E3694B4503D06269E3689A4243D30C
:10254400C4F81C90039B9E896369B3FBF6F206FBF7
:102554001233F61AB54200D22E4604F12800324650
:102564003946184403F024FD237C63F07F0323746D
:10257400AD1BD8F800303344C8F8003037446369E1
:1025840033446361E268934238BF1346E36065B342
:10259400626903998E89B2FBF6F306FB1323002BC1
:1025A400D0D1B2FBF6F64B89013B1E407FF452AF0B
:1025B400002A7FF43FAFA06800287FF442AF0021D7
:1025C4002046FEF747FF39E701234A4604F1280174
:1025D4009BF8010000F060FC0028B1D04FF0010A24
:1025E40084F811A0CDF804A05EE7237C43F04003F7
:1025F400237459E70723019356E770B582B0044664
:1026040001A9FEF722FB70B9237C13F0400F0AD016
:1026140013F0800F09D100F0E7FC0546216A019808
:10262400FEF75AFB78B102B070BD0123E26904F1F0
:1026340028010198407800F069FC38BB237C03F042
:102644007F032374E7E7666AF37A43F02003F372A7
:10265400A26831462068FEF76EFAE16806F11C00B4
:10266400FEF7E2F9294606F11600FEF7DDF900212E
:1026740006F11200FEF7D4F9019801230371FFF764
:1026840077F8237C23F040032374CCE70120CAE7C6
:1026940010B582B00446FFF7B0FF08B102B010BD18
:1026A40001A92046FEF7D1FA0028F7D12060F5E70A
:1026B4002DE9F04788B001900F461446002207A97F
:1026C40001A8FEF7C9FB804638B9079B23609A69C5
:1026D400DD69A91E8A4204D83A60404608B0BDE8C4
:1026E400F08793F80090B9F1010F04D0D3F8289043
:1026F4000024264631E003930224002604E001343A
:10270400079BDB69A3423BD9214603A8FEF7C4FD1E
:10271400B0F1FF3F33D001283DD00028EFD101367E
:10272400EDE709F1010A49460798FEF7D5FA804614
:1027340030BBD14613E00AF138002044FEF760F9BB
:1027440000B90136023400E00434BAF80C30B4FBAA
:10275400F3F203FB1244013D12D0002CE1D0DDF86A
:102764001CA09AF80030022BE5D00AF1380020446E
:10277400FEF74BF930F07043E6D10136E4E7C84682
:10278400B8F1000FA9D13E60079B9E615A7942F0CF
:1027940001025A71A1E74FF00208F1E72DE9F04F69
:1027A40091B009900E4601921F4609A8FEF722FA3D
:1027B4000028C0F20483B54B53F820300BB100223B
:1027C4001A70C4B2204600F045FB10F0010F40F02F
:1027D400F88210F0040F40F0F882002E3AD07368AB
:1027E4000E93002B38D00E9A531EB3F5004F01D22E
:1027F4001A4201D001230E930DF13E02022120461C
:1028040000F0BAFB002840F0E282BDF83E30A3F5A8
:10281400007292B2B2F5606F00F2DB825A1E13426C
:1028240040F0D982357871784A1ED2B2012A19D97A
:102834004FF0010BD6F8089009F1FF32B2F5004FC2
:1028440012D25909B9FBF1F201FB129272B14FF4A1
:1028540000790BE08E4EC2E70EAA0321204600F059
:102864008BFBC0E78B46E5E74FF40079F668B6F1D9
:10287400807F04D8721E164202D0002600E0002693
:10288400B6FBF3F6B7FBF3F20392BB4200F2A58268
:10289400019B002B00F0A38200230D930DAA0121BC
:1028A400204600F069FB002840F09B8215F00803E5
:1028B400059308D10D9B3F2B40F284803F3B0D9341
:1028C4003F23029301E0002302930D9B7F2B40F2F0
:1028D4008A82802E00D9802615F00203049302D048
:1028E40015F0010F71D015F0010F00F07E824FF04A
:1028F400020A00F079FB0D9943180693BAF1030F0D
:102904006BD0002E00F08E803746B1FBF7F340F613
:10291400F572934240F295809D1C6D00BDF83E30E7
:102924001D44013DB5FBF3F54FEA491CBCFBF3FC28
:102934000120029B00EB030E0BFB05E26244DDF871
:10294400388008EB0203013BC8F1000803EA0803DE
:102954009B1ABAF1030F7CD0B3FBFBF80BFB1838BE
:10296400B8F1000F03D0013B01300EF1010EB3FBAF
:10297400FBF31D4402EB0712029BD21A9142C0F0F2
:102984004582A1EB00080BFB1588A8EB0C08B8FBEB
:10299400F7F8BAF1030F5FD0BAF1020F40F080806C
:1029A4004FF6F573984564D916B97B00402B0FD9BF
:1029B400049B7BB9002E40F02D827E00802E9DD991
:1029C4000E20FFE1002302937FE74FF0030A90E714
:1029D4001E4693E74FF0030A90E7AEB13746B1FBCA
:1029E400F7F39D1CBDF83E2002EB8505013DB5FBC8
:1029F400F2F5A3F57F43F63B264A934200F20482A4
:102A04004FF0000C202094E7480C3246012701E0E7
:102A140001327F00204B33F81230002BDFD0834289
:102A2400F6D9DCE7080B3246012701E001327F00CA
:102A34001A4B33F81230002B3FF467AF8342F5D9B9
:102A440063E703EB430501356D0803354FF0010AD5
:102A540064E718449E448DE74FF6F57398459BD878
:102A6400002E40F0D5817E08012F3FF647AF0E209F
:102A7400A8E140F6F573984512D8002E40F0CC81B9
:102A84007E00802E7FF63AAF0E209BE17C0600206C
:102A94007C6C0008FFFFFE0F6C6C00085C6C000887
:102AA4000790CDF810E0CDF820C0BAF1010F04D1A1
:102AB40040F6F573984500F2B181BDF83E2000213F
:102AC400019E304603F0E2F9C94B03CB3060304637
:102AD40071601A889B783281B372BDF83E100B3056
:102AE400FDF79EFF30467773BDF81C100E30FDF7DE
:102AF40097FF304686F810B01130BAF1030F00F09A
:102B04009C801FFA89F1FDF78BFF0D99B1F5803F89
:102B140080F0958089B2019B03F11300FDF780FFDB
:102B2400F823019E73753F2106F11800FDF778FF25
:102B3400FF2106F11A00FDF773FF029906F11C004C
:102B4400FDF772FFBAF1030F7FD00699019E06F1DB
:102B54002700FDF769FFA9B206F11600FDF760FF33
:102B6400802386F824302923B44686F82630A14EE3
:102B74000FCECCF82B00CCF82F10CCF83320CCF8A7
:102B840037303288B378ACF83B208CF83D30DDF830
:102B9400049009F5FF764AF655213046FDF740FFCB
:102BA4000123029A4946204600F0B0F9002840F07B
:102BB4003781BAF1030F7AD0BDF83E20039E06FB9D
:102BC40002F20021DDF80480404603F05FF94FF083
:102BD40000090697049F02955D46B346A94580F017
:102BE400B080BAF1030F00F09880BAF1010F00F041
:102BF400A6806FF007014046FDF716FF029ECDF850
:102C040010A0B2465E4528BFDA4653463A464146CE
:102C1400204600F07BF9002840F00481BDF83E20F6
:102C24000021404603F032F95744B6EB0A06E8D1D6
:102C3400DDF810A009F10109D0E7002163E7019B49
:102C440003F12000FDF7F0FE6AE70699019E06F104
:102C54004300FDF7E9FE294606F12400FDF7E4FEF2
:102C6400022106F12C00FDF7DFFE012106F1300000
:102C7400FDF7D6FE062106F13200FDF7D1FE8023D2
:102C840086F840302923B44686F842305A4E0FCE97
:102C9400CCF84700CCF84B10CCF84F20CCF853308C
:102CA4003288B378ACF857208CF859306FE7012399
:102CB400029A0632DDF804904946204600F026F9CF
:102CC400BDF83E200021484603F0E0F84B49484651
:102CD400FDF7AAFE4A4909F5F270FDF7A5FE08F1D1
:102CE400FF3109F5F470FDF79FFE022109F5F67036
:102CF400FDF79AFE4AF655213046FDF791FE012371
:102D0400029EF21D4946204600F000F90123F21804
:102D14004946204600F0FAF84EE76FF007014046B6
:102D2400FDF782FE4FF0FF3108F10400FDF77CFE51
:102D34006FF0704108F10800FDF776FE5EE7314957
:102D440059E70497069FBAF1030F1CD0049F089E0D
:102D5400039DB54228BF35462B463A460199204685
:102D640000F0D4F800285FD12F44761BF0D1BAF1DB
:102D7400030F0DD00D9BB3F5803F1ED2BAF1020FA5
:102D840004D0012205E03E46049FE1E7042200E06E
:102D94000C22059B4BB90D9B0B9300230C93019BB9
:102DA4000BA92046FEF72AFD60B9002211462046F1
:102DB40000F0E2F830B1012004E00622E9E70B203C
:102DC40000E0032011B0BDE8F08F0A20FAE70120EB
:102DD400F8E70120F6E70120F4E71120F2E71120DB
:102DE400F0E70120EEE70E20ECE71320EAE700BF4E
:102DF400286C0008486C0008346C00085252614189
:102E040072724161F8FFFF000E20DBE70E20D9E764
:102E14000E20D7E70E20D5E70E20D3E70E20D1E70A
:102E24000120CFE70120CDE70120CBE710B582B028
:102E3400044650B101280BD10DF1070000F090FCBD
:102E44009DF807300BB100B90446204602B010BD0E
:102E54000120FBE710B520B1044601280BD0012066
:102E640010BD4FF4A060FDF71BFA02F049F80028EA
:102E7400F6D00120F4E7FDF791FD00F0DBF900F056
:102E840005FB00F0E9FB00B904460120FFF7CEFF83
:102E94002043C0B2E4E7000010B58C46114620B1CF
:102EA400044601281DD0042010BD012B08D04FF486
:102EB40000724902604602F0C9F850B10120F3E7FC
:102EC400114B1B6D9AB203FB01F1604602F04CF802
:102ED400F3E702F037F988B902F0B4FA0028FBD11D
:102EE400E2E71A030903604600F04AFE012807D00E
:102EF400022807D00028D7D00420D5E70120D3E743
:102F04000320D1E72046CFE7D806002010B58C4631
:102F1400114620B1044601281BD0042010BD012B0A
:102F240008D04FF400724902604602F099F940B1AA
:102F34000120F3E74FF400724902604602F01EF9E3
:102F4400F5E702F031FA88B902F07CFA0028FBD1E7
:102F5400E4E71A030903604601F092F8012807D058
:102F6400022807D00028D9D00420D7E70120D5E7CC
:102F74000320D3E72046D1E738B51546044618B1F7
:102F8400012818D0042038BD02290DD003290FD000
:102F94000129F8D113490A6D0023D1E91201FDF783
:102FA4001FF928602046EEE70E4B1B6D1380EAE7FD
:102FB40001231360E7E702290AD003290DD0012970
:102FC40001D00020DFE74FF4805313600020DAE7DC
:102FD4004FF4805313800020D5E7012313600020B1
:102FE400D1E700BFD8060020002070477F2801D811
:102FF40080B27047B0F5803F13D240F2B5139942C6
:103004000DD00020704701339BB27F2B04D8064AB1
:1030140032F813208242F6D18033D8B270470023AD
:10302400F3E70020704700BFCC6F0008B0F5803F85
:1030340047D230B585B2B5F5805F01D2214B02E0AD
:10304400214B00E023461A88EAB195421BD31C1D8C
:103054005B88190ADBB21FFA80FC03EB020EF4450D
:1030640004DB0029EED104EB4303ECE708290AD87A
:10307400DFE801F0050B1114171A1D202300ACEB37
:10308400020C34F81C50284630BDAB1A03F001037F
:10309400ED1AADB2F7E7103DADB2F4E7203DADB2A5
:1030A400F1E7303DADB2EEE71A3DADB2EBE70835DE
:1030B400ADB2E8E7503DADB2E5E7A5F5E355ADB2F5
:1030C400E1E77047D86D00081C6D00087047FEE703
:1030D400FEE7FEE7FEE77047704770477047000061
:1030E40082B00023019300932C4A136843F4803385
:1030F40013602A4B1B6803F400330093019B0133D4
:103104000193009B1BB9019BB3F5A06FF1D1234B35
:103114001B6813F4003F06D001230093009B012B8E
:1031240004D002B0704700230093F7E71C4B1A68E1
:1031340042F010021A601A6822F003021A601A6838
:1031440042F002021A60A3F580535A685A605A6822
:103154005A605A6842F480625A605A6822F47C12B7
:103164005A605A6842F4E8125A601A6842F080724F
:103174001A600A4B1B6813F0007FFAD0074B5A6899
:1031840022F003025A605A6842F002025A60034B6A
:103194005B6803F00C03082BF9D1C2E7001002406E
:1031A4000020024008B5FFF79BFF08BD08B5104B8F
:1031B4001A6842F001021A6059680E4A0A405A60BD
:1031C4001A6822F0847222F480321A601A6822F497
:1031D40080221A605A6822F4FE025A604FF41F02D9
:1031E4009A60FFF7DFFF044B4FF000629A6008BD5E
:1031F400001002400000FFF800ED00E008B502F006
:103204005FF9002008BD000070B50E461546002485
:1032140009E0074B1B8813F0400FFAD0315D0448D6
:10322400FDF7FFF90134AC42F3DB284670BD00BF63
:103234000038014030B589B01E4B186800230222C3
:103244001946806802F086FC01210420FDF7DEF8AF
:1032540001214FF48040FDF7D9F8174C23680793F8
:1032640063680693154D07A92846FDF7EBF806A9F0
:103274002846FDF7E7F80DF1080C04F108030FCB1D
:103284008CE80F0005F5405561462846FDF73EF9E8
:1032940001212846FDF79CF9012240F225512846D8
:1032A400FDF7A4F9A369019301A8FDF703F809B098
:1032B40030BD00BF04060020D86B000800080140A0
:1032C40010B540F225510748FDF7B3F900B910BD18
:1032D400044C2046FDF7A9F901462046FDF7A1F963
:1032E400F5E700BF0038014008B50A20FDF77EFB72
:1032F40001210D48FDF7FEF8012803D00120FDF758
:10330400BDF908BD094AD2F89431B3FA83F35B09D5
:10331400C2F8943102F5C032D2F89431B3FA83F38F
:103324005B09C2F89431E9E70008014000802142BA
:1033340008B50A20FDF75AFB08210848FDF7DAF81A
:1033440038B9074AD2F89431B3FA83F35B09C2F867
:1033540094310820FDF792F908BD00BF0018014020
:103364000000234208B50A20FDF740FB102108485D
:10337400FDF7C0F838B9074AD2F89431B3FA83F3A9
:103384005B09C2F894311020FDF778F908BD00BF3D
:10339400001801400080214208B5034B1878FDF75E
:1033A40073F9FDF779F908BD1800002008B501216B
:1033B4000948FDF781F9012800D008BD074AD2F871
:1033C4009431B3FA83F35B09C2F8943101210248C2
:1033D400FDF77EF9F1E700BF0004004000802142C0
:1033E40008B5244B1B7823B103212348FDF770F95A
:1033F40008BD01212048FDF75FF9012814D00221FE
:103404001D48FDF759F90128EED11C4B1B8813BB4D
:103414001B4B00221A60194B02221A80174B198881
:103424001548FDF73FF9DFE7144B1B88022BE6D163
:10343400134B1B68134A934203D80133104A136099
:10344400DDE70C4B01221A7000210C4B19800A484D
:10345400FDF728F9D3E7022BE0D10748FDF729F956
:10346400094B1880034B01221A70044B00221A8066
:10347400D4E700BF84060020000C00408C06002026
:10348400880600207F1A060086060020F0B587B063
:1034940001210820FCF7BAFF01214FF48040FCF71A
:1034A400C3FF03238DF816304FF42043ADF81430D6
:1034B40018238DF81730224C05A92046FCF7C2FFCB
:1034C4004FF48043ADF8143048238DF8173005A924
:1034D4002046FCF7B7FF4FF48057ADF81470102363
:1034E4008DF8173005A92046FCF7ACFF0126ADF88E
:1034F40008600223ADF806300723ADF8103000232E
:10350400ADF80430ADF80C30ADF80030ADF80E3045
:103514004FF48273ADF802304FF40073ADF80A3003
:10352400084D69462846FDF723F939462046FCF73D
:10353400E8FF31462846FDF742F907B0F0BD00BF69
:10354400000C01400038004070B505460E46C82402
:1035540002211948FDF746F970B9631E9BB20CB1FC
:103564001C46F5E7154B1868154B67221549C068CA
:1035740002F050FA01201DE031460F48FDF72DF905
:10358400C82401210C48FDF72DF970B9631E9BB2C4
:103594000CB11C46F5E7094B1868094B6922094927
:1035A400C06802F037FA012004E00348FDF717F978
:1035B4002870002070BD00BF0038004004060020C1
:1035C40018720008CC70000810B584B00146FF23BF
:1035D4008DF80F300DF10F00FFF7B6FF044610B958
:1035E400204604B010BD074B1B68D86804EB840266
:1035F400054B00937223054901EB8202044902F052
:1036040009FAEDE704060020047200081C000020FB
:10361400F470000810B582B0FF21FFF795FF04464F
:1036240010B9204602B010BD074B1B68D86804EBE4
:103634008402064B00937A23054901EB8202054973
:1036440002F0E8F9EDE700BF04060020EC71000881
:103654001C000020F470000810B584B04FF48051B1
:103664003A48FCF750FFAB20FFF7AEFF00BBFF204A
:10367400FFF7AAFF044668BBFF20FFF7A5FF044637
:10368400002836D1FF20FFF79FFF044600283FD1D2
:10369400FF238DF80F300DF10F00FFF7BBFF044639
:1036A400002844D14FF480512848FCF72AFF0EE04B
:1036B4000446274B1B68D86804EB8402254B00930F
:1036C4008323254901EB8202244902F0A3F9204611
:1036D40004B010BD1E4B1B68D86804EB84021D4B5C
:1036E400009384231C4901EB82021C4902F092F9E5
:1036F400EDE7174B1B68D86804EB8402154B009365
:103704008523154901EB8202144902F083F9DEE7AF
:103714000F4B1B68D86804EB84020E4B009386237E
:103724000D4901EB82020D4902F074F9CFE7084B11
:103734001B68D86804EB8402064B0093882306496F
:1037440001EB8202054902F065F9C0E7000C014073
:1037540004060020D87100081C000020F470000842
:1037640030B585B005464FF480513B48FCF7CBFE9D
:103774009F20FFF729FF40BB03A8FFF74BFF044638
:10378400002839D10DF10D00FFF744FF044600284D
:1037940041D10DF10E00FFF73DFF0446002849D149
:1037A4004FF480512C48FCF7ACFE9DF80C209DF89A
:1037B4000D301B0243EA02439DF80E201343274AAF
:1037C400934246D000232B700EE00446244B1B6822
:1037D400D86804EB8402234B00939223224901EB23
:1037E4008202224902F016F94FF480511A48FCF77C
:1037F40088FE204605B030BD194B1B68D86804EB21
:103804008402184B00939423174901EB8202174951
:1038140002F000F9E8E7124B1B68D86804EB840255
:10382400104B00939523104901EB82020F4902F0DB
:10383400F1F8D9E70A4B1B68D86804EB8402094BFA
:1038440000939623084901EB8202084902F0E2F84A
:10385400CAE701232B70C7E7000C0140182152006E
:1038640004060020C07100081C000020F470000849
:1038740010B582B04FF480510F48FCF744FE062087
:10388400FFF7A2FE044638B94FF480510A48FCF70A
:1038940038FE204602B010BD084B1B68D86804EB04
:1038A4008402074B0093A723064901EB82020649D1
:1038B40002F0B0F8E8E700BF000C01400406002065
:1038C400A87100081C000020F470000810B582B034
:1038D4004FF480510F48FCF716FE0420FFF774FEE6
:1038E400044638B94FF480510A48FCF70AFE2046D2
:1038F40002B010BD084B1B68D86804EB8402074B68
:103904000093B123064901EB8202064902F082F8D2
:10391400E8E700BF000C0140040600209071000895
:103924001C000020F470000830B583B004464FF446
:1039340080511948FCF7E7FD0520FFF745FE60B903
:103944002046FFF767FE0546B8B94FF48051124888
:10395400FCF7D7FD284603B030BD05460F4B1B6866
:10396400D86805EB85020E4B0093BB230D4901EB90
:1039740082020D4902F04EF8E7E7084B1B68D8684D
:1039840005EB8502064B0093BC23064901EB82023A
:10399400054902F03FF8D8E7000C01400406002076
:1039A4007C7100081C000020F470000800B583B08E
:1039B40002E00520FDF710F80DF10700FFF7B4FF52
:1039C4009DF8073013F0010FF3D1002003B05DF828
:1039D40004FB000030B583B0B0F1006F48D2054657
:1039E40042F21070FFF7E2FF044600284CD1FFF7C3
:1039F4003FFF044600285DD14FF480515A48FCF73C
:103A040082FD2020FFF7E0FD0446002861D1C5F3C4
:103A14000740FFF7D9FD0446002869D1C5F3072004
:103A2400FFF7D2FD0446002871D1E8B2FFF7CCFDC0
:103A3400044600287AD14FF480514B48FCF761FDCD
:103A4400FFF7B4FF044600287FD1FFF73FFF044689
:103A540040B3464B1B68D86804EB8402444B009384
:103A6400DD23444901EB8202434901F0D3FF19E00D
:103A74003E4B1B68D8683E4B0093D1233F4A3E49D6
:103A840001F0C8FF02240DE0384B1B68D86804EB32
:103A94008402374B0093D423364901EB8202364922
:103AA40001F0B8FF4FF480512F48FCF72AFD20465F
:103AB40003B030BD2D4B1B68D86804EB84022C4B3B
:103AC4000093D5232B4901EB82022B4901F0A2FF7D
:103AD400E8E7264B1B68D86804EB8402244B009368
:103AE400D723244901EB8202234901F093FFD9E74C
:103AF4001E4B1B68D86804EB84021D4B0093D8232B
:103B04001C4901EB82021C4901F084FFCAE7174BF0
:103B14001B68D86804EB8402154B0093D92315491C
:103B240001EB8202144901F075FFBBE70F4B1B68E0
:103B3400D86804EB84020E4B0093DA230D4901EBA1
:103B440082020D4901F066FFACE7084B1B68D86898
:103B540004EB8402064B0093DC23064901EB82024A
:103B6400054901F057FF9DE7000C014004060020C1
:103B7400647100081C000020F47000084400002058
:103B8400F0B583B08B18013BB3F1006F38D2074610
:103B94000E461546FFF70AFF044600283CD14FF4B1
:103BA40080516248FCF7AFFC0B20FFF70DFD044683
:103BB400002847D1C6F30740FFF706FD0446002856
:103BC4004FD1C6F30720FFF7FFFC0446002857D166
:103BD400F0B2FFF7F9FC0446002860D1FF20FFF79C
:103BE400F3FC0446002869D10026AE4280F08480AC
:103BF400B819FFF70FFD044600286ED10136F4E72B
:103C04004B4B1B68D8684B4B0093E7234A4A4B49FC
:103C140001F000FF02240DE0454B1B68D86804EB5B
:103C24008402444B0093EA23454901EB8202434951
:103C340001F0F0FE4FF480513C48FCF762FC204652
:103C440003B0F0BD3A4B1B68D86804EB8402394BCF
:103C54000093EC233A4901EB8202384901F0DAFE81
:103C6400E8E7334B1B68D86804EB8402314B0093BC
:103C7400ED23334901EB8202304901F0CBFED9E751
:103C84002B4B1B68D86804EB84022A4B0093EE2369
:103C94002B4901EB8202294901F0BCFECAE7244BFF
:103CA4001B68D86804EB8402224B0093EF23244959
:103CB40001EB8202214901F0ADFEBBE71C4B1B68FE
:103CC400D86804EB84021B4B0093F0231C4901EBDE
:103CD40082021A4901F09EFEACE7154B1B68D868B6
:103CE40004EB8402134B0093F323154901EB820286
:103CF400124901F08FFE9DE74FF480510B48FCF709
:103D040000FCFFF753FE0446002893D0084B1B68C1
:103D1400D86804EB8402074B0093F623084901EBAF
:103D24008202064901F076FE84E700BF000C0140E0
:103D3400040600205471000844000020F4700008B8
:103D44001C000020F0B585B08B18013BB3F1006F67
:103D540040D207460E46154601230370FFF726FEA0
:103D64000446002843D14FF480516A48FCF7CBFB4A
:103D74000B20FFF729FC044600284FD1C6F3074067
:103D8400FFF722FC0446002858D1C6F30720FFF7AA
:103D94001BFC0446002861D1F0B2FFF715FC044671
:103DA40000286BD1FF20FFF70FFC0446002875D1D3
:103DB4000026AE4280F094800DF10F00FFF72AFC3C
:103DC400044600287AD19DF80F30FF2B40F08680FE
:103DD4000136EEE7504B1B68D868504B00934FF404
:103DE40080734F4A4F4901F015FE02240EE04A4BFE
:103DF4001B68D86804EB8402484B00934FF4827329
:103E0400494901EB8202474901F004FE4FF4805115
:103E14004048FCF776FB204605B0F0BD3E4B1B68DE
:103E2400D86804EB84023D4B00934FF483733E49FE
:103E340001EB82023B4901F0EDFDE7E7364B1B68DD
:103E4400D86804EB8402354B009340F207133649DB
:103E540001EB8202334901F0DDFDD7E72E4B1B68ED
:103E6400D86804EB84022D4B00934FF484732E49DD
:103E740001EB82022B4901F0CDFDC7E7264B1B68FD
:103E8400D86804EB8402254B009340F209132649B9
:103E940001EB8202234901F0BDFDB7E71E4B1B680D
:103EA400D86804EB84021D4B00934FF485731E49BC
:103EB40001EB82021B4901F0ADFDA7E7164B1B681D
:103EC400D86804EB8402154B00934FF487731649AA
:103ED40001EB8202134901F09DFD97E700233B703B
:103EE4004FF480510B48FCF70CFBFFF75FFD0446D1
:103EF40000288BD0084B1B68D86804EB8402074B5E
:103F0400009340F21513084901EB8202054901F0C0
:103F140081FD7BE7000C014004060020407100088D
:103F240044000020F47000081C0000202DE9F04338
:103F340085B04318013BB3F1006F1BD204460E4613
:103F4400C0F30B05C5F580558D4228BF0D462A46A2
:103F540001460DF10F00FFF7F5FE8046C0B99DF84C
:103F64000F302BB32C44761B06F6FF794FEA193930
:103F740000274EE03C4B1B68D8683C4B009340F252
:103F84001F133B4A3B4901F045FD4FF0020834E062
:103F9400354B1B68D86808EB8802344B009340F219
:103FA4002513354901EB8202324901F033FD24E047
:103FB4002046FFF70FFD80460028D3D02A4B1B680C
:103FC400D86808EB8802294B009340F227132A494A
:103FD40001EB8202274901F01DFD0EE0224B1B6814
:103FE400D86808EB8802214B00934FF49773224959
:103FF40001EB82021F4901F00DFD4FF480511F486F
:10400400FCF77FFA404605B0BDE8F0832C44761BEC
:1040140001374F45F1D23546B6F5805F28BF4FF4DE
:1040240080552A4621460DF10F00FFF78BFE80468E
:104034000028D3D19DF80F30002BE7D12046FFF79D
:10404400C9FC80460028E1D0074B1B68D86808EB00
:104054008802064B00934FF49873074901EB8202E0
:10406400044901F0D7FCC8E70406002028710008C1
:1040740044000020F47000081C000020000C0140E3
:104084002DE9F04F83B08B18013BB3F1006F4BD295
:1040940007468A46164611465046FFF747FF044630
:1040A40000284ED1FFF7E4FB0446002861D15FFAF3
:1040B4008AF8C8F58078B04528BFB046FFF776FC8B
:1040C4000446002865D14FF48051B148FCF71BFA2F
:1040D4000220FFF779FA044600286AD1CAF30740A0
:1040E400FFF772FA0446002873D1CAF30720FFF7DA
:1040F4006BFA044600287CD15FFA8AF0FFF764FA71
:104104000446002840F085804FF00009C14580F046
:10411400A08017F80900FFF757FA0446002840F07A
:10412400888009F10109F1E79A4B1B68D8689A4B1A
:10413400009340F23D13994A994901F06BFC022423
:104144000EE0944B1B68D86804EB8402924B0093F6
:104154004FF4A073934901EB8202914901F05AFC98
:104164004FF480518A48FCF7CCF9204603B0BDE8EF
:10417400F08F884B1B68D86804EB8402864B00934D
:1041840040F24313874901EB8202854901F042FC66
:10419400E6E7804B1B68D86804EB84027E4B0093EF
:1041A4004FF4A4737F4901EB82027D4901F032FC94
:1041B400D6E7784B1B68D86804EB8402764B0093EF
:1041C4004FF4A573774901EB8202754901F022FC93
:1041D400C6E7704B1B68D86804EB84026E4B0093EF
:1041E40040F24B136F4901EB82026D4901F012FC5E
:1041F400B6E7684B1B68D86804EB8402664B0093EF
:104204004FF4A673674901EB8202654901F002FC91
:10421400A6E7604B1B68D86804EB84025E4B0093EE
:1042240040F24D135F4901EB82025D4901F0F2FB5C
:1042340096E7584B1B68D86804EB8402564B0093EE
:1042440040F24F13574901EB8202554901F0E2FB5A
:1042540086E74FF480514E48FCF753F9FFF7A6FB6D
:104264000446002848D1A6EB0806C24406F1FF0B19
:104274004FEA1B2B4FF00009D94580F0E080FFF78F
:10428400F7FA0446002847D1FFF790FB04460028BC
:1042940051D14FF480513E48FCF735F90220FFF725
:1042A40093F90446002855D1CAF30740FFF78CF967
:1042B400044600285DD1CAF30720FFF785F90446B8
:1042C400002871D15FFA8AF0FFF77EF904460028CE
:1042D40079D10025FF2D00F2958005EB09239E423C
:1042E40040F290804344F85CFFF76EF904460028DE
:1042F40078D10135ADB2EDE7264B1B68D86804EBE5
:104304008402254B00934FF4A973264901EB8202E2
:10431400234901F07FFB23E71E4B1B68D8681E4B23
:10432400009340F25B1314211E4A01FB04221C4932
:1043340001F070FB14E7174B1B68D868164B009309
:104344004FF4AE731421174A01FB0422144901F0FF
:1043540061FB05E70F4B1B68D8680F4B00934FF4C4
:10436400AF7314210F4A01FB04220D4901F052FBE3
:10437400F6E6084B1B68D868074B009340F25F13BE
:104384001421084A01FB0422054901F043FBE7E636
:10439400000C0140040600201871000844000020AD
:1043A400F47000081C0000202F4B1B68D8682F4BAA
:1043B40000934FF4B07314212D4A01FB04222D49BC
:1043C40001F028FBCCE6284B1B68D868274B0093E8
:1043D40040F261131421264A01FB0422254901F00D
:1043E40019FBBDE6204B1B68D86804EB84021F4B05
:1043F40000934FF4B3731E4901EB82021D4901F08F
:1044040009FBADE60AF5807A4FF480511A48FCF7AF
:1044140078F8FFF7CBFA044610B909F101092BE744
:10442400114B1B68D868114B00934FF4B5731421DA
:104434000F4A01FB04220F4901F0ECFA90E6FFF762
:1044440045FA044600283FF48BAE074B1B68D86836
:10445400064B00934FF4B7731421054A01FB042261
:10446400044901F0D7FA7BE604060020187100081D
:104474001C000020F4700008000C0140064B5B6B2C
:1044840013F0450FFAD0044B40F2FF529A63586977
:1044940000F00800704700BF00800140F0B58DB007
:1044A40007460C46164601210220FBF7A1FF1348DC
:1044B400FCF750F9124D00212846FCF72CF9114B5A
:1044C400019302970396A408049400230593802281
:1044D40006924FF4007207924FF400620892099317
:1044E4004FF400520A920B9301A92846FCF7F4F802
:1044F40001212846FCF70FF90DB0F0BD00F00010C3
:10450400440402408080014010B54FF4803400E040
:10451400013C24B18020FCF709FA0028F8D02CB122
:1045240040F2FF50FCF70CFA002010BD0320FCE71A
:1045340008B50F4B5A6B4FF4803312F0450F04D17A
:104544001BB1013B0A4A526BF7E73BB112F0040F6F
:1045540004D112F0400F06D1002008BD0420FCF75E
:10456400EFF90320F9E74020FCF7EAF90020F4E72B
:104574000080014008B50B4B5B6B01E0094B5B6BA2
:1045840013F0450FFAD013F0040F05D140F2FF5099
:10459400FCF7D6F9002008BD0420FCF7D1F903206C
:1045A400F9E700BF0080014008B50F4B5B6B01E0E9
:1045B4000D4B5B6B13F0450FFAD013F0040F08D1C9
:1045C40013F0010F0AD140F2FF50FCF7B9F90020B3
:1045D40008BD0420FCF7B4F90320F9E70120FCF737
:1045E400AFF90120F4E700BF0080014038B504466C
:1045F4000D461E4B5B6B01E01C4B5B6B13F0450FD0
:10460400FAD013F0040F08D113F0010F0AD1FCF70C
:104614005FF9A0420BD0102038BD0420FCF790F9BC
:104624000320F9E70120FCF78BF90120F4E740F2BD
:10463400FF50FCF785F90020FCF750F910F4604FA7
:104644000AD010F4005F0BD110F4804F0AD110F49B
:10465400004F09D10020DFE7000C28800020DBE7B1
:104664001320D9E71020D7E70F20D5E700800140B9
:1046740070B582B00C46002300930193524808227F
:1046840002601025456040228260C3604FF480635D
:104694000361FCF707F92846FFF7F0FE054610B161
:1046A400284602B070BD494B1B681B044648036092
:1046B40037254560402383600023C3604FF4806343
:1046C4000361FCF7EFF82846FFF7D8FE05460028FB
:1046D400E6D13F484FF0FF330360082343603023A3
:1046E40083600223C3600025056101234361FCF755
:1046F40001F9354805603326466040238360C56070
:104704004FF480630361FCF7CDF83046FFF7B6FE43
:1047140005460028C4D100262E4B5A6B40F22A636A
:104724001A420BD14FF40010FCF700F90028F3D023
:10473400FCF7F6F84DF826000136EDE70820FCF703
:10474400F5F858BB0220FCF7F1F860BB2020FCF719
:10475400EDF868BB4FF40070FCF7E8F868BB40F272
:10476400FF50FCF7EDF8009A130203F47F0343EAC9
:104774000263110A01F47F410B4343EA126363604D
:10478400019A130203F47F0343EA0263110A01F45A
:104794007F410B4343EA1263236081E70820FCF75F
:1047A400CFF804257CE70220FCF7CAF8022577E756
:1047B4002020FCF7C5F8062572E74FF40070FCF7DB
:1047C400BFF807256CE700BFA80600203C070020BF
:1047D400900600200080014010B582B004460020FD
:1047E40000900190FCF77AF810F0007F5CD16946E4
:1047F400314B1888FFF73CFF002856D1012C29D0F3
:10480400019B13F4803F54D02B4B1B681B042B4893
:10481400036037244460402383600023C3604FF463
:1048240080630361FCF73EF82046FFF727FE03464A
:1048340000283AD121480360062444604022826063
:10484400C3604FF480630361FCF72CF82046FFF744
:1048540015FE2AE0019B13F4802F28D0164B1B6809
:104864001B041648036037244460402383600023FC
:10487400C3604FF480630361FCF714F82046FFF72C
:10488400FDFD90B90D4802230360062444604023D3
:1048940083600023C3604FF480630361FCF702F874
:1048A4002046FFF7EBFD00E00E2002B010BD2520EE
:1048B400FBE72520F9E700BF3C070020A8060020FD
:1048C40030B583B031238DF8043002258DF80550BE
:1048D4008DF8065001248DF8074001A8FBF7EAFC87
:1048E40021464FF48060FBF783FD21462846FBF701
:1048F4007FFD21463020FBF789FD18238DF8033016
:1049040003238DF802304FF4F853ADF800306946B4
:104914000548FBF797FD0423ADF8003069460348CA
:10492400FBF790FD03B030BD0010014000140140BE
:1049340008B50022FFF7B2FD08BD08B51022FFF745
:10494400ADFD08BD82B001238DF807309DF8070046
:1049540002B0704770B55048B22303750024046058
:1049640044608460C4600461FBF756FF0320FBF7D6
:1049740071FF0120FBF768FF4848046044608460CD
:10498400C4604FF480630361FBF78CFFFFF7BCFD49
:10499400064608B1304670BD40484FF4D5730360F5
:1049A4000823436040238360C4604FF48063036141
:1049B400FBF778FFFFF7BCFDD8B9394B01221A6029
:1049C4004FF080453548002303603724446040227B
:1049D4008260C3604FF480630361FBF763FF20468A
:1049E400FFF74CFD06460028D4D1002004460246B9
:1049F40015E02A480025056037244460402383607D
:104A0400C5604FF480630361FBF74CFF2046FFF75A
:104A140035FDD7E7FBF762FF0246C00F013468BBE0
:104A24004FF6FE739C4229D81C48002303603726A6
:104A3400466040228260C3604FF480630361FBF7E9
:104A440031FF3046FFF71AFD06460028A2D145F093
:104A5400004343F480131148036029234360402337
:104A640083600023C3604FF480630361FBF71AFF84
:104A7400FFF780FD06460028CCD08BE74FF6FE7387
:104A84009C4206D812F0804F84D0054B02221A6053
:104A940080E71B267EE700BFBC060020A806002096
:104AA4006007002030B583B00123ADF80630FBF772
:104AB400DDFE002872D03A4B1B68042B23D1384BFF
:104AC4001B68012B03D9062B01D0022B13D13548C7
:104AD400002303600324446040228260C3604FF4D7
:104AE40080630361FBF7DEFE0DF106012046FFF74C
:104AF4007DFD044620B92A4B1B68042B26D10024D3
:104B0400204603B030BD27480023036002224260E0
:104B1400C0228260C3604FF480630361FBF7C2FE6E
:104B2400FFF742FD04460028EAD1FBF7D7FE1E4CEE
:104B340020600420FBF7D2FE60600820FBF7CEFE65
:104B4400A0600C20FBF7CAFEE060B8E7BDF80630B1
:104B5400164A13601B041348036009234360C023EF
:104B640083600023C3604FF480630361FBF79AFE04
:104B7400FFF71AFD04460028C2D1FBF7AFFE0C4D27
:104B840028600420FBF7AAFE68600820FBF7A6FE55
:104B9400A8600C20FBF7A2FEE860B1E72524AFE78C
:104BA40060070020A8060020400700203C070020E2
:104BB4005007002030B50346A44A106883F8560015
:104BC400A34A1288A3F85420A2490A68940F1C70BF
:104BD400C2F383645C70C2F301649C70C2F3074443
:104BE400DC70C2F307241C71D2B25A714A68110EE8
:104BF4000901D980D98889B2C2F303542143D980E9
:104C0400C2F303411972C2F30721C2F3C0345C72C8
:104C1400C2F380349C72C2F34034DC72C2F30034B9
:104C24001C7300245C73012823D9022863D1D2B2F7
:104C3400120402F47C121A61864A9168080E1A69F9
:104C440042EA00221A611869C1F3074202431A6159
:104C5400C1F307211A6901322CBF01200020C004CE
:104C640040EA5230D2049A64D8644FF400721A6550
:104C740041E0890201F4406119611969D2B241EA43
:104C840082021A61734A9268196941EA9271196140
:104C9400C2F3C2611975C2F302615975110CC2F3F2
:104CA40042509875C2F38240D875490001F006015C
:104CB4001976C2F30721187EC2F3C03202431A7672
:104CC4001C6901349C640022DA641A7E02320120D9
:104CD40000FA02F2D517A4FB022C04FB05C49A6463
:104CE400DC641D7AEDB2A8401865A2FB002500FB28
:104CF40004509A64D864C1F380125A76490001F0D2
:104D04007E0199765348027A997E41EAD2119976C6
:104D140002F07F02DA76C268110ED00F1877C2F360
:104D240041705877C2F382609877890001F00C01D2
:104D3400D977D97FC2F381500143D977C2F3405167
:104D440083F82010002083F82100C2F3004183F887
:104D54002210C2F3C03183F82310C2F3803183F8E8
:104D64002410C2F3403183F82510C2F3003183F8D4
:104D74002610C2F3812183F82710C2F3012183F89E
:104D84002810C2F3460283F829204FF0010C83F85F
:104D94002AC031490A68140E83F82C40C2F3074430
:104DA4002402DC85C2F30724B3F82EE01FFA8EFE3A
:104DB40044EA0E04DC8512061A634A68150E1C6B5D
:104DC40044EA05441C631C6BC2F3074544EA05240A
:104DD4001C631D6BC2F307242C431C63D2B283F8FB
:104DE40034208A68140E83F83540C2F3074424063D
:104DF4009C639C6BC2F3072E44EA0E449C639C6B39
:104E0400D2B244EA02229A63CA68996B41EA1261F7
:104E14009963110C93F83CE0C2F303544EEA040E78
:104E240083F83CE0090201F47061D987C2F30721D9
:104E3400B3F83EE01FFA8EFE41EA0E01D987C2F3B1
:104E4400460283F8402083F841C030BD600700204B
:104E54003C070020500700204007002010B51B4BE2
:104E64001B68032B2BD0022B2BD8B0F5805F2BD0E3
:104E7400B0F5006F10D00020FFF7AEFC044608BB6D
:104E84001348012303750023036043608360C360F8
:104E94000361FBF7C1FC15E00120FFF79DFC04460C
:104EA40080B90B48012303750023036043608360CA
:104EB4004FF40062C2600361FBF7AEFC02E02724FA
:104EC40000E00024204610BD2724FBE760070020F3
:104ED400BC06002010B5094B186007245C60402212
:104EE4009A600022DA604FF480621A611846FBF778
:104EF400D9FC2046FFF7C2FA10BD00BFA806002067
:104F040038B5FFF7DDFCFBF775FCFFF723FD04461E
:104F140008B1204638BDFFF7C5FD04460028F8D186
:104F24000F48012303750023036043608360C3605B
:104F34000361FBF771FC0B48FFF73CFE05460028B4
:104F4400E7D1084BB3F854000004FFF7C3FF04464D
:104F540008B12C46DDE74FF40060FFF77FFFD8E788
:104F6400BC060020D8060020F8B505460C460023F0
:104F74002E490B702E490B602E490B602E49CB62D3
:104F84002E4B1B68022B3ED016462D4B1B689A42B3
:104F940017D012B9531E1A4246D12A480660102768
:104FA4004760402383600023C3604FF48063036140
:104FB400FBF778FC3846FFF761FA074608BB204B3D
:104FC4001E6021484FF0FF330360466090238360E6
:104FD4000223C3600027076101234361FBF78AFCB6
:104FE400184804601124446040238360C7604FF470
:104FF40080630361FBF756FC2046FFF73FFA074640
:1050040028B13846F8BD640A4FF40072BCE70121A8
:105014004FF48070FBF732FC0120FBF73DFC314676
:105024002846FFF785FCECE72627EAE7340700204B
:10503400300700203807002000800140600700206E
:1050440064070020A8060020900600202DE9F04106
:1050540006460D461F460024324B1C70324B1C6022
:10506400324B01211960324BDC62324B1B68022B3C
:1050740043D01446304B1B689A4219D012B9531EC0
:105084001A424BD12D4804604FF01008C0F8048038
:10509400402383600023C3604FF480630361FBF704
:1050A40001FC4046FFF7EAF9804618BB224B1C601E
:1050B40023484FF0FF33036007FB04F4446090235C
:1050C40083600223C3600027076101234361FBF768
:1050D40011FC1A4805601225456040238360C760AF
:1050E4004FF480630361FBF7DDFB2846FFF7C6F945
:1050F400804630B14046BDE8F0816D0A4FF400723D
:10510400B7E701214FF48070FBF7B8FB0120FBF7F0
:10511400C3FB21463046FFF70BFCEBE74FF02608B4
:10512400E8E700BF340700203007002038070020DC
:10513400008001406007002064070020A8060020CA
:105144009006002008B50A48FBF7F2FA30B9094B7B
:105154001B681BB9084B1B78002BF4D0064B1B783B
:1051640003F0FF0003B908BD034B1878C0B2FAE797
:10517400002000103007002034070020F8B5054651
:105184000C4600232E490B702E490B602E490B60F0
:105194002E49CB622E4B1B68022B30D016462D4B6A
:1051A4001B689A4217D012B9531E1A4246D12A4894
:1051B400066010274760402383600023C3604FF4D8
:1051C40080630361FBF76EFB3846FFF757F9074628
:1051D40098B9204B1E602048046018244460402382
:1051E40083600023C3604FF480630361FBF75AFBC1
:1051F4002046FFF743F9074628B13846F8BD640A4C
:105204004FF40072CAE715484FF0FF33036046605D
:10521400902383600023C360036101244461FBF78E
:1052240069FB21464FF48070FBF728FB3146284682
:10523400FFF783FB2046FBF72FFBDEE72627DCE79F
:105244003407002030070020380700200080014088
:105254006007002064070020A806002090060020B4
:105264002DE9F04180460D461E460024454B1C7036
:10527400454B1C60454B01211960454BDC62454B95
:105284001B68022B34D01746434B1B689A4217D035
:1052940012B9531E1A4272D1404807601024446068
:1052A400402383600023C3604FF480630361FBF7F2
:1052B400F9FA2046FFF7E2F80446B0B9364B1F600E
:1052C400374B1B681B043548036037244460402374
:1052D40083600023C3604FF480630361FBF7E2FA49
:1052E4002046FFF7CBF8044630B12046BDE8F081F4
:1052F4006D0A4FF40072C6E728480660172444601C
:10530400402383600023C3604FF480630361FBF791
:10531400C9FA2046FFF7B2F804460028E5D11F4831
:10532400056019244460402383600023C3604FF464
:1053340080630361FBF7B6FA2046FFF79FF8044643
:105344000028D2D117484FF0FF33036006FB07F55E
:105354004560902383600023C36003610126466196
:10536400FBF7C8FA31464FF48070FBF787FA3046F2
:10537400FBF792FA29464046FFF7DFFAB5E7262401
:10538400B3E700BF340700203007002038070020AF
:10539400008001406007002064070020A806002068
:1053A4003C0700209006002010B50D48FBF7C0F91B
:1053B40030B90C4B1B681BB90B4B1B78002BF4D07A
:1053C400094B1B7803F0FF0423B1074B1C78E4B2AC
:1053D400204610BD40F2FF50FBF7B2FAF8E700BFD9
:1053E40000200010300700203407002010B50446C8
:1053F400074B1B681B04074A936040F24D43D3607C
:105404000D20FFF73BF810B9024B5B69236010BD18
:105414003C0700200080014000B583B000230193C5
:10542400FFF790FA012803D0FF2003B05DF804FBD6
:1054340001A8FFF7DBFF18B90198C0F34320F4E794
:10544400FF20F2E708B5FFF7E7FF042805D0FF289F
:1054540001D0012008BD0220FCE70020FAE700008B
:1054640008B5114B1B68012B11D0104B00221A7088
:105474004FF48070FBF76AFA00214FF48070FBF759
:10548400FDF90B4B01221A60084B187808BD094B33
:1054940000229A6040F24C42DA600C20FEF7EEFFE4
:1054A400024B1870E4E700BF3807002034070020DF
:1054B400300700200080014008B5FFF7D1FF08BD88
:1054C40030B591B0FDF7B6FE41F2380000F062F954
:1054D4000F90904D01222946FCF774FD8E4800F090
:1054E40031FB4FF4007000F055F904464FF400739B
:1054F400024600212846FDF751F9002837D12046FD
:1055040000F050F9012283490F98FCF75BFD034634
:1055140000283CD141F2280000F03CF904460B225B
:105524007E49FCF77BFD034600283FD17C4A0AAB49
:1055340007CA03C31A800023CDF83230CDF83630C1
:10554400ADF83A3009AB14220AA92046FCF753FF00
:105554000346002842D1099B142B4ED0714B186886
:10556400714B68227149C06800F054FA2CE003467C
:105574006C4A1268D06803EBC3036D4A02EBC303A1
:105584000093694B57226B4900F044FA20E0654AC6
:105594001268D06803EBC303654A02EBC3030093AC
:1055A400614B5922634900F035FA11E05D4A1268F3
:1055B400D06803EBC3035E4A02EBC30300935A4B68
:1055C40061225C4900F026FA14B1204600F0EAF8A2
:1055D4000F9808B100F0E6F811B030BD514A1268D6
:1055E400D06803EBC303524A02EBC30300934E4B50
:1055F4006622504900F00EFAE6E72046FDF748F827
:105604000346E8B94C4800F09DFA0122434920467C
:10561400FCF704FD034610BB03AB142204A9204687
:10562400FCF703FE034648BB039B142B35D03D4BCC
:1056340018683D4B77224149C06800F0EBF9C3E795
:10564400384A1268D06803EBC303394A02EBC30338
:105654000093354B6D22374900F0DCF9B4E7314A49
:105664001268D06803EBC303314A02EBC30300930F
:105674002D4B72222F4900F0CDF9A5E7294A126873
:10568400D06803EBC3032A4A02EBC3030093264BFF
:105694007522284900F0BEF996E72046FCF7F8FF8A
:1056A4000346C8B904A9264800F0E4F90FAA02A9E0
:1056B4001848FCF7FDFF0346E8B90F9AD369023B8B
:1056C400528902FB03F1029B03FB02F252084908D0
:1056D4001C4800F0CFF977E7124A1268D06803EB50
:1056E400C303134A02EBC30300930F4B7C221149FB
:1056F40000F090F968E70B4A1268D06803EBC30323
:105704000B4A02EBC3030093074B8222094900F0C2
:1057140081F959E730720008347200088872000871
:10572400F46B0008040600205C73000894720008FF
:10573400580000205C720008C8720008DC7200087F
:10574400107300082C7300080C480D490D4A0023FF
:1057540002E0D458C4500433C4188C42F9D30A4A22
:105764000A4C002301E013600432A242FBD3FDF78C
:105774001DFD00F0F7FBFDF741FD70470000002020
:1057840054060020B073000858060020B808002012
:10579400FEE70000024B0146186800F02DB800BF78
:1057A40004060020024B0146186800F00FBC00BF3D
:1057B4000406002070B50F4E0C463168054611B939
:1057C40000F0AEFB30602146284600F0A9FB431CE4
:1057D40003D14FF0FF34204670BDC41C24F00304F1
:1057E400A042F8D0211A284600F09AFB0130F2D1E9
:1057F400EFE700BF68070020F8B5CD1C25F00305CE
:1058040008350C2D38BF0C25002D064601DBA942B6
:1058140003D90C2333600020F8BD2E4F00F05CF850
:105824003B681C4634BB29463046FFF7C3FF431C84
:1058340004464DD13C682146002940D1002C41D07A
:1058440023683046E71800F06BFB87423AD123689F
:105854000335ED1A25F0030508350C2D38BF0C254A
:1058640030462946FFF7A6FF01302BD023682B448E
:1058740023600EE02268521B1ED40B2A16D961192C
:10588400A342256018BF5960636808BF396062513C
:105894004B60304600F026F804F10B00231D20F085
:1058A4000700C21A1CBF1B1AA350B5E76268A342C3
:1058B4000CBF3A605A60ECE723466468B2E70C46D2
:1058C4004968B9E70C233046336000F00BF8A2E7CF
:1058D4000560DEE76C070020014800F067BB00BFED
:1058E400B0080020014800F062BB00BFB0080020EF
:1058F400002310B50446C0E90033C0E904338360D3
:1059040081814366C2818361194608225C3000F0BC
:10591400BDFA054B24626362044BA362044BE36249
:10592400044B236310BD00BFC15C0008E35C0008A6
:105934001B5D00083F5D0008024A0349034800F06C
:105944007BB800BFF8050020216700080806002086
:1059540041680C4B10B59942044601D000F0DEFEBC
:10596400A168094B994202D0204600F0D7FEE168B5
:10597400064B994204D02046BDE8104000F0CEBE4C
:1059840010BD00BF70070020D80700204008002089
:1059940010B50B4B0B4C0C4A20461A600421002214
:1059A400FFF7A6FF04F1680001220921FFF7A0FF19
:1059B40004F1D0000222BDE810401221FFF798BF85
:1059C400A8080020700700203D590008014800F095
:1059D400EDBA00BFB1080020014800F0E8BA00BFEA
:1059E400B108002010B50446FFF7F0FF236A1BB18D
:1059F400BDE81040FFF7F0BF044B2362044B1B6863
:105A0400002BF5D1FFF7C4FFF2E700BF555900089A
:105A1400A80800200EB403B5014603AB054853F8AB
:105A2400042B0068019300F041FB02B05DF804EB25
:105A340003B07047040600202DE9F8430746884662
:105A440014460026D4E90195B9F1010905D5246865
:105A5400002CF7D13046BDE8F883AB89012B07D978
:105A6400B5F90E30013303D029463846C047064302
:105A74006835E9E70FB407B5064904AB086853F87D
:105A8400042B8168019300F011FB03B05DF804EB73
:105A940004B0704704060020036A70B505460E463C
:105AA40084680BB9FFF79EFF636EDB0705D4A389F7
:105AB400980502D4A06D00F079FAA389190702D5DC
:105AC4002369002B35D12146284600F079F980B3AB
