:020000040800F2
:1000000000000120C5420008B92C0008BB2C0008E4
:10001000BD2C0008BF2C0008C12C00080000000007
:10002000000000000000000000000000C32C0008D9
:10003000C52C000800000000C72C0008C92C0008CF
:10004000852F00080D4300080D4300080D430008EC
:100050000D4300080D430008D52E00080D4300088D
:100060000D4300081D2F0008512F00080D43000804
:100070000D4300080D4300080D4300080D43000820
:100080000D4300080D4300080D4300080D43000810
:100090000D4300080D4300080D4300080D43000800
:1000A0000D4300080D4300080D4300080D430008F0
:1000B0000D430008992F00080D4300080D43000868
:1000C0000D4300080D4300080D4300080D430008D0
:1000D0000D430008AD2E00080D4300080D43000835
:1000E0000D4300080D4300080D4300080D430008B0
:1000F0000D4300080D4300080D4300080D430008A0
:100100000D4300080D430008CD2F00080D430008E3
:100110000D4300080D4300080D4300080D4300087F
:100120000D4300080D4300080D4300080D4300086F
:1001300000000000000000000000000000000000BF
:1001400000000000000000000000000000000000AF
:10015000000000000000000000000000000000009F
:10016000000000000000000000000000000000008F
:10017000000000000000000000000000000000007F
:10018000000000000000000000000000000000006F
:10019000000000000000000000000000000000005F
:1001A000000000000000000000000000000000004F
:1001B000000000000000000000000000000000003F
:1001C000000000000000000000000000000000002F
:1001D000000000000000000000000000000000001F
:0401E0005FF8E0F1F3
:1001E4000348044B834202D0034B03B118477047C2
:1001F4005406002054060020000000000548064B69
:100204001B1AD90F01EBA301491002D0034B03B110
:1002140018477047540600205406002000000000D0
:1002240010B5064C237843B9FFF7DAFF044B13B13A
:100234000448AFF300800123237010BD540600204E
:10024400000000007854000808B5054B1BB10549AF
:100254000548AFF30080BDE80840FFF7CFBF00BFFB
:10026400000000005806002078540008C378F3B159
:10027400144BDB68DB43C3F30223C3F1040C0F21EB
:10028400D940427802FA0CF283780B4013431B01E5
:100294000278DBB20C490A4482F80033037803F095
:1002A4001F005B090122824041F823207047037834
:1002B40003F01F015B0901228A402033024941F8FF
:1002C4002320704700ED00E000E100E0042806D0A0
:1002D4004FF0E022136923F00403136170474FF0D9
:1002E400E022136943F004031361704710B4294BEF
:1002F4005B6803F00C03042B2BD0082B2CD013B118
:10030400254B036001E0244B036022494B68C3F38F
:100314000313224CE25CD2B20368D34043604A68C0
:10032400C2F30222A25CD2B223FA02F282604A68C9
:10033400C2F3C222A25CD2B2D340C3604A68C2F301
:10034400813217498A5CD2B2B3FBF2F3036110BC69
:100354007047114B0360D8E70E4A53685268C3F3E1
:100364008343023312F4803F04D10E4A02FB03F3A9
:100374000360CAE7074A526812F4003F04D0094AEE
:1003840002FB03F30360C0E7034A02FB03F30360C9
:10039400BBE700BF0010024000127A0004000020F6
:1003A4000000002000093D0021B1054A9369034380
:1003B40093617047024A936923EA0003936170478B
:1003C4000010024021B1054AD3690343D361704749
:1003D400024AD36923EA0003D36170470010024044
:1003E40030B5CB7803F00F02964613F0100F03D00C
:1003F40091F802E04EEA020E0B78FBB10568002387
:1004040001E042610133072B17D801229A40B1F869
:1004140000C032EA0C0CF5D19C004FF00F0C0CFA22
:1004240004FC25EA0C050EFA04F42543CC78282CA8
:10043400E7D0482CE6D10261E4E705600B88FF2B86
:1004440025D94568002303E0CC78482C1CD001331F
:10045400072B1BD803F1080C012202FA0CF2B1F8A5
:1004640000C032EA0C0CF2D19C004FF00F0C0CFAD5
:1004740004FC25EA0C0C0EFA04F444EA0C05CC78CE
:10048400282CE1D14261DFE70261E0E7456030BD3D
:100494008368194201D00120704700207047016130
:1004A400704741617047000030B587B004460D467F
:1004B400038A9BB2CA8823F440531343038283897B
:1004C4009BB2898828896A8901430A4323F4B0537B
:1004D40023F00C031343A381A38A9BB2AA8923F4B8
:1004E40040731343A38201A8FFF700FF1D4B9C42F6
:1004F40024D0039BA28912F4004F21D103EB830380
:1005040003EB83032A689200B3FBF2F3164AA2FBBF
:10051400031252091101642002FB1033A28912F460
:10052400004F16D11B0132330F4AA2FB0323C3F33E
:1005340043130B439BB2238107B030BD049BD9E71F
:1005440003EB830303EB83032A685200B3FBF2F348
:10055400DCE7DB003233044AA2FB0323C3F3421378
:100564000B43E7E7003801401F85EB5129B183892C
:100574009BB243F400538381704783899BB223F475
:1005840000539BB283817047C1F3421C01F01F01E9
:1005940001238B40BCF1010F08D0BCF1020F07D03E
:1005A40014303AB102681343036070470C30F8E723
:1005B4001030F6E7026822EA030303607047C1F3D0
:1005C4000801818070478088C0F308007047C1F338
:1005D400421201F01F0C012303FA0CF3012A0FD07D
:1005E400022A11D0828A92B21340090A012202FA25
:1005F40001F1028892B20A4053B15AB900207047FF
:10060400828992B21340F0E7028A92B21340ECE777
:100614000020704701207047014B5861704700BFAC
:100624000004014000F07F00014B1860704700BFD8
:10063400002C0040014B00229A607047002C0040BF
:10064400038C9BB223F002030B4303847047808E18
:1006540080B27047028A83890B40114202D01BB9D1
:10066400002070470020704701207047C94389B2B9
:10067400018270472DE9F041028802F441520F884B
:10068400B1F802808E88CD880C89B1F80AE0B1F8FF
:100694000CC0CB8947EA08073E4335432C434EEA56
:1006A400040E4CEA0E0C43EA0C0313430380838BC1
:1006B4009BB223F400639BB283830B8A0382BDE85D
:1006C400F08129B103889BB243F040030380704753
:1006D40003889BB223F040039BB20380704781815F
:1006E4007047808980B270470389194201D0012084
:1006F40070470020704730B44FF0E0235D699C6977
:100704001969586100229A611A6942F001021A615A
:100714004FF0E0231B6903F00113012BF8D04FF0D5
:10072400E0231A6922F001021A6100229A615D61D4
:100734009C61196130BC704708B56FF00400FFF785
:10074400C5FD084B1B68084AA2FB0323C3F34753A8
:10075400064A1370C3EB431203EB8203DA00044B23
:100764001A8008BD1400002083DE1B43720600209B
:100774007006002008B5034B1B7803FB00F0FFF75D
:10078400BAFF08BD7206002008B5034B1B8803FBA3
:1007940000F0FFF7B0FF08BD700600204278007833
:1007A40040EA02207047C378827842EA0322437801
:1007B40043EA0223007840EA032070470170090AE3
:1007C400417070470170C1F307234370C1F30743BD
:1007D4008370090EC17070470020704700B58646CB
:1007E400026812F8013B184613F0800F03D1CEF8CB
:1007F40000205DF804FB03F0E001C0290BD003F0F6
:10080400F001E02931D003F0F801F02931D103F0EF
:100814000700032102E003F01F00012113780132D5
:1008240003F0C00CBCF1800F26D103F03F0343EA70
:1008340080100139F2D17F2821D9A0F55843B3F5AE
:10084400006F1FD3B0F5881F1FD2B0F5803FCED301
:10085400A0F580330E4901EA8311C0F3090319435B
:1008640041F0584040F45C40C1E703F00F0002211E
:10087400D4E74FF0FF30BCE74FF0FF30B9E74FF05B
:10088400FF30B6E74FF0FF30B3E74FF0FF30B0E78B
:100894000000FF030239C369023B8B4204D9036B96
:1008A400428901FB023070470020704770B506464C
:1008B4000D4601F11A00FFF771FF3378032B00D0C6
:1008C40070BD044605F11400FFF768FF44EA0040D8
:1008D400F6E770B506460C46154691B204F11A00C7
:1008E400FFF76CFF3378032B00D070BD290C04F1A3
:1008F4001400FFF763FFF8E72DE9F84380460F463D
:1009040091464B730F23CB7200240C73214607F1DD
:100914001A00FFF753FF09F1FF3606EB460306EB17
:100924008306254602E001340C2C11D84FF6FF73E0
:100934009D4202D038F8165001360C4B185D2946FA
:100944003844FFF73BFF002DEDD14FF6FF75EAE782
:100954004FF6FF739D4202D038F816300BB949F0B8
:10096400400987F80090BDE8F88300BFC45500082B
:1009740001464FF00B0C0020C30143EA5003DBB2E5
:100984000A7801311344D8B2BCF1010CF4D1704798
:100994000146006820B30246137801321F2B01D9A7
:1009A4003A2BF9D13A2B01D0002070470378A3F1F8
:1009B400300C5FFA8CFCBCF1090F0ED80230904267
:1009C40002D04FF0FF307047A3F13000012802DD60
:1009D4004FF0FF3070470A6070474FF0FF307047A8
:1009E4004FF0FF30704738B50D46044698B10368A0
:1009F4009BB11A78A2B18188DA88914203D0092088
:100A040000242C6038BD587802F068F810F001001A
:100A140009D12468F5E70920F3E71C460920F0E72B
:100A240009200024EDE709200024EAE770B50579E0
:100A34000DB9284670BD044600F138060123426B07
:100A44003146407802F08FF8054688B900232371B7
:100A5400616BA36ACB1A226A9342EAD2E378022B2F
:100A6400E7D101230A443146607802F07CF8E0E7DC
:100A74000125DEE770B5436B8B4202D10026304678
:100A840070BD04460D46FFF7D1FF06460028F6D197
:100A940001232A4604F13801607802F04CF810B1C1
:100AA40001264FF0FF356563E9E7000038B50446D9
:100AB400002303714FF0FF334363FFF7DBFF00288C
:100AC4005CD104F23620FFF769FE054694F838300D
:100AD400EB2B09D0E92B07D0E82B05D04AF6552398
:100AE4009D4249D0032038BD4AF655239D4239D052
:100AF40004F14300FFF752FE94F84520431E1842C8
:100B0400ECD1B0F5007FE9D3B0F5805FE6D8002AD8
:100B1400E4D0531E1A42E1D104F14600FFF73EFE31
:100B24000028DBD094F84830013B012BD6D804F1DF
:100B34004900FFF733FE0028D0D004F14B00FFF743
:100B44002DFE7F2806D804F15800FFF72CFEB0F5DF
:100B5400803FC3D304F14E00FFF720FE0028BDD030
:100B64000020C0E70822064904F18A0003F03AFF96
:100B74000028BDD10020B6E70220B4E70420B2E784
:100B8400C054000870B584B006460D460021FFF736
:100B94008DFF022803D02BD855B3002400E0002495
:100BA400032C0ED806F13800230103F5E37318442F
:100BB400FFF7F9FD04AB03EB840343F8100C013495
:100BC400EEE70DB16C1E0AE02C4608E03046FFF754
:100BD4006DFF6DB901280BD90134032C08D804AB7F
:100BE40003EB840353F8101C0029EFD10320F0E732
:100BF40004B070BD2DE9F04F83B00D4616460023B6
:100C04000B60FFF7C5FE0028C0F24181B64B53F8D4
:100C14002040002C00F040812C6006F0FE06237872
:100C240073B1607801F05AFF10F0010508D1002E6D
:100C340000F02E8110F0040F00F02A810A2527E12C
:100C440000232370607801F060FF10F0010F40F082
:100C540025811EB110F0040F40F0228104F10C0232
:100C64000221607801F097FF0546002840F01A81C0
:100C7400A289A2F500739BB2B3F5606F00F21481F0
:100C8400531E1A4201D0012502E100212046FFF73C
:100C940079FF042800F00A81012800F20981D4F8C0
:100CA40034A004F14300FFF779FDA789B84240F06E
:100CB400018104F14E00FFF771FD064620B904F1ED
:100CC4005C00FFF770FD0646266294F84820E27047
:100CD400531EDBB2012B00F2EF8006FB02F30093FC
:100CE40094F84580A4F80A80B8F1000F00F0E6807B
:100CF40008F1FF3318EA030F40F0E28004F14900E1
:100D0400FFF74CFD814620814FEA571BB0FBFBF3F4
:100D14000BFB13039BB2002B40F0D48004F14B0077
:100D2400FFF73CFD019020B904F15800FFF73BFDAB
:100D3400019004F14600FFF731FD0146002800F060
:100D4400C380009BC318B9FBFBFB5B44019A9A4226
:100D5400C0F0BC80D21AB2FBF8F04245C0F0B880B3
:100D6400624A904206D84FF6F572904245D84FF049
:100D7400020801E04FF0000840F6F57290423FD9B6
:100D8400B8F1000F00F0A68000F1020BC4F81CB00B
:100D9400C4F824A001EB0A02A26253442363B8F10D
:100DA400030F30D0B9F1000F00F09A80009B1A4471
:100DB400E262B8F1020F37D00BEB4B020BF00103E8
:100DC40003EB52033B44013BB3FBF7F3B34200F2A2
:100DD40089804FF0FF33A361636180236371B8F1AD
:100DE400030F24D084F80080414A138801339BB256
:100DF4001380E3803F4B23614AE04FF00308BFE7D1
:100E04004FF00108C0E704F16200FFF7C7FC0028B7
:100E140062D1B9F1000F61D104F16400FFF7C3FCA2
:100E2400E0624FEA8B03CDE74FEA4B03CAE704F1D4
:100E34006800FFF7B3FC0128D4D10AF10101204670
:100E4400FFF718FE0028CDD10023637104F2362089
:100E5400FFF7A4FC4AF655239842C3D104F13800A5
:100E6400FFF7A1FC244B9842BCD104F50770FFF7AF
:100E74009AFC224B9842B5D104F50870FFF793FC15
:100E8400A06104F50970FFF78EFC6061AAE70B25E9
:100E9400284603B0BDE8F08F0C25F9E70325F7E7F2
:100EA4000A25F5E70125F3E70125F1E70125EFE739
:100EB4000D25EDE70D25EBE70D25E9E70D25E7E722
:100EC4000D25E5E70D25E3E70D25E1E70D25DFE732
:100ED4000D25DDE70D25DBE70D25D9E70D25D7E742
:100EE4000D25D5E70D25D3E778080020F5FFFF0F82
:100EF40074080020740600205252614172724161EC
:100F04002DE9F047012940F2958004460D46174625
:100F1400C3698B4240F290800378022B4ED0032B9E
:100F240066D0012B03D002263046BDE8F08701EBE2
:100F34005108816A8389B8FBF3F31944FFF79AFDDA
:100F440006460028F0D104F1380A08F10109A38902
:100F5400B8FBF3F203FB128815F0010524D01AF84C
:100F640008303A0102F47F6203F00F031343DBB24B
:100F74000AF8083001232371A16AA389B9FBF3F3AA
:100F840019442046FFF776FD06460028CCD1A389F4
:100F9400B9FBF3F203FB129945B1C7F307130AF83F
:100FA400093001232371BFE7FBB2E1E71AF80930E6
:100FB400C7F3032223F00F031343F0E7816A838905
:100FC4005B08B5FBF3F31944FFF754FD064600280C
:100FD400AAD104F138006D00A389B5FBF3F203FB39
:100FE4001255B9B22844FFF7E9FB012323719BE7AB
:100FF400816A83899B08B5FBF3F31944FFF73AFD33
:101004000646002890D127F0704704F13803AD005C
:10101400A289B5FBF2F102FB11551D442846FFF7E6
:10102400C2FB00F0704139432846FFF7CBFB012394
:10103400237179E7022677E7022675E7F8B5056894
:1010440001296CD90C46EB698B426AD92B78022BA7
:1010540037D0032B4BD0012B01D0012060E001EBF2
:101064005106A96AAB89B6FBF3F319442846FFF786
:1010740001FD10B14FF0FF3052E0771CAB89B6FB95
:10108400F3F203FB12662E4496F83860A96AB7FBA4
:10109400F3F319442846FFF7EDFC002843D1AB894C
:1010A400B7FBF3F203FB12772F4497F8383046EA84
:1010B400032014F0010F01D0000931E0C0F30B004C
:1010C4002EE0A96AAB895B08B4FBF3F31944284604
:1010D400FFF7D0FC50BB05F138006400AB89B4FBCA
:1010E400F3F203FB12442044FFF758FB18E0A96A0B
:1010F400AB899B08B4FBF3F319442846FFF7BAFC09
:10110400B8B905F13800A400AB89B4FBF3F203FBD2
:1011140012442044FFF747FB20F0704000E0012018
:10112400F8BD0120FCE74FF0FF30F9E74FF0FF3046
:10113400F6E74FF0FF30F3E72DE9F041D0F80080F7
:10114400B1F5001F49D207460E4611F01F0F47D1D3
:10115400016184681CBB98F80030022B01D9D8F8CF
:101164002C40E4B9B8F80830B3EB561F3AD9D8F894
:101174002C30BB617C61BB69E3B3B8F80C20B6FBCF
:10118400F2F21344BB6108F13803B8F80C20B6FB43
:10119400F2F102FB11610B44FB6100201EE0B8F880
:1011A4000A50B8F80C3003FB05F5AE420FD32146C4
:1011B4003846FFF743FF0446B0F1FF3F14D001283F
:1011C40014D9D8F81C30834212D9761BEDE7214696
:1011D4004046FFF75FFBB861CCE70220BDE8F08131
:1011E4000220FBE70220F9E70120F7E70220F5E7F8
:1011F4000220F3E70220F1E72DE9F84306460768E9
:10120400884631B97D698DB1FB69AB420FD80125A0
:101214000DE0FFF713FF0346012878D9B0F1FF3F33
:101224006FD0FA6982426CD8454600E00125BB695B
:10123400002B66D0454506D04FF00009B9F1000FE8
:101244003AD12C462FE005F10109FB694B4501D841
:101254004FF0020949463046FFF7F0FE03460128E5
:101264004FD0B0F1FF3F4CD00028E7D07B69012B71
:1012740005D9FA699A4205D84FF00009DEE74FF024
:101284000009DBE71D464FF00009D7E72146304649
:10129400FFF7D4FE034670B1012832D0B0F1FF3F0E
:1012A4002FD0AC4237D00134FB69A342EED8012DD4
:1012B4002FD90224EAE7A1464FF0FF3249463846C7
:1012C400FFF71EFE0346C8B9B8F1000F0FD1ABB942
:1012D400C7F81490BA69FB69023B9A4201D8013AF3
:1012E400BA617B7943F001037B714B4609E04A46BE
:1012F40041463846FFF704FE0346E8E7012B03D0D6
:1013040001231846BDE8F8834FF0FF33F9E70123C2
:10131400F7E74B46F5E74B46F3E7F8B50C460568A7
:1013240001292ED906461146EB69A3422BD94AB1AD
:101334004FF0FF322846FFF7E3FD074610B123E0E4
:10134400A24221D9274621463046FFF777FE0446BC
:10135400E0B101281CD0B0F1FF3F1BD00022394678
:101364002846FFF7CDFD074670B9AB69EA69911EBF
:101374008B42E5D20133AB616B7943F001036B71AE
:10138400DEE7022700E002273846F8BD0027FBE726
:101394000227F9E70127F7E7F8B505460C46FFF7FA
:1013A40045FB08B10120F8BD21462846FFF772FA33
:1013B4000646686305F138074FF480520021384629
:1013C40003F020FB002400E001346B89A34207D919
:1013D4000123A2193946687801F0C5FB0028F3D02F
:1013E4006889001B18BF0120DDE72DE9F04105469F
:1013F4000F46066804692034B4F5001F01D30023A6
:101404008361AB69002B4ED0B189B4FBF1F201FBCF
:1014140012423AB90133AB616969A1B93389B3EBBB
:10142400541F0CD92C6106F13803B289B4FBF2F1D4
:1014340002FB11442344EB610020BDE8F08100234A
:10144400AB610420F9E7B289B4FBF2F27389013B82
:101454001A42E7D12846FFF7F1FD8046012824D936
:10146400B0F1FF3F23D0F369834210D8BFB169695B
:101474002846FFF7C1FE8046D8B101281BD0B0F141
:10148400FF3F1AD001463046FFF786FFB8B9C5F8CA
:10149400148041463046FFF7FDF9A861C2E70023F6
:1014A400AB610420C9E70420C7E70220C5E7012097
:1014B400C3E70720C1E70220BFE70120BDE7012001
:1014C400BBE7F8B504460E4607680021FFF734FE73
:1014D4000246C0B9002508E00135B54213D0012108
:1014E4002046FFF782FF024668B9A1693846FFF734
:1014F400C1FA024638B9E3691B78E52BECD0002B1E
:10150400EAD00025EBE7042A01D01046F8BD0722F3
:10151400FBE7000070B50446FFF788FA054648B9B2
:101524002378032B08D000221146607801F033FBA6
:1015340000B10125284670BD6379012BF3D104F174
:1015440038064FF480520021304603F05BFA4AF625
:10155400552104F23620FFF731F90F493046FFF7E1
:1015640031F90E4904F50770FFF72CF9A16904F568
:101574000870FFF727F9616904F50970FFF722F98C
:10158400626A0132626301233146607801F0EBFA4A
:1015940000236371C7E700BF525261417272416117
:1015A4002DE9F04F85B001908B4600929A4603AA2C
:1015B400012101F0F0FA002840F08880DDF80C8069
:1015C400082444B1B8FBF4F24FF63E439A4202D9E0
:1015D4006400E4B2F5E704B9FF244FF4805200211B
:1015E400504603F00FFA0AF5DF763F254FF0000965
:1015F40045E0474654E0A8EB0507002F56D029469E
:1016040006F10800FFF7DEF8394606F10C00FFF793
:10161400D9F8009B33712F4AA2FB0513E91A03EB97
:1016240051035B09B3FBF4F104FB1130C3EB8313E7
:10163400EB1ADBB20133DBB27070880800F0C00033
:101644000343B370F1703D446B1EA2FB0312991A5D
:1016540002EB51025209B2FBF4F104FB1120C2EB7C
:1016640082129B1ADBB20133DBB270718A0802F07A
:10167400C0021343B371F171103609F10109B9F1D4
:10168400030F13D895B1454510D25BF82970642F28
:1016940006D8AED0104BA3FB08235B0903FB07F766
:1016A400EB194345A7D8AB42A7D2A4E74AF6552184
:1016B4000AF5FF70FFF782F80123002251460198D2
:1016C40001F051FA20B905B0BDE8F08F0120FAE726
:1016D4000120F8E7054110041F85EB512DE9F04F77
:1016E40085B0074689460B68039303681D69002487
:1016F40005E0FE2C00F21C8125F81460013403A8D7
:10170400FFF76CF8B0F1FF3F00F01081B0F5803FB7
:1017140003D3030C25F81430013486B21F2E0DD9DF
:101724002F2E0BD05C2E09D07F2EE2D83146814873
:1017340003F070F90028DCD006209CE01F2E07D8A7
:101744004FF00408039BC9F8003010E00133039301
:10175400039B1A782F2AF9D05C2AF7D01F2A02D9C2
:101764004FF00008EEE74FF00408EBE7013C44B10A
:1017740004F10043013B35F81330202BF6D02E2B17
:10178400F4D0002325F8143014B9062073E0013393
:1017940035F81320202AFAD00BB92E2A01D148F0AB
:1017A400030844B104F10042013A35F812202E2A0C
:1017B40001D0013CF5E74FF020323A627A62C7F873
:1017C40027204FF0080B4FF0000ACDF800A003F1DA
:1017D400010935F8136056B3202E1BD02E2E17D0D6
:1017E400DA451BD24C4519D07F2E54D82EB1314640
:1017F400514803F00FF9002879D048F003085F2618
:1018040007EB0A0383F820604B460AF1010ADEE77E
:101814004C45E5D048F003084B46D8E7BBF10B0F25
:101824002CD04C4501D048F003084C4529D297F8F8
:101834002030E52B71D0BBF1080F72D0009A02F072
:101844000C030C2B03D002F00303032B01D148F04B
:10185400020818F0020F0BD1009B13F0010F01D006
:1018640048F01008009B13F0040F01D048F008085A
:1018740087F82B80002005B0BDE8F08F48F00308FE
:10188400D5E7009B9B00DBB2009323464FF00B0B84
:101894004FF0080A9BE748F00203019340F2B511A8
:1018A400304601F097F9064610F0800F06D000F09C
:1018B4007F06224B9E5DDDF8048097E7FF2813D94D
:1018C4000BF1FF3353450AD9C0F3072307EB0A0290
:1018D40082F820300AF1010ADDF8048090E748F02C
:1018E40003084B46DA4672E7DDF804807EE7A6F18A
:1018F40041039BB2192B03D8009B43F002030093CE
:10190400A6F161039BB2192B3FF67AAF009B43F01B
:1019140001030093203EB6B272E7052387F8203016
:1019240089E7009B9B00DBB2009387E70620A2E7D0
:101934000620A0E7CC540008D854000844550008F9
:101944002DE9F04781460F4601F11A00FEF726FF04
:10195400C8BB3E7806F03F06013E06EB460306EBA5
:1019640083064FF00108002506E000202CE04FF626
:10197400FF7398422AD101350C2D18D8174B585DA6
:101984003844FEF70BFF0446B8F1000FEFD0FF2EEA
:10199400EBD801F03FF9804606F1010A39F8160048
:1019A40001F038F98045E0D1A0465646E3E73B789C
:1019B40013F0400F0CD0B8F1000F0BD039F81630EB
:1019C40053B9012000E00020BDE8F0870020FBE7C8
:1019D4000120F9E70120F7E70020F5E7C4550008E6
:1019E4002DE9F8430446D0F800800021FFF7A4FB5A
:1019F4000646002864D14FF0FF33E3624FF0FF093D
:101A04004F460AE04FF0FF33E362FF2700212046F0
:101A1400FFF7EBFC0646002852D1A1694046FFF7C8
:101A240029F8064600284BD1E5692B78002B46D0CF
:101A3400EA7A02F03F01A171E52BE3D012F0080F1E
:101A440014D00F29DED194F82B2012F0400FDDD1F1
:101A540013F0400F06D095F80D9003F0BF032269F0
:101A6400E2621F46BB421AD0FF27CFE70F29EAD014
:101A740027B92846FEF77CFF484521D094F82B303F
:101A840013F0010F06D10B2204F12001284602F0C5
:101A9400A9FFA8B14FF0FF33E362FF27B6E76B7BE2
:101AA4004B4501D0FF27B1E72946D8F81000FFF7CE
:101AB40047FF10B1013FFFB2A8E7FF27A6E70426BE
:101AC4003046BDE8F88330B583B00446019105681B
:101AD40001E001330193019B1A782F2AF9D05C2A83
:101AE400F7D00022A2601B781F2B21D901A9204620
:101AF400FFF7F4FD034618BB2046FFF771FF94F887
:101B04002B200346F8B912F0040F19D1A37913F06E
:101B1400100F1FD005F138012369AA89B3FBF2F035
:101B240002FB103319442846FEF7C0FEA060DDE72F
:101B3400802384F82B3011462046FFF7FDFA034634
:101B4400184603B030BD0428FAD112F0040FF7D1BF
:101B54000523F5E70523F3E7F0B583B006460C68E3
:101B64004868346070600889897A3081B172052BC5
:101B740013D8072722E00CF1010CBCF10F0F0CD88D
:101B840001F0010E0EEB4303490813F4803FF2D039
:101B940083F4883383F02103EDE711880029E8D02A
:101BA40002324FF0000CE8E707F10801694401F83C
:101BB400082C7D1E0DD00F280BD92F4603F00F01E2
:101BC40001F1300218461B09392AEDD901F1370217
:101BD400EAE77E2205F108036B4403F8082C00248D
:101BE40000E00134AC4211D2305D20280ED0FEF763
:101BF400F3FD0028F5D0BB1EA34207D00134F0E763
:101C04002022631C3255072B09D81C46072DF7D810
:101C140005F108036B4413F8082C0135F1E703B010
:101C2400F0BD00002DE9F04184B0076890F82B5016
:101C340015F0A00F40F08D800646002400E001342A
:101C44003B6933F81430002BF9D101AB306A716A67
:101C5400B26A07C315F0010F1DD0402386F82B305C
:101C6400012500E00135632D0CD82B463A6901A902
:101C740006F12000FFF770FF3046FFF7B1FE804603
:101C84000028EFD0642D6AD0B8F1040F63D19DF819
:101C94000F3086F82B309DF80F3013F0020F06D06A
:101CA4000C34304BA3FB0434A408013400E00124B9
:101CB40021463046FFF705FC804600284BD1013C05
:101CC40021D1B8F1000F46D1B1693846FEF7D2FEF2
:101CD400804600283FD120220021F06902F092FEC4
:101CE400F369316A726A19605A60318D96F82A2054
:101CF40019819A7296F82B30F26903F01803137362
:101D040001233B7127E03169A1EB44113046FFF711
:101D140013FA8046F8B906F12000FEF729FE0546BD
:101D2400B1693846FEF7A6FE80460028C9D12B4685
:101D3400E2B2F1693869FEF7DFFD01233B7100214E
:101D44003046FFF752FB80460028BAD1013CE7D168
:101D5400B7E74FF00608404604B0BDE8F0814FF005
:101D64000708F8E74FECC44E10B584B00190009119
:101D74001446039103A8FEF70BFE00281CDB0F4B4F
:101D840053F8203023B100220C4941F820201A7066
:101D9400019B3BB15870019B00221A70074B019ABA
:101DA40043F8202014B9204604B010BD002201A934
:101DB4006846FEF71FFFF7E70B20F5E778080020D9
:101DC4002DE9F04790B00191002800F0F980144605
:101DD400064602F03F073A4603A901A8FEF70AFFA8
:101DE400054628B100233360284610B0BDE8F087CB
:101DF400039B0493019904A8FFF765FE054618B9EF
:101E04009DF93B30002B47DB14F01C0F55D0002DFF
:101E140049D0042D42D047F00807002DE2D117F035
:101E2400080F5AD000F0D3FE044601460B980E303A
:101E3400FEF7C8FC21460B981630FEF7C3FCDDF80C
:101E44000C80DDF82C9049464046FEF72FFD0446F1
:101E5400202389F80B3000220B994046FEF739FD08
:101E640000210B981C30FEF7ADFC039B01221A7174
:101E74009CB3D3F834800022214604A8FFF74DFA1E
:101E840005460028AED141460398FEF7F3FD05460A
:101E9400013C039B5C6120E00625B5E704A8FFF73D
:101EA400C1FE0546B7E79DF8163013F0110F13D1A4
:101EB40014F0040FB1D0082594E7002D92D19DF8B9
:101EC400163013F0100F77D114F0020F05D013F071
:101ED400010F02D0072585E70725002D82D117F0D1
:101EE400080F01D047F04007DDF80CA0DAF83430D1
:101EF4003362DDF82C80C6F8248041465046FEF754
:101F0400D5FC0446B06008F11C00FEF74CFC80468A
:101F1400F060C6F800A0BAF80630B3803774002128
:101F24007174F161716106F128094FF480524846D9
:101F340002F068FD17F0200F3AD0B8F1000F37D047
:101F4400C6F81480BAF80A70BAF80C3003FB07F725
:101F540002E00225A8EB07086DB9B8450BD9214664
:101F64003046FFF76BF804460128F2D9B0F1FF3F81
:101F7400F0D10125EEE7B461002D7FF433AF039F68
:101F8400B7F80CA0B8FBFAF30AFB138383B121461C
:101F94003846FEF77FFC08B9022523E7B8FBFAF2BE
:101FA4000244F26101234946787800F0C4FD28B95F
:101FB400002D3FF419AF15E7042513E7012511E7B8
:101FC400092511E72DE9F04F85B004460F46154663
:101FD40098460023C8F8003003A9FEF704FD0190D9
:101FE400002840F0B380637C0193002B40F0AE8066
:101FF400237C13F0010F00F0C880E6686369F61AC9
:10200400AE4261D32E465FE0A1692046FFF716F881
:102014006EE04FF0020A84F811A0CDF804A095E018
:102024004FF0010A84F811A0CDF804A08EE04FF01F
:10203400020A84F811A0CDF804A087E094F91030C6
:10204400002B04DB039B9D890AFB05F532E0E36961
:10205400A3EB09035345F5D2039A928904F12801AD
:1020640002FB037002F060FDECE7E2694A450DD023
:1020740094F91030002B6DDB01234A4604F128014A
:102084000398407800F057FD002877D1C4F81C90DD
:10209400039B9D896369B3FBF5F205FB1233ED1ACB
:1020A400AE4200D2354604F128012A461944384686
:1020B40002F03AFD761BD8F800302B44C8F8003003
:1020C4002F4463692B446361002E3FD062690399F6
:1020D4008D89B2FBF5F305FB1323002BD8D1B2FB9A
:1020E400F5F54B89013B1D4008D1002A8CD1A0682D
:1020F40001288ED9B0F1FF3F92D0A061DDF80CB079
:10210400A1695846FEF7C6FB814600288FD0A94432
:10211400BBF80C30B6FBF3FAB342A6D805EB0A03BE
:10212400BBF80A20934201D9A2EB050A53464A465A
:1021340039469BF8010000F0FEFC00283FF47EAF16
:102144004FF0010A84F811A0CDF804A0019805B05D
:10215400BDE8F08F012304F128019BF8010000F091
:1021640002FD20B9237C03F07F03237484E74FF03E
:10217400010A84F811A0CDF804A0E7E74FF0010AA2
:1021840084F811A0CDF804A0E0E707230193DDE76C
:102194002DE9F04F85B004460F46154698460023B6
:1021A400C8F8003003A9FEF71EFC0190002848D1AE
:1021B400637C0193002B44D1237C13F0020F00F0C5
:1021C400E6806369EB42C0F0AF80DD43ACE0A16917
:1021D4002046FFF711F8002800F0D480012834D0FD
:1021E400B0F1FF3F38D0A061A36803B9A06094F9AF
:1021F4001030002B37DBDDF80CB0A1695846FEF730
:1022040049FB8146002843D0B144BBF80C30B5FBF0
:10221400F3FAAB425AD806EB0A03BBF80A209342FE
:1022240001D9A2EB060A53464A4639469BF80100F7
:1022340000F099FC98B34FF0010A84F811A0CDF88E
:1022440004A0019805B0BDE8F08F4FF0020A84F8AD
:1022540011A0CDF804A0F4E74FF0010A84F811A00E
:10226400CDF804A0EDE70123E26904F12801039805
:10227400407800F078FC20B9237C03F07F032374BA
:10228400B9E74FF0010A84F811A0CDF804A0D8E70B
:102294004FF0020A84F811A0CDF804A0D1E7E36955
:1022A400A3EB0903534504D3039B9E890AFB06F65B
:1022B4002BE0039A928902FB037104F1280002F0D7
:1022C40033FC237C03F07F032374EDE7E3694B4580
:1022D40003D06269E3689A4243D3C4F81C90039B19
:1022E4009E896369B3FBF6F206FB1233F61AB54214
:1022F40000D22E4604F1280032463946184402F032
:1023040013FC237C63F07F032374AD1BD8F80030E7
:102314003344C8F800303744636933446361E26886
:10232400934238BF1346E36065B3626903998E89AB
:10233400B2FBF6F306FB1323002BD0D1B2FBF6F667
:102344004B89013B1E407FF452AF002A7FF43FAF1C
:10235400A06800287FF442AF00212046FEF74CFF1E
:1023640039E701234A4604F128019BF8010000F0F3
:10237400E2FB0028B1D04FF0010A84F811A0CDF897
:1023840004A05EE7237C43F04003237459E707234A
:10239400019356E770B582B0044601A9FEF723FB0A
:1023A40070B9237C13F0400F0AD013F0800F09D1C9
:1023B40000F00DFC0546216A0198FEF75BFB78B13D
:1023C40002B070BD0123E26904F12801019840784C
:1023D40000F0C9FB38BB237C03F07F032374E7E7D9
:1023E400666AF37A43F02003F372A26831462068E8
:1023F400FEF76FFAE16806F11C00FEF7E3F92946DF
:1024040006F11600FEF7DEF9002106F11200FEF7D0
:10241400D5F9019801230371FFF77CF8237C23F09D
:1024240040032374CCE70120CAE710B582B0044608
:10243400FFF7B0FF08B102B010BD01A92046FEF7B6
:10244400D2FA0028F7D12060F5E700002DE9F04F1B
:1024540091B009900E4601921F4609A8FEF798FA1A
:102464000028C0F20483B54B53F820300BB100228E
:102474001A70C4B2204600F048FB10F0010F40F07F
:10248400F88210F0040F40F0F882002E3AD07368FE
:102494000E93002B38D00E9A531EB3F5004F01D281
:1024A4001A4201D001230E930DF13E02022120466F
:1024B40000F071FB002840F0E282BDF83E30A3F545
:1024C400007292B2B2F5606F00F2DB825A1E1342C0
:1024D40040F0D982357871784A1ED2B2012A19D9CE
:1024E4004FF0010BD6F8089009F1FF32B2F5004F16
:1024F40012D25909B9FBF1F201FB129272B14FF4F5
:1025040000790BE08E4EC2E70EAA0321204600F0AC
:1025140042FBC0E78B46E5E74FF40079F668B6F175
:10252400807F04D8721E164202D0002600E00026E6
:10253400B6FBF3F6B7FBF3F20392BB4200F2A582BB
:10254400019B002B00F0A38200230D930DAA01210F
:10255400204600F020FB002840F09B8215F0080381
:10256400059308D10D9B3F2B40F284803F3B0D9394
:102574003F23029301E0002302930D9B7F2B40F243
:102584008A82802E00D9802615F00203049302D09B
:1025940015F0010F71D015F0010F00F07E824FF09D
:1025A400020A00F014FB0D9943180693BAF1030FC5
:1025B4006BD0002E00F08E803746B1FBF7F340F667
:1025C400F572934240F295809D1C6D00BDF83E303B
:1025D4001D44013DB5FBF3F54FEA491CBCFBF3FC7C
:1025E4000120029B00EB030E0BFB05E26244DDF8C5
:1025F400388008EB0203013BC8F1000803EA080332
:102604009B1ABAF1030F7CD0B3FBFBF80BFB183811
:10261400B8F1000F03D0013B01300EF1010EB3FB02
:10262400FBF31D4402EB0712029BD21A9142C0F045
:102634004582A1EB00080BFB1588A8EB0C08B8FB3E
:10264400F7F8BAF1030F5FD0BAF1020F40F08080BF
:102654004FF6F573984564D916B97B00402B0FD912
:10266400049B7BB9002E40F02D827E00802E9DD9E4
:102674000E20FFE1002302937FE74FF0030A90E767
:102684001E4693E74FF0030A90E7AEB13746B1FB1D
:10269400F7F39D1CBDF83E2002EB8505013DB5FB1B
:1026A400F2F5A3F57F43F63B264A934200F20482F7
:1026B4004FF0000C202094E7480C3246012701E03B
:1026C40001327F00204B33F81230002BDFD08342DD
:1026D400F6D9DCE7080B3246012701E001327F001E
:1026E4001A4B33F81230002B3FF467AF8342F5D90D
:1026F40063E703EB430501356D0803354FF0010A29
:1027040064E718449E448DE74FF6F57398459BD8CB
:10271400002E40F0D5817E08012F3FF647AF0E20F2
:10272400A8E140F6F573984512D8002E40F0CC810C
:102734007E00802E7FF63AAF0E209BE178080020C1
:1027440034550008FFFFFE0F2455000814550008F7
:102754000790CDF810E0CDF820C0BAF1010F04D1F4
:1027640040F6F573984500F2B181BDF83E20002192
:10277400019E304602F046F9C94B03CB3060304627
:1027840071601A889B783281B372BDF83E100B30A9
:10279400FEF714F830467773BDF81C100E30FEF7C0
:1027A4000DF8304686F810B01130BAF1030F00F07E
:1027B4009C801FFA89F1FEF701F80D99B1F5803F6D
:1027C40080F0958089B2019B03F11300FDF7F6FFB9
:1027D400F823019E73753F2106F11800FDF7EEFF03
:1027E400FF2106F11A00FDF7E9FF029906F11C002A
:1027F400FDF7E8FFBAF1030F7FD00699019E06F1B9
:102804002700FDF7DFFFA9B206F11600FDF7D6FF9A
:10281400802386F824302923B44686F82630A14E36
:102824000FCECCF82B00CCF82F10CCF83320CCF8FA
:1028340037303288B378ACF83B208CF83D30DDF883
:10284400049009F5FF764AF655213046FDF7B6FFA8
:102854000123029A4946204600F085F9002840F0F9
:102864003781BAF1030F7AD0BDF83E20039E06FBF0
:1028740002F20021DDF80480404602F0C3F84FF074
:1028840000090697049F02955D46B346A94580F06A
:10289400B080BAF1030F00F09880BAF1010F00F094
:1028A400A6806FF007014046FDF78CFF029ECDF82D
:1028B40010A0B2465E4528BFDA4653463A46414622
:1028C400204600F050F9002840F00481BDF83E2075
:1028D4000021404602F096F85744B6EB0A06E8D1C8
:1028E400DDF810A009F10109D0E7002163E7019B9D
:1028F40003F12000FDF766FF6AE70699019E06F1E1
:102904004300FDF75FFF294606F12400FDF75AFF57
:10291400022106F12C00FDF755FF012106F13000DC
:10292400FDF74CFF062106F13200FDF747FF802337
:1029340086F840302923B44686F842305A4E0FCEEA
:10294400CCF84700CCF84B10CCF84F20CCF85330DF
:102954003288B378ACF857208CF859306FE70123EC
:10296400029A0632DDF804904946204600F0FBF84E
:10297400BDF83E200021484602F044F84B49484641
:10298400FDF720FF4A4909F5F270FDF71BFF08F136
:10299400FF3109F5F470FDF715FF022109F5F67012
:1029A400FDF710FF4AF655213046FDF707FF0123D6
:1029B400029EF21D4946204600F0D5F80123F21884
:1029C4004946204600F0CFF84EE76FF00701404635
:1029D400FDF7F8FE4FF0FF3108F10400FDF7F2FEB9
:1029E4006FF0704108F10800FDF7ECFE5EE7314935
:1029F40059E70497069FBAF1030F1CD0049F089E61
:102A0400039DB54228BF35462B463A4601992046D8
:102A140000F0A9F800285FD12F44761BF0D1BAF159
:102A2400030F0DD00D9BB3F5803F1ED2BAF1020FF8
:102A340004D0012205E03E46049FE1E7042200E0C1
:102A44000C22059B4BB90D9B0B9300230C93019B0C
:102A54000BA92046FEF7A4FD60B9002211462046CA
:102A640000F099F830B1012004E00622E9E70B20D8
:102A740000E0032011B0BDE8F08F0A20FAE701203E
:102A8400F8E70120F6E70120F4E71120F2E711202E
:102A9400F0E70120EEE70E20ECE71320EAE700BFA1
:102AA400E054000800550008EC54000852526141FB
:102AB40072724161F8FFFF000E20DBE70E20D9E7B8
:102AC4000E20D7E70E20D5E70E20D3E70E20D1E75E
:102AD4000120CFE70120CDE70120CBE770B110B58D
:102AE40082B0044601280DD10DF1070000F02CFC42
:102AF4009DF8073023B130B1204604E0012070472F
:102B0400204600E0012002B010BD012801D00120C0
:102B1400704710B50446FDF70FFE00F07FF900F092
:102B2400A9FA00F08DFB00B904460120FFF7D6FF97
:102B34002043C0B210BD10B50446012801D00420C2
:102B440010BD084611461A03090300F00DFE0128C2
:102B540005D0022805D00028F2D00420F0E7032095
:102B6400EEE72046ECE710B50446012801D0042026
:102B740010BD084611461A03090301F075F801282F
:102B840005D0022805D00028F2D00420F0E7032065
:102B9400EEE72046ECE7B8B1012816D102290AD0A5
:102BA40003290DD0012901D0002070474FF4805330
:102BB4001360002070474FF4805313800020704747
:102BC40001231360002070477047042070470020E1
:102BD400704700007F2801D880B27047B0F5803F6D
:102BE40013D240F2B51399420DD00020704701333F
:102BF4009BB27F2B04D8064A32F813208242F6D1C6
:102C04008033D8B270470023F3E70020704700BF39
:102C140084580008B0F5803F47D230B585B2B5F589
:102C2400805F01D2214B02E0214B00E023461A8849
:102C3400EAB195421BD31C1D5B88190ADBB21FFA4B
:102C440080FC03EB020EF44504DB0029EED104EB17
:102C54004303ECE708290AD8DFE801F0050B111457
:102C6400171A1D202300ACEB020C34F81C50284624
:102C740030BDAB1A03F00103ED1AADB2F7E7103D16
:102C8400ADB2F4E7203DADB2F1E7303DADB2EEE7D1
:102C94001A3DADB2EBE70835ADB2E8E7503DADB251
:102CA400E5E7A5F5E355ADB2E1E7704790560008B6
:102CB400D45500087047FEE7FEE7FEE7FEE77047DD
:102CC400704770477047000082B00023019300935F
:102CD4002C4A136843F4803313602A4B1B6803F4B3
:102CE40000330093019B01330193009B1BB9019BAB
:102CF400B3F5A06FF1D1234B1B6813F4003F06D04A
:102D040001230093009B012B04D002B070470023E1
:102D14000093F7E71C4B1A6842F010021A601A6815
:102D240022F003021A601A6842F002021A60A3F544
:102D340080535A685A605A685A605A6842F48062EA
:102D44005A605A6822F47C125A605A6842F4E812B3
:102D54005A601A6842F080721A600A4B1B6813F0BA
:102D6400007FFAD0074B5A6822F003025A605A686F
:102D740042F002025A60034B5B6803F00C03082B19
:102D8400F9D1C2E7001002400020024008B5FFF765
:102D94009BFF08BD08B5104B1A6842F001021A6087
:102DA40059680E4A0A405A601A6822F0847222F462
:102DB40080321A601A6822F480221A605A6822F457
:102DC400FE025A604FF41F029A60FFF7DFFF044BC4
:102DD4004FF000629A6008BD001002400000FFF846
:102DE40000ED00E008B501F03DF9002008BD000049
:102DF40070B50E461546002409E0074B1B8813F0F6
:102E0400400FFAD0315D0448FDF7D9FB0134AC42E0
:102E1400F3DB284670BD00BF0038014030B589B0EF
:102E24001E4B1868002302221946806801F04EFCEC
:102E340001210420FDF7B8FA01214FF48040FDF789
:102E4400B3FA174C2368079363680693154D07A9D3
:102E54002846FDF7C5FA06A92846FDF7C1FA0DF183
:102E6400080C04F108030FCB8CE80F0005F540555E
:102E740061462846FDF718FB01212846FDF776FB3D
:102E8400012240F225512846FDF77EFBA3690193F8
:102E940001A8FDF7EBF909B030BD00BF040600201E
:102EA400905400080008014010B540F2255107482D
:102EB400FDF78DFB00B910BD044C2046FDF783FBE4
:102EC40001462046FDF77BFBF5E700BF00380140D3
:102ED40008B50A20FDF758FC01210D48FDF7D8FA82
:102EE400012803D00120FDF797FB08BD094AD2F859
:102EF4009431B3FA83F35B09C2F8943102F5C0321A
:102F0400D2F89431B3FA83F35B09C2F89431E9E758
:102F1400000801400080214208B50A20FDF734FC76
:102F240008210848FDF7B4FA38B9074AD2F89431B1
:102F3400B3FA83F35B09C2F894310820FDF76CFB04
:102F440008BD00BF001801400000234208B50A2054
:102F5400FDF71AFC10210848FDF79AFA38B9074A18
:102F6400D2F89431B3FA83F35B09C2F89431102098
:102F7400FDF752FB08BD00BF00180140008021424C
:102F840008B5034B1878FDF74DFBFDF753FB08BD5F
:102F94001800002008B501210948FDF75BFB012852
:102FA40000D008BD074AD2F89431B3FA83F35B0921
:102FB400C2F8943101210248FDF758FBF1E700BF44
:102FC400000400400080214208B5244B1B7823B143
:102FD40003212348FDF74AFB08BD01212048FDF7E2
:102FE40039FB012814D002211D48FDF733FB0128C9
:102FF400EED11C4B1B8813BB1B4B00221A60194BD0
:1030040002221A80174B19881548FDF719FBDFE7D0
:10301400144B1B88022BE6D1134B1B68134A9342B3
:1030240003D80133104A1360DDE70C4B01221A70F8
:1030340000210C4B19800A48FDF702FBD3E7022B51
:10304400E0D10748FDF703FB094B1880034B01222D
:103054001A70044B00221A80D4E700BF80080020B5
:10306400000C004088080020840800207F1A060015
:1030740082080020F0B587B001210820FDF794F9FB
:1030840001214FF48040FDF79DF903238DF816309C
:103094004FF42043ADF8143018238DF81730224C28
:1030A40005A92046FDF79CF94FF48043ADF8143090
:1030B40048238DF8173005A92046FDF791F94FF400
:1030C4008057ADF8147010238DF8173005A92046E9
:1030D400FDF786F90126ADF808600223ADF8063045
:1030E4000723ADF810300023ADF80430ADF80C30F0
:1030F400ADF80030ADF80E304FF48273ADF8023005
:103104004FF40073ADF80A30084D69462846FDF7C0
:10311400B1FA39462046FDF7C2F931462846FDF793
:10312400D0FA07B0F0BD00BF000C014000380040E9
:1031340070B505460E46C82402211948FDF7D4FA95
:1031440070B9631E9BB20CB11C46F5E7154B1868A9
:10315400154B67221549C06801F018FA01201DE0DB
:1031640031460F48FDF7BBFAC82401210C48FDF78E
:10317400BBFA70B9631E9BB20CB11C46F5E7094B50
:103184001868094B69220949C06801F0FFF9012058
:1031940004E00348FDF7A5FA2870002070BD00BFC5
:1031A4000038004004060020D05A00088459000862
:1031B40010B584B00146FF238DF80F300DF10F00D8
:1031C400FFF7B6FF044610B9204604B010BD074B04
:1031D4001B68D86804EB8402054B009372230549ED
:1031E40001EB8202044901F0D1F9EDE70406002065
:1031F400BC5A00081C000020AC59000810B582B06D
:10320400FF21FFF795FF044610B9204602B010BD18
:10321400074B1B68D86804EB8402064B00937A239F
:10322400054901EB8202054901F0B0F9EDE700BF61
:1032340004060020A45A00081C000020AC59000811
:1032440010B584B04FF480513A48FDF72AF9AB2009
:10325400FFF7AEFF00BBFF20FFF7AAFF044668BBE1
:10326400FF20FFF7A5FF0446002836D1FF20FFF713
:103274009FFF044600283FD1FF238DF80F300DF146
:103284000F00FFF7BBFF0446002844D14FF48051E0
:103294002848FDF704F90EE00446274B1B68D8685C
:1032A40004EB8402254B00938323254901EB82021E
:1032B400244901F06BF9204604B010BD1E4B1B6875
:1032C400D86804EB84021D4B009384231C4901EB52
:1032D40082021C4901F05AF9EDE7174B1B68D868C4
:1032E40004EB8402154B00938523154901EB8202FC
:1032F400144901F04BF9DEE70F4B1B68D86804EB67
:1033040084020E4B009386230D4901EB82020D4982
:1033140001F03CF9CFE7084B1B68D86804EB840242
:10332400064B00938823064901EB8202054901F00C
:103334002DF9C0E7000C014004060020905A000853
:103344001C000020AC59000830B585B005464FF488
:1033540080513B48FDF7A5F89F20FFF729FF40BBAC
:1033640003A8FFF74BFF0446002839D10DF10D00E7
:10337400FFF744FF0446002841D10DF10E00FFF78A
:103384003DFF0446002849D14FF480512C48FDF7F5
:1033940086F89DF80C209DF80D301B0243EA024389
:1033A4009DF80E201343274A934246D000232B70E6
:1033B4000EE00446244B1B68D86804EB8402234BBC
:1033C40000939223224901EB8202224901F0DEF8A4
:1033D4004FF480511A48FDF762F8204605B030BD1D
:1033E400194B1B68D86804EB8402184B0093942390
:1033F400174901EB8202174901F0C8F8E8E7124BBC
:103404001B68D86804EB8402104B00939523104981
:1034140001EB82020F4901F0B9F8D9E70A4B1B68A6
:10342400D86804EB8402094B00939623084901EB06
:103434008202084901F0AAF8CAE701232B70C7E702
:10344400000C01401821520004060020785A00089C
:103454001C000020AC59000810B582B04FF4805114
:103464000F48FDF71EF80620FFF7A2FE044638B900
:103474004FF480510A48FDF712F8204602B010BDFF
:10348400084B1B68D86804EB8402074B0093A723FE
:10349400064901EB8202064901F078F8E8E700BF2B
:1034A400000C014004060020605A00081C000020A3
:1034B400AC59000810B582B04FF480510F48FCF7A6
:1034C400F0FF0420FFF774FE044638B94FF480512E
:1034D4000A48FCF7E4FF204602B010BD084B1B6805
:1034E400D86804EB8402074B0093B123064901EB2F
:1034F4008202064901F04AF8E8E700BF000C0140E7
:1035040004060020485A00081C000020AC5900089A
:1035140030B583B004464FF480511948FCF7C1FF1D
:103524000520FFF745FE60B92046FFF767FE054614
:10353400B8B94FF480511248FCF7B1FF284603B0E4
:1035440030BD05460F4B1B68D86805EB85020E4B52
:103554000093BB230D4901EB82020D4901F016F8DB
:10356400E7E7084B1B68D86805EB8502064B009318
:10357400BC23064901EB8202054901F007F8D8E7AC
:10358400000C014004060020345A00081C000020EE
:10359400AC59000800B583B002E00520FDF7EAF855
:1035A4000DF10700FFF7B4FF9DF8073013F0010F8A
:1035B400F3D1002003B05DF804FB000030B583B004
:1035C400B0F1006F48D2054642F21070FFF7E2FFF7
:1035D400044600284CD1FFF73FFF044600285DD184
:1035E4004FF480515A48FCF75CFF2020FFF7E0FDC0
:1035F4000446002861D1C5F30740FFF7D9FD04460E
:10360400002869D1C5F30720FFF7D2FD044600283E
:1036140071D1E8B2FFF7CCFD044600287AD14FF40B
:1036240080514B48FCF73BFFFFF7B4FF04460028EA
:103634007FD1FFF73FFF044640B3464B1B68D86871
:1036440004EB8402444B0093DD23444901EB8202E2
:10365400434900F09BFF19E03E4B1B68D8683E4B82
:103664000093D1233F4A3E4900F090FF02240DE02D
:10367400384B1B68D86804EB8402374B0093D4237F
:10368400364901EB8202364900F080FF4FF4805145
:103694002F48FCF704FF204603B030BD2D4B1B68B8
:1036A400D86804EB84022C4B0093D5232B4901EBFF
:1036B40082022B4900F06AFFE8E7264B1B68D868B2
:1036C40004EB8402244B0093D723244901EB8202A8
:1036D400234900F05BFFD9E71E4B1B68D86804EB55
:1036E40084021D4B0093D8231C4901EB82021C4920
:1036F40000F04CFFCAE7174B1B68D86804EB840240
:10370400154B0093D923154901EB8202144900F0AB
:103714003DFFBBE70F4B1B68D86804EB84020E4BDC
:103724000093DA230D4901EB82020D4900F02EFFCC
:10373400ACE7084B1B68D86804EB8402064B009383
:10374400DC23064901EB8202054900F01FFF9DE7D7
:10375400000C0140040600201C5A00081C00002034
:10376400AC59000844000020F0B583B08B18013B2D
:10377400B3F1006F38D207460E461546FFF70AFF2D
:10378400044600283CD14FF480516248FCF789FE7E
:103794000B20FFF70DFD0446002847D1C6F3074070
:1037A400FFF706FD044600284FD1C6F30720FFF7B4
:1037B400FFFC0446002857D1F0B2FFF7F9FC044699
:1037C400002860D1FF20FFF7F3FC0446002869D1EC
:1037D4000026AE4280F08480B819FFF70FFD04463E
:1037E40000286ED10136F4E74B4B1B68D8684B4B6D
:1037F4000093E7234A4A4B4900F0C8FE02240DE037
:10380400454B1B68D86804EB8402444B0093EA23BD
:10381400454901EB8202434900F0B8FE4FF4805160
:103824003C48FCF73CFE204603B0F0BD3A4B1B6815
:10383400D86804EB8402394B0093EC233A4901EB3A
:103844008202384900F0A2FEE8E7334B1B68D868CF
:1038540004EB8402314B0093ED23334901EB8202E4
:10386400304900F093FED9E72B4B1B68D86804EB72
:1038740084022A4B0093EE232B4901EB820229494F
:1038840000F084FECAE7244B1B68D86804EB84026A
:10389400224B0093EF23244901EB8202214900F0DB
:1038A40075FEBBE71C4B1B68D86804EB84021B4BFA
:1038B4000093F0231C4901EB82021A4900F066FED2
:1038C400ACE7154B1B68D86804EB8402134B0093D8
:1038D400F323154901EB8202124900F057FE9DE7DC
:1038E4004FF480510B48FCF7DAFDFFF753FE044612
:1038F400002893D0084B1B68D86804EB8402074B5C
:103904000093F623084901EB8202064900F03EFECB
:1039140084E700BF000C0140040600200C5A000894
:1039240044000020AC5900081C000020F0B585B00C
:103934008B18013BB3F1006F40D207460E46154683
:1039440001230370FFF726FE0446002843D14FF4F9
:1039540080516A48FCF7A5FD0B20FFF729FC0446BB
:1039640000284FD1C6F30740FFF722FC0446002885
:1039740058D1C6F30720FFF71BFC0446002861D189
:10398400F0B2FFF715FC044600286BD1FF20FFF7C7
:103994000FFC0446002875D10026AE4280F09480C6
:1039A4000DF10F00FFF72AFC044600287AD19DF898
:1039B4000F30FF2B40F086800136EEE7504B1B683A
:1039C400D868504B00934FF480734F4A4F4900F02E
:1039D400DDFD02240EE04A4B1B68D86804EB840228
:1039E400484B00934FF48273494901EB82024749E3
:1039F40000F0CCFD4FF480514048FCF750FD2046C8
:103A040005B0F0BD3E4B1B68D86804EB84023D4B07
:103A140000934FF483733E4901EB82023B4900F06B
:103A2400B5FDE7E7364B1B68D86804EB8402354BD9
:103A3400009340F20713364901EB8202334900F048
:103A4400A5FDD7E72E4B1B68D86804EB84022D4BE9
:103A540000934FF484732E4901EB82022B4900F04A
:103A640095FDC7E7264B1B68D86804EB8402254BF9
:103A7400009340F20913264901EB8202234900F026
:103A840085FDB7E71E4B1B68D86804EB84021D4B09
:103A940000934FF485731E4901EB82021B4900F029
:103AA40075FDA7E7164B1B68D86804EB8402154B19
:103AB40000934FF48773164901EB8202134900F017
:103AC40065FD97E700233B704FF480510B48FCF7EA
:103AD400E6FCFFF75FFD044600288BD0084B1B680B
:103AE400D86804EB8402074B009340F2151308498D
:103AF40001EB8202054900F049FD7BE7000C01401F
:103B040004060020F859000844000020AC590008BD
:103B14001C0000202DE9F04385B04318013BB3F1AC
:103B2400006F1BD204460E46C0F30B05C5F5805545
:103B34008D4228BF0D462A4601460DF10F00FFF7BE
:103B4400F5FE8046C0B99DF80F302BB32C44761B8C
:103B540006F6FF794FEA193900274EE03C4B1B6803
:103B6400D8683C4B009340F21F133B4A3B4900F09A
:103B74000DFD4FF0020834E0354B1B68D86808EBA4
:103B84008802344B009340F22513354901EB82023D
:103B9400324900F0FBFC24E02046FFF70FFD80468D
:103BA4000028D3D02A4B1B68D86808EB8802294B1D
:103BB400009340F227132A4901EB8202274900F0BF
:103BC400E5FC0EE0224B1B68D86808EB8802214B09
:103BD40000934FF49773224901EB82021F4900F0CE
:103BE400D5FC4FF480511F48FCF759FC404605B002
:103BF400BDE8F0832C44761B01374F45F1D235469E
:103C0400B6F5805F28BF4FF480552A4621460DF152
:103C14000F00FFF78BFE80460028D3D19DF80F30AC
:103C2400002BE7D12046FFF7C9FC80460028E1D0ED
:103C3400074B1B68D86808EB8802064B00934FF4C7
:103C44009873074901EB8202044900F09FFCC8E71E
:103C540004060020E059000844000020AC59000884
:103C64001C000020000C01402DE9F04F83B08B189C
:103C7400013BB3F1006F4BD207468A461646114604
:103C84005046FFF747FF044600284ED1FFF7E4FBF8
:103C94000446002861D15FFA8AF8C8F58078B045F7
:103CA40028BFB046FFF776FC0446002865D14FF4E0
:103CB4008051B148FCF7F5FB0220FFF779FA04467E
:103CC40000286AD1CAF30740FFF772FA04460028B5
:103CD40073D1CAF30720FFF76BFA044600287CD19E
:103CE4005FFA8AF0FFF764FA0446002840F0858002
:103CF4004FF00009C14580F0A08017F80900FFF7D4
:103D040057FA0446002840F0888009F10109F1E7D8
:103D14009A4B1B68D8689A4B009340F23D13994A1A
:103D2400994900F033FC02240EE0944B1B68D868D8
:103D340004EB8402924B00934FF4A073934901EB7C
:103D44008202914900F022FC4FF480518A48FCF72A
:103D5400A6FB204603B0BDE8F08F884B1B68D868EB
:103D640004EB8402864B009340F24313874901EB32
:103D74008202854900F00AFCE6E7804B1B68D8689C
:103D840004EB84027E4B00934FF4A4737F4901EB50
:103D940082027D4900F0FAFBD6E7784B1B68D868AD
:103DA40004EB8402764B00934FF4A573774901EB3F
:103DB4008202754900F0EAFBC6E7704B1B68D868BD
:103DC40004EB84026E4B009340F24B136F4901EBFA
:103DD40082026D4900F0DAFBB6E7684B1B68D868CD
:103DE40004EB8402664B00934FF4A673674901EB1E
:103DF4008202654900F0CAFBA6E7604B1B68D868DD
:103E040004EB84025E4B009340F24D135F4901EBD7
:103E140082025D4900F0BAFB96E7584B1B68D868EC
:103E240004EB8402564B009340F24F13574901EBC5
:103E34008202554900F0AAFB86E74FF480514E48B0
:103E4400FCF72DFBFFF7A6FB0446002848D1A6EBA0
:103E54000806C24406F1FF0B4FEA1B2B4FF0000982
:103E6400D94580F0E080FFF7F7FA0446002847D1EF
:103E7400FFF790FB0446002851D14FF480513E488F
:103E8400FCF70FFB0220FFF793F90446002855D1F5
:103E9400CAF30740FFF78CF9044600285DD1CAF342
:103EA4000720FFF785F90446002871D15FFA8AF0EC
:103EB400FFF77EF90446002879D10025FF2D00F292
:103EC400958005EB09239E4240F290804344F85CC0
:103ED400FFF76EF90446002878D10135ADB2EDE75D
:103EE400264B1B68D86804EB8402254B00934FF4DF
:103EF400A973264901EB8202234900F047FB23E71B
:103F04001E4B1B68D8681E4B009340F25B131421B0
:103F14001E4A01FB04221C4900F038FB14E7174B2E
:103F24001B68D868164B00934FF4AE731421174ADC
:103F340001FB0422144900F029FB05E70F4B1B6821
:103F4400D8680F4B00934FF4AF7314210F4A01FB51
:103F540004220D4900F01AFBF6E6084B1B68D868EA
:103F6400074B009340F25F131421084A01FB04221B
:103F7400054900F00BFBE7E6000C014004060020B5
:103F8400D059000844000020AC5900081C0000204F
:103F94002F4B1B68D8682F4B00934FF4B073142138
:103FA4002D4A01FB04222D4900F0F0FACCE6284BFF
:103FB4001B68D868274B009340F261131421264AEA
:103FC40001FB0422254900F0E1FABDE6204B1B6801
:103FD400D86804EB84021F4B00934FF4B3731E495B
:103FE40001EB82021D4900F0D1FAADE60AF5807AB0
:103FF4004FF480511A48FCF752FAFFF7CBFA044603
:1040040010B909F101092BE7114B1B68D868114B52
:1040140000934FF4B57314210F4A01FB04220F4996
:1040240000F0B4FA90E6FFF745FA044600283FF49E
:104034008BAE074B1B68D868064B00934FF4B773DD
:104044001421054A01FB0422044900F09FFA7BE68F
:1040540004060020D05900081C000020AC590008B8
:10406400000C014030B58FB041F2380000F04EF939
:10407400044601228649FDF777FE0D282ED000283C
:1040840066D141F2280000F041F905460B2281492E
:10409400FDF796FE034600286AD17F4A09AB07CA9A
:1040A40003C31A800023CDF82E30CDF83230ADF89A
:1040B400363008AB142209A92846FEF769F80346EE
:1040C40000286DD1089B142B79D0744B1868744B5D
:1040D40047227449C06800F059FA57E0724800F06A
:1040E400EDFA4FF4805000F011F905464FF4805377
:1040F400024600216648FEF7A9F90346C8B92846D6
:1041040000F00CF9012262492046FDF72DFE03461A
:104114000028B6D0614A1268D06803EBC303634A2F
:1041240002EBC30300935E4B3822614900F02EFA80
:1041340030E05A4A1268D06803EBC3035B4A02EBCF
:10414400C3030093564B3622594900F01FFA21E06D
:10415400524B1B68DD6800EBC003544A02EBC303F7
:1041640000934F4B3A225249284600F00FFA11E0CF
:104174004A4A1268D06803EBC3034C4A02EBC303F8
:104184000093474B40224A4900F000FA15B12846F3
:1041940000F0C4F814B1204600F0C0F80FB030BDF0
:1041A4003E4A1268D06803EBC303404A02EBC303E0
:1041B40000933B4B45223E4900F0E8F9E6E72846E8
:1041C400FEF733F90346E8B93A4800F077FA0122DA
:1041D40030492846FDF7F4FD034610BB02AB142218
:1041E40003A92846FDF7EEFE034648BB029B142BA9
:1041F40035D02A4B18682A4B56222F49C06800F044
:10420400C5F9C3E7254A1268D06803EBC303274AFC
:1042140002EBC3030093224B4C22254900F0B6F96C
:10422400B4E71E4A1268D06803EBC3031F4A02EBCB
:10423400C30300931A4B51221D4900F0A7F9A5E7C7
:10424400164A1268D06803EBC303184A02EBC3038F
:104254000093134B5422164900F098F996E7284628
:10426400FEF7E3F8034620B903A9144800F0BEF9A9
:104274008CE70A4A1268D06803EBC3030B4A02EBCB
:10428400C3030093064B5B22094900F07FF97DE7E5
:10429400E85A0008405B0008AC54000804060020FB
:1042A400E85B0008505B0008EC5A00085800002046
:1042B400145B0008845B0008985B0008CC5B000872
:1042C4000C480D490D4A002302E0D458C45004336D
:1042D400C4188C42F9D30A4A0A4C002301E0136043
:1042E4000432A242FBD3FEF755FD00F0F7FBFEF7C4
:1042F40079FD70470000002054060020385C000857
:1043040054060020DC090020FEE70000024B0146B1
:10431400186800F02DB800BF04060020024B0146C7
:10432400186800F00FBC00BF0406002070B50F4EE3
:104334000C463168054611B900F0AEFB30602146E9
:10434400284600F0A9FB431C03D14FF0FF3420465C
:1043540070BDC41C24F00304A042F8D0211A2846DE
:1043640000F09AFB0130F2D1EFE700BF8C08002087
:10437400F8B5CD1C25F0030508350C2D38BF0C25E8
:10438400002D064601DBA94203D90C23336000202B
:10439400F8BD2E4F00F05CF83B681C4634BB294640
:1043A4003046FFF7C3FF431C04464DD13C68214609
:1043B400002940D1002C41D023683046E71800F092
:1043C4006BFB87423AD123680335ED1A25F00305C8
:1043D40008350C2D38BF0C2530462946FFF7A6FFBB
:1043E40001302BD023682B4423600EE02268521B3B
:1043F4001ED40B2A16D96119A342256018BF59602F
:10440400636808BF396062514B60304600F026F89B
:1044140004F10B00231D20F00700C21A1CBF1B1A55
:10442400A350B5E76268A3420CBF3A605A60ECE758
:1044340023466468B2E70C464968B9E70C23304662
:10444400336000F00BF8A2E70560DEE79008002077
:10445400014800F067BB00BFD4090020014800F008
:1044640062BB00BFD4090020002310B50446C0E994
:104474000033C0E90433836081814366C281836170
:10448400194608225C3000F0BDFA054B24626362D1
:10449400044BA362044BE362044B236310BD00BFCF
:1044A400394800085B48000893480008B7480008EA
:1044B400024A0349034800F07BB800BFF805002016
:1044C400995200080806002041680C4B10B5994227
:1044D400044601D000F0DEFEA168094B994202D0E7
:1044E400204600F0D7FEE168064B994204D02046EE
:1044F400BDE8104000F0CEBE10BD00BF94080020FF
:10450400FC0800206409002010B50B4B0B4C0C4A2E
:1045140020461A6004210022FFF7A6FF04F1680078
:1045240001220921FFF7A0FF04F1D0000222BDE817
:1045340010401221FFF798BFCC09002094080020F6
:10454400B5440008014800F0EDBA00BFD5090020C9
:10455400014800F0E8BA00BFD509002010B50446B0
:10456400FFF7F0FF236A1BB1BDE81040FFF7F0BF6F
:10457400044B2362044B1B68002BF5D1FFF7C4FFE7
:10458400F2E700BFCD440008CC0900200EB403B507
:10459400014603AB054853F8042B0068019300F06F
:1045A40041FB02B05DF804EB03B070470406002041
:1045B4002DE9F8430746884614460026D4E90195B8
:1045C400B9F1010905D52468002CF7D13046BDE8BE
:1045D400F883AB89012B07D9B5F90E30013303D029
:1045E40029463846C04706436835E9E70FB407B59E
:1045F400064904AB086853F8042B8168019300F062
:1046040011FB03B05DF804EB04B07047040600200E
:10461400036A70B505460E4684680BB9FFF79EFF22
:10462400636EDB0705D4A389980502D4A06D00F05E
:1046340079FAA389190702D52369002B35D12146BC
:10464400284600F079F980B34FF0FF35636EDA073E
:1046540005D4A3899B0502D4A06D00F064FA284612
:1046640070BD002B15DB23685A1C22601970A368E7
:1046740016F8011F013BA3600029F2D1002B16DAC2
:1046840022460A21284600F018F90130DCD00A2518
:10469400DCE7A2699A4201DC0A29E4D122462846D1
:1046A40000F00BF90130E2D1CEE7013EDFE72368E9
:1046B4005A1C22600A221A70E9E70000024B0146E4
:1046C4001868FFF7A5BF00BF040600202DE9F743D3
:1046D4001D46574B04461F680E46904627B13B6A59
:1046E40013B93846FFF73AFFB8F1020F06D0B8F114
:1046F400010F00F29A80002DC0F29780636ED907F3
:1047040005D4A3899A0502D4A06D00F00BFA2146C2
:10471400384600F0BFFD616B41B104F14403994296
:1047240002D0384600F00EFA002363630023A3612D
:104734006360A3891B0603D53846216900F002FA99
:10474400A389B8F1020F23F44A6323F00303A3817E
:1047540061D001AB6A462146384600F0C3FDA38907
:104764001843A0812DBB009D2846FFF7CFFD0646C8
:10477400002852D1DDF80090A94540D14FF0FF3513
:10478400B4F90C3043F00202A2810022A26004F1C9
:1047940047022260226101226261626ED60704D45C
:1047A400980502D4A06D00F0BEF9284603B0BDE818
:1047B400F083002ED8D03B6A13B93846FFF7CEFEFB
:1047C400B8F1010F08BFA389C4E9046504BF43F02D
:1047D4000103A381B4F90C30266013F008021ED043
:1047E400D90741BF00226D42A260A56158BFA560F0
:1047F400626ED20701D49B0513D50025D5E7484640
:10480400FFF784FD06460028B8D0A3894D4643F03F
:104814008003A381CFE70025B2E7A946F5E7A260AC
:10482400E6E7A06D00F07FF9E7E74FF0FF35BCE75E
:104834000406002010B50C46B1F90E1000F01AF968
:104844000028ABBF636DA3891B1823F48053ACBF4E
:104854006365A38110BD2DE9F0411F468B89054690
:10486400DB050C46164605D502230022B1F90E10CD
:1048740000F0EEF8A389324623F48053A38128463E
:104884003B46B4F90E10BDE8F04100F015B910B57F
:104894000C46B1F90E1000F0DBF8431CA38915BFD8
:1048A400606523F4805343F48053A38118BFA3812C
:1048B40010BDB1F90E1000F0BBB8F8B50E461446A1
:1048C400054618B1036A0BB9FFF748FEA369A36054
:1048D400A3891A0701D5236943B92146284600F064
:1048E4002BF818B14FF0FF373846F8BD236822691A
:1048F400F6B2981A63693746834205DC2146284696
:1049040000F0C8FC0028EDD1A368013BA360236834
:104914005A1C22601E706269431C9A4204D0A38907
:10492400DB07E1D50A2EDFD12146284600F0B2FC90
:104934000028D9D0D6E7000038B5294B05461868B9
:104944000C4618B1036A0BB9FFF708FEB4F90C3032
:10495400190722D4DA0607D409222A6043F0400357
:104964004FF0FF30A38133E0580712D5616B41B19A
:1049740004F14403994202D0284600F0E3F80023EE
:104984006363A38923F02403A38100236360236961
:104994002360A38943F00803A38123694BB9A38946
:1049A40003F42073B3F5007F03D02146284600F0BA
:1049B400BEFCB4F90C3013F001020AD00022A2604C
:1049C40062695242A261226942B913F08000C5D1E2
:1049D40038BD990758BF6269A260F4E70020F7E781
:1049E4000406002010B501390244904201D1002090
:1049F40005E0037811F8014FA34201D0181B10BD44
:104A04000130F2E703460244934200D1704703F8B1
:104A1400011BF9E70346C9B2184613F8012B12B17A
:104A24008A42F9D17047002918BF0020704700005E
:104A340038B50023054D044608462B6000F0E4FC1D
:104A4400431C02D12B6803B1236038BDD009002078
:104A540038B50446084611460022054D2A601A4618
:104A640000F0EAFC431C02D12B6803B1236038BD7B
:104A7400D009002038B50446084611460022054DE9
:104A84002A601A4600F0E0FC431C02D12B6803B1F3
:104A9400236038BDD009002038B50023054D0446F5
:104AA40008462B6000F0D8FC431C02D12B6803B1EC
:104AB400236038BDD009002038B5044608461146A5
:104AC4000022054D2A601A46FEF792F9431C02D1D2
:104AD4002B6803B1236038BDD009002070B50026CF
:104AE4000C4D0D4C641BA410A64209D100F0C2FC6D
:104AF40000260A4D0A4C641BA410A64205D170BDC1
:104B040055F8043B98470136EEE755F8043B9847BF
:104B14000136F2E7305C0008305C0008305C0008C5
:104B2400345C0008704770470A44914200F1FF3337
:104B340000D1704710B511F8014B914203F8014FB1
:104B4400F9D110BD38B50546002940D051F8043CD0
:104B54000C1F002BB8BFE418FFF77AFC1C4A13683B
:104B640033B9636014602846BDE83840FFF776BC6B
:104B7400A34208D9206821188B4201BF19685B68D9
:104B840009182160EDE71A465B680BB1A342FAD914
:104B940011685018A0420BD1206801445018834278
:104BA4001160E0D118685B68084410605360DAE76C
:104BB40002D90C232B60D6E7206821188B4201BF51
:104BC40019685B680918216063605460CBE738BDDD
:104BD40090080020936810B4013B002B936007DA1F
:104BE4009469A34201DB0A2902D110BCFFF765BE18
:104BF4001368581C10601970084610BC7047F8B54B
:104C040006460F461446D518AC4201D1002007E0F1
:104C14003A46304614F8011BFFF7DCFF431CF3D17E
:104C2400F8BD00002DE9F04F0D461446984606469F
:104C34009DB018B1036A0BB9FFF790FC6B6ED907EE
:104C440005D4AB899A0502D4A86DFFF76BFFAB8935
:104C54001B0701D52B699BB929463046FFF76CFE2B
:104C640070B16B6EDC0704D54FF0FF301DB0BDE8AA
:104C7400F08FAB899805F7D4A86DFFF754FFF3E7DD
:104C84000023099320238DF8293030234FF00109A4
:104C9400CDF80C80DFF8A8818DF82A3023469A4697
:104CA40013F8012B0AB1252AF9D1BAEB040B0BD066
:104CB4005B46224629463046FFF7A1FF013000F04B
:104CC400A780099A5A4409929AF80030002B00F000
:104CD4009F8000234FF0FF32CDE905230AF1010A3A
:104CE400049307938DF853301A935446052214F80D
:104CF400011B534800F07AFB049AD8B9D10644BF8B
:104D040020238DF85330130744BF2B238DF85330E1
:104D14009AF800302A2B15D0544600204FF00A0C84
:104D2400079A214611F8013B303B092B4BD9B0B10E
:104D3400079214E0A0EB080309FA03F31343A24615
:104D44000493D2E7039B191D1B680391002BBBBF7F
:104D54005B4242F0020207930793B8BF04922378A0
:104D64002E2B0AD163782A2B32D1039B02341A1DCD
:104D74001B68039243EAE3730593DFF8C8A0032298
:104D84005046217800F032FB38B14022049BA0EB5E
:104D94000A00824013430134049314F8011B0622D1
:104DA40029488DF8281000F021FB00283FD0274B1C
:104DB4001BBB039B073323F0070308330393099BAF
:104DC4003B4409936AE70C4601200CFB0232A8E736
:104DD40000234FF00A0C194601340593204610F8BD
:104DE400012B303A092A03D9002BC6D00591C4E718
:104DF400044601230CFB0121F0E703AB00932A4690
:104E04003046134B04A9AFF300800746781CD6D173
:104E14006B6ED90705D4AB899A0502D4A86DFFF748
:104E240082FEAB895B063FF51FAF09981EE703AB13
:104E340000932A463046064B04A900F07DF8E4E7C7
:104E4400FB5B0008015C0008055C00080000000032
:104E5400034C00082DE9F047164698468A680B690A
:104E640007469342B8BF1346336091F843200C467B
:104E7400DDF820900AB1013333602368990642BFFC
:104E8400336802333360256815F0060506D104F152
:104E9400190AE36832689B1AAB422BDC94F843305E
:104EA4002268003B18BF0123920630D4414638469D
:104EB40004F14302C847013023D02368226903F078
:104EC4000603042B14BF002533684FF0000608BF07
:104ED400E56804F11A0408BFED1A54F8123C08BF3F
:104EE40025EAE5759342C4BF9B1AED18B5421AD161
:104EF400002008E00123524641463846C8470130A5
:104F040003D14FF0FF30BDE8F0870135C1E7302011
:104F1400E11881F843005A1C94F8451022440233E6
:104F240082F84310C2E70123224641463846C84767
:104F34000130E6D00136D9E72DE9FF470F7E9146CF
:104F4400782F80460C469A460C9D01F1430207D8FF
:104F5400622F0AD8002F00F0E080582F00F0BB80A9
:104F640004F1420684F842703AE0A7F16303152B7A
:104F7400F6D801A151F823F0D54F0008E94F0008F5
:104F8400654F0008654F0008654F0008654F00082D
:104F9400E94F0008654F0008654F0008654F000899
:104FA400654F00080551000879500008BB500008FF
:104FB400654F0008654F000827510008654F000839
:104FC40079500008654F0008654F0008C350000879
:104FD4002B6804F142061A1D1B682A6084F84230CB
:104FE4000123ABE0236829681F0601F1040028604F
:104FF40001D50D6803E05E06FBD5B1F90050002D24
:1050040061687ADA2D20002984F84300A1602DDA42
:105014000A235E486D421646B5FBF3F103FB1157B4
:10502400C75D06F8017D2F46BB420D46F4D9082B17
:105034000BD12368DF0708D5236961689942DEBF75
:10504400302306F8013C06F1FF36921B22614B46E1
:1050540021464046CDF800A003AAFFF7FBFE01302D
:1050640071D14FF0FF3004B0BDE8F08723F00403A2
:105074002360CDE72B682068191D2960050601D53A
:105084001D6802E04106FBD51D886F2F14BF0A235B
:1050940008233E48002184F843106668002EA66069
:1050A400B9DB216821F004012160002DB3D1002E69
:1050B400B1D11646BBE7236843F020032360782769
:1050C400334884F84570296823680E1D2E601E0637
:1050D40003D50D6804E02D48F3E75D06F9D50D8886
:1050E400D90744BF43F0200323600DB11023D1E757
:1050F400236823F020032360F8E70A232348CCE73E
:105104002B682668181D6169286035061B6801D55F
:10511400196002E07006FBD519800023164623614E
:1051240095E72B6800211A1D2A601E6862683046C4
:1051340000F05CF908B1801B6060636823610023A0
:1051440084F8433083E73246494640462369D047D2
:10515400013086D023689B0714D4E068039B9842EF
:10516400B8BF18467FE70123324649464046D04738
:1051740001303FF476AF0135E36803995B1AAB4223
:10518400F1DCEAE7002504F11906F5E70C5C0008F8
:105194001D5C0008B1F90C20F8B5170705460C464C
:1051A40056D44B68002B02DC0B6C002B3DDDE66A09
:1051B400002E3AD0002312F480522F68216A2B600B
:1051C40025D0626DA389580705D56368D21A636B2D
:1051D4000BB1236CD21A216A00232846E66AB04731
:1051E400411C24D00023636023692360A389DA046B
:1051F40000D56065616B2F60B9B104F14403994235
:1052040002D02846FFF79EFC002363630DE00123D0
:105214002846B047461C0246D4D12B68002BD1D077
:105224001D2B01D0162B2AD12F6000202EE02A68D6
:10523400B4F90C3042B11D2A01D0162A21D1002321
:10524400636023692360D5E7626022692260CEE748
:105254000F69002FE9D0930718BF00230E6808BF19
:105264004B69F61B0F608B60002EDEDD33463A4639
:105274002846216AD4F828C0E047002807DCB4F99E
:105284000C304FF0FF3043F04003A381F8BD0744D6
:10529400361AE9E738B50B6905460C4613B90025FB
:1052A400284638BD18B1036A0BB9FFF757F9B4F9AA
:1052B4000C30002BF3D0626ED00704D4990502D4CD
:1052C400A06DFFF72FFC28462146FFF763FF636EAE
:1052D4000546DA07E4D4A3899B05E1D4A06DFFF762
:1052E40022FCDDE770B50C46B1F90E101546002915
:1052F4001E4696B00CDAA389002113F0800F14BF68
:1053040040234FF48063002031602B6016B070BDE1
:105314006A4600F049F80028EDDB019901F4704178
:10532400A1F50053594259414FF48063EBE78B894F
:10533400F7B59D0706460C4607D504F147032360DD
:1053440023610123636103B0F0BD6A4601ABFFF73B
:10535400C9FF009F054639463046FFF709F848B9AA
:10536400B4F90C309A05EED423F0030343F002039E
:10537400A381E2E7A389C4E9040743F08003A3817E
:10538400019B20605BB13046B4F90E1000F01EF8AA
:1053940028B1A38923F0030343F00103A381A38964
:1053A4001D43A581CFE7000038B50023064D044610
:1053B400084611462B6000F02FF8431C02D12B68DD
:1053C40003B1236038BD00BFD009002038B50023E5
:1053D400054D044608462B6000F026F8431C02D114
:1053E4002B6803B1236038BDD0090020034610B5F3
:1053F400C9B202449342184601D1002003E0047864
:1054040001338C42F6D110BD5822024B4FF0FF30CD
:105414001A607047D00900205822024B4FF0FF3029
:105424001A607047D00900205822024B00201A60ED
:10543400704700BFD00900205822024B4FF0FF30C4
:105444001A607047D00900205822024B4FF0FF30F9
:105454001A607047D0090020044A05491368002BDC
:1054640008BF0B461844106018467047D80900203E
:10547400E0090020F8B500BFF8BC08BC9E467047A0
:0C548400F8B500BFF8BC08BC9E4670479D
:10549000000201180004010400C201000000000025
:1054A00000000C0000000000250F00014469616E3F
:1054B0006120417661000000000000000000000053
:1054C0004641543332202020000000002A3A3C3E5E
:1054D0007C223F7F000000002B2C3B3D5B5D0000E9
:1054E000EBFE904D53444F53352E30004E4F204E1F
:1054F000414D4520202020464154333220202000B9
:105500004E4F204E414D4520202020464154202022
:1055100020202000010004001000400000010002D3
:10552000000000000100020004000800100020003C
:105530000000000007000000000000000000000064
:1055400000000000809A45418E418F8045454549C5
:1055500049498E8F9092924F994F555559999A9BE0
:105560009C9D9E9F41494F55A5A5A6A7A8A9AAAB5A
:10557000ACADAEAFB0B1B2B3B4B5B6B7B8B9BABBF3
:10558000BCBDBEBFC0C1C2C3C4C5C6C7C8C9CACBE3
:10559000CCCDCECFD0D1D2D3D4D5D6D7D8D9DADBD3
:1055A000DCDDDEDFE0E1E2E3E4E5E6E7E8E9EAEBC3
:1055B000ECEDEEEFF0F1F2F3F4F5F6F7F8F9FAFBB3
:1055C000FCFDFEFF01030507090E10121416181C3E
:1055D0001E0000007D1D0100632C001E9601A01E10
:1055E0005A01001F0806101F0606201F0806301F5C
:1055F0000806401F0606511F0700591F521F5B1F58
:10560000541F5D1F561F5F1F601F0806701F0E008E
:10561000BA1FBB1FC81FC91FCA1FCB1FDA1FDB1F42
:10562000F81FF91FEA1FEB1FFA1FFB1F801F080658
:10563000901F0806A01F0806B01F0400B81FB91F5E
:10564000B21FBC1FCC1F0100C31FD01F0206E01FEA
:105650000206E51F0100EC1FF31F0100FC1F4E2195
:105660000100322170211002842101008321D02405
:105670001A05302C2F04602C0201672C0601752CB2
:105680000201802C6401002D260841FF1A0300004E
:1056900061001A03E0001703F8000703FF00010090
:1056A00078010001300132010601390110014A017F
:1056B0002E017901060180014D0043028101820122
:1056C00082018401840186018701870189018A01A1
:1056D0008B018B018D018E018F0190019101910150
:1056E00093019401F60196019701980198013D02FA
:1056F0009B019C019D0120029F01A001A001A2012C
:10570000A201A401A401A601A701A701A901AA0160
:10571000AB01AC01AC01AE01AF01AF01B101B2010F
:10572000B301B301B501B501B701B801B801BA01C0
:10573000BB01BC01BC01BE01F701C001C101C20136
:10574000C301C401C501C401C701C801C701CA0121
:10575000CB01CA01CD011001DD0101008E01DE0186
:105760001201F3010300F101F401F401F801280131
:10577000220212013A020900652C3B023B023D0263
:10578000662C3F0240024102410246020A015302D6
:10579000400081018601550289018A0158028F016A
:1057A0005A0290015C025D025E025F029301610297
:1057B0006202940164026502660267029701960123
:1057C0006A02622C6C026D026E029C017002710210
:1057D0009D01730274029F017602770278027902BA
:1057E0007A027B027C02642C7E027F02A601810287
:1057F0008202A9018402850286028702AE01440268
:10580000B101B20145028D028E028F029002910217
:10581000B7017B030300FD03FE03FF03AC03040099
:105820008603880389038A03B1031103C2030200BC
:10583000A303A303C4030803CC0303008C038E0358
:105840008F03D8031801F2030A00F903F303F403EA
:10585000F503F603F703F703F903FA03FA03300439
:10586000200350041007600422018A043601C10499
:105870000E01CF040100C004D004440161052604D8
:1058800000000000C700FC00E900E200E400E000C6
:10589000E500E700EA00EB00E800EF00EE00EC00B6
:1058A000C400C500C900E600C600F400F600F2001E
:1058B000FB00F900FF00D600DC00A200A300A50059
:1058C000A7209201E100ED00F300FA00F100D10001
:1058D000AA00BA00BF001023AC00BD00BC00A100AC
:1058E000AB00BB0091259225932502252425612537
:1058F0006225562555256325512557255D255C25AF
:105900005B251025142534252C251C2500253C2538
:105910005E255F255A255425692566256025502575
:105920006C25672568256425652559255825522548
:1059300053256B256A2518250C25882584258C255B
:1059400090258025B103DF009303C003A303C303A5
:10595000B500C403A6039803A903B4031E22C6031B
:10596000B50329226122B10065226422202321236C
:10597000F7004822B0001922B7001A227F20B20097
:10598000A025A000466C6167206572726F722C20A2
:105990006C696E653A2025642C2066756E637469A7
:1059A0006F6E3A2025730D0A000000004572726F79
:1059B000722025732C206C696E653A2025642C209A
:1059C00066756E6374696F6E3A2025730D0A000068
:1059D000466C6173685F45585F5772697465000073
:1059E000466C6173685F45585F45726173655F4ED1
:1059F0006F6E456D70747900466C6173685F4558D1
:105A00005F49735F456D707479000000466C617387
:105A1000685F45585F52656164000000466C6173C1
:105A2000685F45585F45726173655F536563746F66
:105A300072000000466C6173685F45585F52656193
:105A4000645F535200000000466C6173685F455804
:105A50005F57726974655F44697361626C650000C9
:105A6000466C6173685F45585F57726974655F453E
:105A70006E61626C65000000466C6173685F45583A
:105A80005F436865636B5F4A454445435F49440033
:105A9000466C6173685F45585F57616B655F557011
:105AA00000000000466C6173685F45585F52656393
:105AB000696576655F42797465000000466C6173C4
:105AC000685F45585F53656E645F42797465000096
