:020000040800F2
:1000000000000120C91B0008C9140008CB14000817
:10001000CD140008CF140008D1140008000000001F
:10002000000000000000000000000000D3140008E1
:10003000D514000800000000D7140008D9140008E7
:100040007D180008111C0008111C0008111C000874
:10005000111C0008111C0008CD170008111C000815
:10006000111C00081518000849180008111C000888
:10007000111C0008111C0008111C0008111C0008AC
:10008000111C0008111C0008111C0008111C00089C
:10009000D91A0008111C0008111C0008111C0008C6
:1000A000111C0008111C0008111C0008111C00087C
:1000B000111C000891180008111C0008111C0008F0
:1000C000111C0008111C0008111C0008111C00085C
:1000D000111C0008A5170008111C0008111C0008BD
:1000E000111C0008111C0008111C0008111C00083C
:1000F000111C0008111C0008111C0008111C00082C
:10010000111C0008E9190008C5180008111C000896
:10011000111C0008111C0008111C0008111C00080B
:10012000111C0008111C0008111C0008111C0008FB
:1001300000000000000000000000000000000000BF
:1001400000000000000000000000000000000000AF
:10015000000000000000000000000000000000009F
:10016000000000000000000000000000000000008F
:10017000000000000000000000000000000000007F
:10018000000000000000000000000000000000006F
:10019000000000000000000000000000000000005F
:1001A000000000000000000000000000000000004F
:1001B000000000000000000000000000000000003F
:1001C000000000000000000000000000000000002F
:1001D000000000000000000000000000000000001F
:0401E0005FF8E0F1F3
:1001E800034613F8012B002AFBD1181A013870476F
:1001F80081F0004102E000BF83F0004330B54FEAD0
:1002080041044FEA430594EA050F08BF90EA020F3C
:100218001FBF54EA000C55EA020C7FEA645C7FEACF
:10022800655C00F0E2804FEA5454D4EB5555B8BFF2
:100238006D420CDD2C4480EA020281EA030382EA63
:10024800000083EA010180EA020281EA0303362DF5
:1002580088BF30BD11F0004F4FEA01314FF4801CC8
:100268004CEA113102D0404261EB410113F0004FDA
:100278004FEA03334CEA133302D0524263EB430391
:1002880094EA050F00F0A780A4F10104D5F1200E2F
:100298000DDB02FA0EFC22FA05F2801841F100018A
:1002A80003FA0EF2801843FA05F359410EE0A5F15E
:1002B80020050EF1200E012A03FA0EFC28BF4CF08F
:1002C800020C43FA05F3C01851EBE37101F0004545
:1002D80007D54FF0000EDCF1000C7EEB00006EEB52
:1002E8000101B1F5801F1BD3B1F5001F0CD34908DC
:1002F8005FEA30004FEA3C0C04F101044FEA445233
:1003080012F5800F80F09A80BCF1004F08BF5FEAB9
:10031800500C50F1000041EB045141EA050130BD99
:100328005FEA4C0C404141EB0101013C28BFB1F5AB
:10033800801FE9D291F0000F04BF01460020B1FAF6
:1003480081F308BF2033A3F10B03B3F120020CDAC9
:100358000C3208DD02F1140CC2F10C0201FA0CF0A7
:1003680021FA02F10CE002F11402D8BFC2F1200C0C
:1003780001FA02F120FA0CFCDCBF41EA0C019040C2
:10038800E41AA2BF01EB0451294330BD6FEA04040B
:100398001F3C1CDA0C340EDC04F11404C4F12002F6
:1003A80020FA04F001FA02F340EA030021FA04F308
:1003B80045EA030130BDC4F10C04C4F1200220FA5F
:1003C80002F001FA04F340EA0300294630BD21FA9D
:1003D80004F0294630BD94F0000F83F4801306BF63
:1003E80081F480110134013D4EE77FEA645C18BF57
:1003F8007FEA655C29D094EA050F08BF90EA020FEE
:1004080005D054EA000C04BF1946104630BD91EAE5
:10041800030F1EBF0021002030BD5FEA545C05D1E8
:100428004000494128BF41F0004130BD14F5800427
:100438003CBF01F5801130BD01F0004545F0FE419B
:1004480041F470014FF0000030BD7FEA645C1ABFD0
:10045800194610467FEA655C1CBF0B46024650EA07
:10046800013406BF52EA033591EA030F41F4002133
:1004780030BD00BF90F0000F04BF0021704730B5B9
:100488004FF4806404F132044FF000054FF000018E
:1004980050E700BF90F0000F04BF0021704730B54F
:1004A8004FF4806404F1320410F0004548BF404224
:1004B8004FF000013EE700BF42004FEAE2014FEA79
:1004C80031014FEA02701FBF12F07F4393F07F4F54
:1004D80081F06051704732F07F4208BF704793F057
:1004E8007F4F04BF41F40021704730B54FF460746A
:1004F80001F0004521F000411CE700BF50EA01026D
:1005080008BF704730B54FF000050AE050EA010215
:1005180008BF704730B511F0004502D5404261EB85
:1005280041014FF4806404F132045FEA915C3FF4C6
:10053800D8AE4FF003025FEADC0C18BF03325FEA63
:10054800DC0C18BF033202EBDC02C2F1200300FA14
:1005580003FC20FA02F001FA03FE40EA0E0021FA39
:1005680002F11444BDE600BF70B54FF0FF0C4CF427
:10057800E06C1CEA11541DBF1CEA135594EA0C0FD9
:1005880095EA0C0F00F0DEF82C4481EA030621EA14
:100598004C5123EA4C5350EA013518BF52EA03354F
:1005A80041F4801143F4801338D0A0FB02CE4FF001
:1005B8000005E1FB02E506F00042E0FB03E54FF031
:1005C8000006E1FB03569CF0000F18BF4EF0010E29
:1005D800A4F1FF04B6F5007F64F5407404D25FEA25
:1005E8004E0E6D4146EB060642EAC62141EA5551D8
:1005F8004FEAC52040EA5E504FEACE2EB4F1FD0C1A
:1006080088BFBCF5E06F1ED8BEF1004F08BF5FEA97
:10061800500E50F1000041EB045170BD06F0004649
:1006280046EA010140EA020081EA0301B4EB5C04F6
:10063800C2BFD4EB0C0541EA045170BD41F48011EE
:100648004FF0000E013C00F3AB8014F1360FDEBF13
:10065800002001F0004170BDC4F10004203C35DAEF
:100668000C341BDC04F11404C4F1200500FA05F372
:1006780020FA04F001FA05F240EA020001F0004213
:1006880021F0004110EBD37021FA04F642EB060189
:100698005EEA430E08BF20EAD37070BDC4F10C04B3
:1006A800C4F1200500FA04F320FA05F001FA04F277
:1006B80040EA020001F0004110EBD37041F1000163
:1006C8005EEA430E08BF20EAD37070BDC4F120056E
:1006D80000FA05F24EEA020E20FA04F301FA05F2D6
:1006E80043EA020321FA04F001F0004121FA04F27E
:1006F80020EA020000EBD3705EEA430E08BF20EA4E
:10070800D37070BD94F0000F0FD101F00046400087
:1007180041EB010111F4801F08BF013CF7D041EA09
:10072800060195F0000F18BF704703F0004652000D
:1007380043EB030313F4801F08BF013DF7D043EADE
:100748000603704794EA0C0F0CEA135518BF95EA94
:100758000C0F0CD050EA410618BF52EA4306D1D11B
:1007680081EA030101F000414FF0000070BD50EA3A
:10077800410606BF1046194652EA430619D094EAC4
:100788000C0F02D150EA013613D195EA0C0F05D1AE
:1007980052EA03361CBF104619460AD181EA030102
:1007A80001F0004141F0FE4141F470014FF00000BA
:1007B80070BD41F0FE4141F4780170BD70B54FF055
:1007C800FF0C4CF4E06C1CEA11541DBF1CEA1355D5
:1007D80094EA0C0F95EA0C0F00F0A7F8A4EB0504B7
:1007E80081EA030E52EA03354FEA013100F08880AE
:1007F8004FEA03334FF0805545EA131343EA126377
:100808004FEA022245EA111545EA10654FEA00262B
:100818000EF000419D4208BF964244F1FD0404F5E4
:10082800407402D25B084FEA3202B61A65EB030540
:100838005B084FEA32024FF480104FF4002CB6EBFD
:10084800020E75EB030E22BFB61A754640EA0C007D
:100858005B084FEA3202B6EB020E75EB030E22BFBD
:10086800B61A754640EA5C005B084FEA3202B6EBFE
:10087800020E75EB030E22BFB61A754640EA9C00BD
:100888005B084FEA3202B6EB020E75EB030E22BF8D
:10089800B61A754640EADC0055EA060E18D04FEA4B
:1008A800051545EA16754FEA06164FEAC30343EAEB
:1008B80052734FEAC2025FEA1C1CC0D111F4801FB8
:1008C8000BD141EA00014FF000004FF0004CB6E7B1
:1008D80011F4801F04BF01430020B4F1FD0C88BF50
:1008E800BCF5E06F3FF6AFAEB5EB030C04BFB6EB5B
:1008F800020C5FEA500C50F1000041EB045170BD4E
:100908000EF0004E4EEA113114EB5C04C2BFD4EB7A
:100918000C0541EA045170BD41F480114FF0000EFE
:10092800013C90E645EA060E8DE60CEA135594EA7A
:100938000C0F08BF95EA0C0F3FF43BAF94EA0C0F7D
:100948000AD150EA01347FF434AF95EA0C0F7FF4F2
:1009580025AF104619462CE795EA0C0F06D152EA46
:1009680003353FF4FDAE1046194622E750EA41062A
:1009780018BF52EA43067FF4C5AE50EA41047FF43B
:100988000DAF52EA43057FF4EBAE12E74FF0FF3CA0
:1009980006E000BF4FF0010C02E000BF4FF0010C71
:1009A8004DF804CD4FEA410C7FEA6C5C4FEA430CEA
:1009B80018BF7FEA6C5C1BD001B050EA410C0CBF39
:1009C80052EA430C91EA030F02BF90EA020F00209B
:1009D800704710F1000F91EA030F58BF994208BF02
:1009E80090422CBFD8176FEAE37040F001007047BF
:1009F8004FEA410C7FEA6C5C02D150EA013C07D116
:100A08004FEA430C7FEA6C5CD6D152EA033CD3D060
:100A18005DF8040B704700BF8446104662468C465A
:100A28001946634600E000BF01B5FFF7B7FF00288D
:100A380048BF10F1000F01BD4DF808EDFFF7F4FFB6
:100A48000CBF012000205DF808FB00BF4DF808ED41
:100A5800FFF7EAFF34BF012000205DF808FB00BF64
:100A68004DF808EDFFF7E0FF94BF012000205DF886
:100A780008FB00BF4DF808EDFFF7CEFF94BF01203B
:100A880000205DF808FB00BF4DF808EDFFF7C4FF34
:100A980034BF012000205DF808FB00BF4FEA410C7D
:100AA8007FEA6C5C02D150EA013C0AD14FEA430C60
:100AB8007FEA6C5C02D152EA033C02D14FF000009D
:100AC80070474FF0010070474FEA410212F50012DB
:100AD80015D211D56FF47873B3EB625212D94FEA7D
:100AE800C12343F0004343EA505311F0004F23FA67
:100AF80002F018BF404270474FF00000704750EABC
:100B0800013005D111F0004008BF6FF00040704778
:100B18004FF00000704700BF0348044B834202D0E7
:100B2800034B03B118477047E4010020E40100209B
:100B3800000000000548064B1B1AD90F01EBA30162
:100B4800491002D0034B03B118477047E401002055
:100B5800E40100200000000010B5064C237843B9DA
:100B6800FFF7DAFF044B13B10448AFF30080012309
:100B7800237010BDE401002000000000B848000800
:100B880008B5054B1BB105490548AFF30080BDE822
:100B98000840FFF7CFBF00BF00000000E8010020B9
:100BA800B848000840F0BF6040F40030014BD860FE
:100BB800704700BF00ED00E0C378F3B1144BDB6869
:100BC800DB43C3F30223C3F1040C0F21D94042785D
:100BD80002FA0CF283780B4013431B010278DBB254
:100BE8000C490A4482F80033037803F01F005B09BC
:100BF8000122824041F823207047037803F01F0147
:100C08005B0901228A402033024941F823207047BA
:100C180000ED00E000E100E0042806D04FF0E022FB
:100C2800136923F00403136170474FF0E02213693E
:100C380043F004031361704710B4294B5B6803F059
:100C48000C03042B2BD0082B2CD013B1254B03609D
:100C580001E0244B036022494B68C3F30313224C81
:100C6800E25CD2B20368D34043604A68C2F302220E
:100C7800A25CD2B223FA02F282604A68C2F3C222AC
:100C8800A25CD2B2D340C3604A68C2F3813217492A
:100C98008A5CD2B2B3FBF2F3036110BC7047114B0C
:100CA8000360D8E70E4A53685268C3F3834302339C
:100CB80012F4803F04D10E4A02FB03F30360CAE733
:100CC800074A526812F4003F04D0094A02FB03F3B2
:100CD8000360C0E7034A02FB03F30360BBE700BFFE
:100CE8000010024000127A000400002000000020DA
:100CF80000093D0021B1054A936903439361704798
:100D0800024A936923EA0003936170470010024086
:100D180021B1054AD3690343D3617047024AD369B5
:100D280023EA0003D36170470010024030B5CB7846
:100D380003F00F02964613F0100F03D091F802E06B
:100D48004EEA020E0B78FBB10568002301E0426110
:100D58000133072B17D801229A40B1F800C032EAB4
:100D68000C0CF5D19C004FF00F0C0CFA04FC25EA92
:100D78000C050EFA04F42543CC78282CE7D0482C2F
:100D8800E6D10261E4E705600B88FF2B25D94568A9
:100D9800002303E0CC78482C1CD00133072B1BD848
:100DA80003F1080C012202FA0CF2B1F800C032EA91
:100DB8000C0CF2D19C004FF00F0C0CFA04FC25EA45
:100DC8000C0C0EFA04F444EA0C05CC78282CE1D17A
:100DD8004261DFE70261E0E7456030BD83681942A0
:100DE80001D00120704700207047000030B587B05F
:100DF80004460D46038A9BB2CA8823F44053134322
:100E0800038283899BB2898828896A8901430A43B6
:100E180023F4B05323F00C031343A381A38A9BB29A
:100E2800AA8923F440731343A38201A8FFF704FFA0
:100E38001D4B9C4224D0039BA28912F4004F21D160
:100E480003EB830303EB83032A689200B3FBF2F3FB
:100E5800164AA2FB031252091101642002FB103347
:100E6800A28912F4004F16D11B0132330F4AA2FB9C
:100E78000323C3F343130B439BB2238107B030BD55
:100E8800049BD9E703EB830303EB83032A6852002F
:100E9800B3FBF2F3DCE7DB003233044AA2FB0323A3
:100EA800C3F342130B43E7E7003801401F85EB51BA
:100EB80029B183899BB243F40053838170478389A6
:100EC8009BB223F400539BB283817047C1F3421C49
:100ED80001F01F0101238B40BCF1010F08D0BCF1C8
:100EE800020F07D014303AB1026813430360704709
:100EF8000C30F8E71030F6E7026822EA03030360D3
:100F08007047C1F30801818070478088C0F30800EA
:100F18007047C1F3421201F01F0C012303FA0CF3CE
:100F2800012A0FD0022A11D0828A92B21340090AEC
:100F3800012202FA01F1028892B20A4053B15AB969
:100F480000207047828992B21340F0E7028A92B279
:100F58001340ECE70020704701207047014B5861AF
:100F6800704700BF0004014000F07F00014B18608B
:100F7800704700BF002C0040014B00229A60704768
:100F8800002C0040038C9BB223F002030B43038424
:100F98007047808E80B27047028A83890B40114265
:100FA80002D01BB90020704700207047012070470D
:100FB800C94389B20182704721B1054AD36B034303
:100FC800D3637047024AD36B23EA0003D3637047A5
:100FD80000800140014B9863704700BF00800140CA
:100FE800036823F002030360036843F0010303600E
:100FF8000023426812F0010F05D14FF6FF729342A9
:1010080001D00133F5E7436813F0010F6BD08B79FA
:10101800012B3BD0036823F080030360CB79012BBD
:1010280039D0036823F0400303600B7A012B37D0D3
:10103800036823F0200303604B7A012B35D0036843
:1010480023F0100303608B7A012B33D0036823F05D
:1010580008030360CB7A012B31D0036823F0040323
:1010680003608A78CB781B0643EA82730A7943EADD
:1010780002434A7943EA02530A88013A1343C36197
:10108800036823F00103036000231EE0036843F0B4
:1010980080030360C2E7036843F040030360C4E7CA
:1010A800036843F020030360C6E7036843F01003B6
:1010B8000360C8E7036843F008030360CAE70368EE
:1010C80043F004030360CCE70133426812F0010FD8
:1010D80003D04FF6FF729342F6D1436813F0010F25
:1010E80003D000207047002070470120704700009F
:1010F80010B5827A012393403F4AD2F8001241F09A
:101108000101C2F80012D2F81C126FEA030C21EA9E
:101118000301C2F81C12027BD2B9374AD2F80C126A
:101128000CEA0101C2F80C12B0F806E04488817A92
:1011380044EA0E44483142F831408488018890F8E6
:101148000AE041EA04410EF1480E02EBCE0251607A
:10115800027B012A20D0C27A002A37D12649D1F849
:1011680004220CEA0202C1F80422028932B9224997
:10117800D1F814220CEA0202C1F814220289012AC9
:101188002BD0427B012A2FD01B4AD2F8003223F001
:101198000103C2F8003210BD174AD2F80C121943E5
:1011A800C2F80C12B0F800E04488817A44EA0E4490
:1011B800483142F83140B0F804E0C188847A41EA05
:1011C8000E41483402EBC4025160C4E70A49D1F821
:1011D80004221A43C1F80422C7E70749D1F81422A8
:1011E8001A43C1F81422CCE70349D1F81C2213434F
:1011F800C1F81C32C8E700BF00640040034682689B
:1012080012F0806F09D1826812F0006F50D18268A5
:1012180012F0805F5DD0022000E0002030B58646E5
:1012280000F1180212019C5804F001049C500A7A3B
:10123800002A3FD100F1180212019C584D7AD1F8CA
:1012480000C045EA4C552C439C508A7A02F00F02A4
:101258008A720EF118024FEA021C03EB021254685C
:1012680024F00F04546054688D7A2C4354608C7BAE
:101278004A7B120442EA04620C7B42EA0422CC7ADA
:10128800224303EB0E1ECEF888218C7C4A7C120484
:1012980042EA04620C7C42EA0422C97B0A43CEF883
:1012A8008C2153F80C2042F0010243F80C2030BD89
:1012B8000120B3E700F1180424011D59D1F804C036
:1012C80042EACC0291F809C042EA0C022A431A51B8
:1012D800BBE7042070470000012919D002291BD060
:1012E80009B102207047836823F07B4323F47F030E
:1012F80023F47F4323F0FC03194A934225D016D8E0
:10130800184A934223D0023293420DD101207047EC
:101318008268154B1340EFE7836823F06F4323F48B
:101328007C031B0C1B04E7E79BB9022070470F4A9C
:10133800934210D002F50032934201D10120704748
:10134800094A934209D101207047002070470020C4
:10135800704700207047002070470020704700BF8A
:10136800000100080100000400030008000001104B
:1013780010B401F11B031B01C35803F004031372DB
:10138800002B3ED101F11B031B01C3585B0D1360F9
:1013980001F11B031C0100EB0313045904F00204C0
:1013A80054725C6804F00F0494725B681B0AD3746F
:1013B80000EB0113D3F8B841D472D3F8B841240A2A
:1013C8001473D3F8B841240C5473D3F8B841240EDD
:1013D8009473D3F8BC41D473D3F8BC41240A147471
:1013E800D3F8BC414FEA144C82F811C0D3F8BC3191
:1013F8001B0E937461B9C36843F02003C36010BC2B
:10140800704701F11B031B01C358DB085360BFE79A
:10141800036943F020030361F1E71AB143690B4301
:1014280043617047436923EA01034361704730B45D
:101438004FF0E0235D699C691969586100229A613F
:101448001A6942F001021A614FF0E0231B6903F0A8
:101458000113012BF8D04FF0E0231A6922F00102A2
:101468001A6100229A615D619C61196130BC704704
:1014780008B56FF00400FFF7CFFB084B1B68084A5C
:10148800A2FB0323C3F34753064A1370C3EB43126B
:1014980003EB8203DA00044B1A8008BD1400002015
:1014A80083DE1B43020200200002002008B5034B24
:1014B8001B8803FB00F0FFF7BAFF08BD00020020FD
:1014C8007047FEE7FEE7FEE7FEE7704770477047A4
:1014D8007047000082B00023019300932C4A1368E0
:1014E80043F4803313602A4B1B6803F400330093E2
:1014F800019B01330193009B1BB9019BB3F5A06FBE
:10150800F1D1234B1B6813F4003F06D0012300934D
:10151800009B012B04D002B0704700230093F7E72B
:101528001C4B1A6842F010021A601A6822F0030273
:101538001A601A6842F002021A60A3F580535A68CA
:101548005A605A685A605A6842F480625A605A6807
:1015580022F47C125A605A6842F4E8125A601A68F7
:1015680042F080721A600A4B1B6813F0007FFAD0B1
:10157800074B5A6822F003025A605A6842F0020286
:101588005A60034B5B6803F00C03082BF9D1C2E7E0
:10159800001002400020024008B5FFF79BFF08BD7D
:1015A80008B5104B1A6842F001021A6059680E4AD1
:1015B8000A405A601A6822F0847222F480321A6053
:1015C8001A6822F480221A605A6822F4FE025A60CD
:1015D8004FF41F029A60FFF7DFFF044B4FF00062E1
:1015E8009A6008BD001002400000FFF800ED00E01E
:1015F80008B500F093FA002008BD000010B582B0CD
:1016080001214420FFF776FB074C2368019301A9C9
:101618000648FFF78BFB6368009369460448FFF7A9
:1016280085FB02B010BD00BFD0480008001801407B
:101638000008014008B510B9274B01221A70264B43
:101648001B78E3B110212548FFF7C8FB20B108211A
:101658002248FFF7C3FB60B90A20FFF727FF1E4B9C
:1016680000221A7010211D48FFF7B8FB78B9012035
:101678000CE001211A48FFF7B1FB0128ECD010213A
:101688001648FFF7ABFB01280ED0002008BD082143
:101698001248FFF7A3FBC0B101211148FFF79EFBD9
:1016A800012814D00020F1E708210C48FFF796FB29
:1016B800012801D00020E9E701210948FFF78EFB46
:1016C80038B9054B01221A70E0E70220DEE7032053
:1016D800DCE70020DAE700BF18000020001801400E
:1016E8000008014070B50E461546002409E0074B76
:1016F8001B8813F0400FFAD0315D0448FFF701FC56
:101708000134AC42F3DB284670BD00BF003801400D
:1017180030B589B01E4B186800230222194680682C
:1017280001F0C4F801210420FFF7E4FA01214FF485
:101738008040FFF7DFFA174C236807936368069326
:10174800154D07A92846FFF7F1FA06A92846FFF71D
:10175800EDFA0DF1080C04F108030FCB8CE80F002B
:1017680005F5405561462846FFF740FB012128460C
:10177800FFF79EFB012240F225512846FFF7A6FB02
:10178800A369019301A8FFF717FA09B030BD00BF9C
:1017980028000020D84800080008014010B540F291
:1017A80025510748FFF7B5FB00B910BD044C20468A
:1017B800FFF7ABFB01462046FFF7A3FBF5E700BFA9
:1017C8000038014008B50A20FFF770FE01210D48D6
:1017D800FFF704FB012803D00120FFF7BFFB08BD7A
:1017E800094AD2F89431B3FA83F35B09C2F8943109
:1017F80002F5C032D2F89431B3FA83F35B09C2F828
:101808009431E9E7000801400080214208B50A2028
:10181800FFF74CFE08210848FFF7E0FA38B9074AF5
:10182800D2F89431B3FA83F35B09C2F894310820F3
:10183800FFF794FB08BD00BF0018014000002342D9
:1018480008B50A20FFF732FE10210848FFF7C6FA4C
:1018580038B9074AD2F89431B3FA83F35B09C2F86E
:1018680094311020FFF77AFB08BD00BF0018014033
:101878000080214208B5034B1878FFF775FBFFF786
:101888007BFB08BD1900002008B501210948FFF7B6
:1018980083FB012800D008BD074AD2F89431B3FA77
:1018A80083F35B09C2F8943101210248FFF780FBFA
:1018B800F1E700BF000400400080214208B5244B36
:1018C8001B7823B103212348FFF772FB08BD0121D0
:1018D8002048FFF761FB012814D002211D48FFF7BB
:1018E8005BFB0128EED11C4B1B8813BB1B4B002252
:1018F8001A60194B02221A80174B19881548FFF7EE
:1019080041FBDFE7144B1B88022BE6D1134B1B6806
:10191800134A934203D80133104A1360DDE70C4B96
:1019280001221A7000210C4B19800A48FFF72AFB84
:10193800D3E7022BE0D10748FFF72BFB094B1880B0
:10194800034B01221A70044B00221A80D4E700BF0F
:1019580003020020000C00400C02002008020020B6
:101968007F1A060004020020064B5B6B13F0450F3C
:10197800FAD0044B40F2FF529A63586900F008000D
:10198800704700BF0080014008B5114B1B68012B50
:1019980011D0104B00221A704FF48070FFF71AFB19
:1019A80000214FF48070FFF707FB0B4B01221A60F0
:1019B800084B187808BD094B00229A6040F24C4247
:1019C800DA600C20FFF7D0FF024B1870E4E700BF85
:1019D800180200201402002010020020008001409C
:1019E80008B5FFF7D1FF08BDF0B58BB001214FF066
:1019F8000070FFF78DF901210420FFF77BF903251B
:101A08008DF826504FF40063ADF8243004268DF885
:101A180027602D4C09A92046FFF788F94FF4805319
:101A2800ADF8243018238DF8273009A92046FFF790
:101A38007DF901248DF81F408DF820408DF81C6039
:101A480002268DF81D608DF81A508DF82140ADF8EA
:101A580018408DF822408DF81B5000258DF81E5037
:101A68008DF82350194F06A93846FFF7B9FA8DF8B3
:101A78001540ADF81050ADF8085049F6A403ADF87C
:101A88000A304FF6FF73ADF80C30ADF80E308DF814
:101A980013508DF812508DF8144002A8FFF728FB58
:101AA80014238DF804308DF807408DF805608DF803
:101AB800066001A8FFF780F8224631463846FFF74E
:101AC800ACFC0BB0F0BD00BF000801400064004052
:101AD80010B58CB007AA00210E48FFF749FC9DF805
:101AE8002A309DF82B209DF82C109DF82D009DF88C
:101AF8002E40049403900291019200939DF829309E
:101B08009DF828209DF82710034800F05FFE0CB0D0
:101B180010BD00BF00640040FC48000810B588B044
:101B28004FF4A060FFF73EF8FFF7A2FCFFF7F0FDC7
:101B3800FFF764FDFFF758FF1E4A01AB92E8030068
:101B480083E803001C4800F0A9FE0BE003F1200223
:101B58000DEB020111F81C2C013201F81C2C013389
:101B6800072BF3DD0120FFF765FD0028FAD00128D7
:101B7800F8D101AB03CBCDF81700CDF81B10082323
:101B88008DF8163041F21433049304238DF8143081
:101B980000238DF81530039303A90848FFF72EFB9F
:101BA800044621460548FFF797FB0128F9D1002391
:101BB800D6E700BFF4480008304900080064004038
:101BC8000C480D490D4A002302E0D458C450043390
:101BD800C4188C42F9D30A4A0A4C002301E0136066
:101BE8000432A242FBD3FFF7DBFC01F04DF8FFF70C
:101BF800FFFC704700000020E4010020E04C0008D2
:101C0800E40100206C030020FEE70000024B0146BF
:101C1800186800F025B800BF2800002070B50F4EE6
:101C28000C463168054611B901F00CF830602146C0
:101C3800284601F007F8431C03D14FF0FF34204633
:101C480070BDC41C24F00304A042F8D0211A284611
:101C580000F0F8FF0130F2D1EFE700BF1C020020CE
:101C6800F8B5CD1C25F0030508350C2D38BF0C251B
:101C7800002D064601DBA94203D90C23336000205E
:101C8800F8BD2E4F00F05CF83B681C4634BB294673
:101C98003046FFF7C3FF431C04464DD13C6821463C
:101CA800002940D1002C41D023683046E71800F0C5
:101CB800C9FF87423AD123680335ED1A25F0030599
:101CC80008350C2D38BF0C2530462946FFF7A6FFEE
:101CD80001302BD023682B4423600EE02268521B6E
:101CE8001ED40B2A16D96119A342256018BF596062
:101CF800636808BF396062514B60304600F026F8CF
:101D080004F10B00231D20F00700C21A1CBF1B1A88
:101D1800A350B5E76268A3420CBF3A605A60ECE78B
:101D280023466468B2E70C464968B9E70C23304695
:101D3800336000F00BF8A2E70560DEE72002002020
:101D4800014800F0C5BF00BF64030020014800F04F
:101D5800C0BF00BF64030020002B2DE9F04F1D46D3
:101D6800BBBF03F100431D4600232D2389B0144651
:101D7800DDE91598DDE9126BB8BF144628F0200A92
:101D8800149ABAF1460F137005D0BAF1450F00D175
:101D98000136022300E0032307AA049206AACDE92C
:101DA8000292CDE9003622462B4601F039F8B8F107
:101DB800670F074619D11BF0010F0ED007EB060875
:101DC8000022002320462946FEF736FE08B1CDF84A
:101DD8001C803022079B434521D33846079B179A1E
:101DE800DB1B136009B0BDE8F08FB8F1470FE2D0F4
:101DF800BAF1460F00EB0608E2D10378302B0AD17E
:101E08000022002320462946FEF716FE18B9C6F11F
:101E18000106C9F80060D9F800309844D0E7591C89
:101E280007911A70D6E7F7B50029B6BF2D232B23E3
:101E3800494209290270437029DD0DF107031D4647
:101E48000A27B1FBF7F61A4607FB1614303402F8D6
:101E5800014C0C46632C314603F1FF33F1DC303181
:101E6800941E03F8011C2346411CAB420AD30DF112
:101E780009039B1AAC4288BF002302330344181A93
:101E880003B0F0BD13F8016B01F8016FEDE73023E3
:101E980030318370C170031DF1E700002DE9F04F68
:101EA80091B00C46DDF8688016461F46054600F0DE
:101EB80091FE036818460893FEF792F900230E93E3
:101EC800D8F800300990073323F0070303F108021C
:101ED80094F818A0D4F800B0C8F80020D3E9008915
:101EE80029F000430B93CDF828804FF0FF32DDE94D
:101EF8000A01C4E91289A14BFEF7D0FD70BBDDE9E8
:101F08000A014FF0FF329D4BFEF7AAFD30BB0022BD
:101F1800002340464946FEF799FD10B12D2384F869
:101F28004330974A974BBAF1470F94BF904698466B
:101F380003234FF0000923612BF004032360334689
:101F48002146284600970FAA00F0DEF9013040F03C
:101F58009A804FF0FF3011B0BDE8F08F42464B46F3
:101F680040464946FEF79AFD48B14B46002BB8BF9C
:101F78002D23854AB8BF84F84330844BD3E7636880
:101F88005A1C29D10623636000224BF48063236026
:101F980006920EAACDE904A20DAA03920DF133020E
:101FA800CDE9013263684246009328464B46FFF765
:101FB800D3FEBAF1670F80460D9915D1CB1C3BDBD8
:101FC8006368994238DC0E9B994255DB236821618E
:101FD800D80745D54B1C42E00AF0DF02472AD3D187
:101FE800002BD1D10123CEE7BAF1470F07D1C81C86
:101FF80025DB63688B4222DB4FF0670AE3E7BAF11F
:10200800650F1FD85246013904F150000D91FFF7B2
:102018000AFF0E9A81461318012A236102DC2268FE
:10202800D20701D5013323619DF83330002B86D0C8
:102038002D2384F8433082E74FF0650AE2E74FF03A
:10204800450ADFE7BAF1660FBDD1002963680BDDE9
:10205800216113B92268D00702D501330B442361EB
:102068004FF00009A165DFE713B92268D20701D54F
:102078000233F4E70123F2E70029CCBF0122C1F1C2
:1020880002021344EBE723685A0507D42369424642
:1020980031462846B84701302BD15AE7BAF1650FC7
:1020A80040F2DC80D4E9120100220023FEF7C4FCD0
:1020B800002833D0012331462846354AB847013035
:1020C8003FF447AFDDE90D38434502DB2368D80705
:1020D8000FD5DDE9082331462846B84701303FF4DB
:1020E80038AF4FF0000908F1FF3804F11A0AC84563
:1020F80009DC23689B0700F10281E0680F9B984286
:10210800B8BF184627E70123524631462846B84744
:1021180001303FF41EAF09F10109E8E70D9B002BE0
:1021280038DC012331462846194AB84701303FF4C4
:1021380010AFDDE90D3959EA030302D12368D90745
:10214800D7D5DDE9082331462846B84701303FF4A2
:1021580000AF4FF0000A04F11A0B0D9B5B42534588
:1021680001DC4B4693E701235A4631462846B847D7
:1021780001303FF4EEAE0AF1010AEEE7FFFFEF7F10
:102188004A4900084E4900085249000856490008C3
:102198005A490008A36DDDF838A05345A8BF534637
:1021A800002B994636DC4FF0000B29EAE97904F157
:1021B8001A02A36D0A93A3EB09035B4531DC0D9B5F
:1021C8009A453ADC2368DA0737D40D9BAAEB030952
:1021D8000A9BAAEB03039945A8BF9946B9F1000FDA
:1021E80033DC4FF0000829EAE97904F11A0B0D9B5A
:1021F800AAEB0303A3EB090343457FF77AAF012357
:102208005A4631462846B84701303FF4A2AE08F195
:102218000108ECE7424631462846B8470130C2D1AA
:1022280097E60123314628460A92B84701303FF421
:1022380090AE0A9A0BF1010BBBE73146DDE90823A2
:102248002846B8470130C0D183E60A9A4B46314642
:1022580028464244B8470130C3D17AE6DDF838A0B1
:10226800BAF1010F01DCDB0736D5012342463146BE
:102278002846B84701303FF46CAEDDE90823314603
:102288002846B84701303FF464AED4E91201002271
:1022980000230AF1FF3AFEF7CFFBC0B9534608F115
:1022A800010231462846B84701300CD151E60123D6
:1022B8005A4631462846B84701303FF44AAE08F13D
:1022C8000108D045F3DB4B4604F15002E0E64FF03D
:1022D800000804F11A0BF4E701234246E1E7012361
:1022E8004A4631462846B84701303FF432AE08F135
:1022F8000108E3680F995B1A4345F0DCFDE64FF0EF
:10230800000804F11909F4E72DE9F0471646984644
:102318008A680B6907469342B8BF1346336091F841
:1023280043200C46DDF820900AB10133336023685E
:10233800990642BF336802333360256815F00605F5
:1023480006D104F1190AE36832689B1AAB422BDC08
:1023580094F843302268003B18BF0123920630D41A
:102368004146384604F14302C847013023D0236868
:10237800226903F00603042B14BF002533684FF0CD
:10238800000608BFE56804F11A0408BFED1A54F8FE
:10239800123C08BF25EAE5759342C4BF9B1AED18A5
:1023A800B5421AD1002008E001235246414638467A
:1023B800C847013003D14FF0FF30BDE8F087013541
:1023C800C1E73020E11881F843005A1C94F8451001
:1023D8002244023382F84310C2E7012322464146D1
:1023E8003846C8470130E6D00136D9E72DE9FF471E
:1023F8000F7E9146782F80460C469A460C9D01F137
:10240800430207D8622F0AD8002F00F0E080582F27
:1024180000F0BB8004F1420684F842703AE0A7F16C
:102428006303152BF6D801A151F823F08D24000879
:10243800A12400081D2400081D2400081D240008EC
:102448001D240008A12400081D2400081D240008DC
:102458001D2400081D240008BD250008312500089A
:10246800732500081D2400081D240008DF25000826
:102478001D240008312500081D2400081D2400081B
:102488007B2500082B6804F142061A1D1B682A6088
:1024980084F842300123ABE0236829681F0601F164
:1024A8000400286001D50D6803E05E06FBD5B1F98C
:1024B8000050002D61687ADA2D20002984F8430045
:1024C800A1602DDA0A235E486D421646B5FBF3F18A
:1024D80003FB1157C75D06F8017D2F46BB420D4629
:1024E800F4D9082B0BD12368DF0708D52369616865
:1024F8009942DEBF302306F8013C06F1FF36921BF5
:1025080022614B4621464046CDF800A003AAFFF7BA
:10251800FBFE013071D14FF0FF3004B0BDE8F08709
:1025280023F004032360CDE72B682068191D296078
:10253800050601D51D6802E04106FBD51D886F2FF1
:1025480014BF0A2308233E48002184F84310666814
:10255800002EA660B9DB216821F004012160002D5E
:10256800B3D1002EB1D11646BBE7236843F0200350
:1025780023607827334884F84570296823680E1D3E
:102588002E601E0603D50D6804E02D48F3E75D06AE
:10259800F9D50D88D90744BF43F0200323600DB156
:1025A8001023D1E7236823F020032360F8E70A23E8
:1025B8002348CCE72B682668181D61692860350612
:1025C8001B6801D5196002E07006FBD5198000234D
:1025D8001646236195E72B6800211A1D2A601E689C
:1025E8006268304600F076FB08B1801B6060636863
:1025F8002361002384F8433083E732464946404646
:102608002369D047013086D023689B0714D4E0683B
:10261800039B9842B8BF18467FE7012332464946D4
:102628004046D04701303FF476AF0135E36803995F
:102638005B1AAB42F1DCEAE7002504F11906F5E77D
:102648005C4900086D490008002310B50446C0E93C
:102658000033C0E90433836081814366C2818361AA
:10266800194608225C3000F0ADFA054B246263621B
:10267800044BA362044BE362044B236310BD00BF09
:102688001D2A00083F2A0008772A00089B2A00080C
:10269800024A0349034800F07BB800BF1C00002031
:1026A800994500082C00002041680C4B10B5994250
:1026B800044601D001F06CFFA168094B994202D091
:1026C800204601F065FFE168064B994204D0204698
:1026D800BDE8104001F05CBF10BD00BF240200201F
:1026E8008C020020F402002010B50B4B0B4C0C4A56
:1026F80020461A6004210022FFF7A6FF04F16800B3
:1027080001220921FFF7A0FF04F1D0000222BDE851
:1027180010401221FFF798BF5C030020240200201C
:1027280099260008014800F0D3BA00BF65030020CD
:10273800014800F0CEBA00BF6503002010B504467A
:10274800FFF7F0FF236A1BB1BDE81040FFF7F0BFA9
:10275800044B2362044B1B68002BF5D1FFF7C4FF21
:10276800F2E700BFB12600085C0300200EB403B5F1
:10277800014603AB054853F8042B0068019301F0A8
:102788006FFD02B05DF804EB03B07047280000202D
:102798002DE9F8430746884614460026D4E90195F2
:1027A800B9F1010905D52468002CF7D13046BDE8F8
:1027B800F883AB89012B07D9B5F90E30013303D063
:1027C80029463846C04706436835E9E70FB407B5D8
:1027D800064904AB086853F8042B8168019301F09B
:1027E8003FFD03B05DF804EB04B0704728000020FB
:1027F800036A70B505460E4684680BB9FFF79EFF5D
:10280800636EDB0705D4A389980502D4A06D00F098
:102818005FFAA389190702D52369002B35D1214610
:10282800284600F079F980B34FF0FF35636EDA0778
:1028380005D4A3899B0502D4A06D00F04AFA284666
:1028480070BD002B15DB23685A1C22601970A36821
:1028580016F8011F013BA3600029F2D1002B16DAFC
:1028680022460A21284600F018F90130DCD00A2552
:10287800DCE7A2699A4201DC0A29E4D1224628460B
:1028880000F00BF90130E2D1CEE7013EDFE7236823
:102898005A1C22600A221A70E9E70000024B01461E
:1028A8001868FFF7A5BF00BF280000202DE9F743EF
:1028B8001D46574B04461F680E46904627B13B6A93
:1028C80013B93846FFF73AFFB8F1020F06D0B8F14E
:1028D800010F00F29A80002DC0F29780636ED9072D
:1028E80005D4A3899A0502D4A06D00F0F1F9214618
:1028F800384601F04DFE616B41B104F14403994241
:1029080002D0384601F0B8F8002363630023A361BE
:102918006360A3891B0603D53846216901F0ACF82A
:10292800A389B8F1020F23F44A6323F00303A381B8
:1029380061D001AB6A462146384601F051FEA389B1
:102948001843A0812DBB009D2846FFF75FF9064676
:10295800002852D1DDF80090A94540D14FF0FF354D
:10296800B4F90C3043F00202A2810022A26004F103
:1029780047022260226101226261626ED60704D496
:10298800980502D4A06D00F0A4F9284603B0BDE86C
:10299800F083002ED8D03B6A13B93846FFF7CEFE35
:1029A800B8F1010F08BFA389C4E9046504BF43F067
:1029B8000103A381B4F90C30266013F008021ED07D
:1029C800D90741BF00226D42A260A56158BFA5602A
:1029D800626ED20701D49B0513D50025D5E748467A
:1029E800FFF714F906460028B8D0A3894D4643F0EE
:1029F8008003A381CFE70025B2E7A946F5E7A260E7
:102A0800E6E7A06D00F065F9E7E74FF0FF35BCE7B2
:102A18002800002010B50C46B1F90E1000F000F99E
:102A28000028ABBF636DA3891B1823F48053ACBF88
:102A38006365A38110BD2DE9F0411F468B890546CA
:102A4800DB050C46164605D502230022B1F90E1007
:102A580000F0D4F8A389324623F48053A381284692
:102A68003B46B4F90E10BDE8F04100F0FBB810B5D4
:102A78000C46B1F90E1000F0C1F8431CA38915BF2C
:102A8800606523F4805343F48053A38118BFA38166
:102A980010BDB1F90E1000F0A1B8F8B50E461446F5
:102AA800054618B1036A0BB9FFF748FEA369A3608E
:102AB800A3891A0701D5236943B92146284600F09E
:102AC8002BF818B14FF0FF373846F8BD2368226954
:102AD800F6B2981A63693746834205DC21462846D0
:102AE80001F056FD0028EDD1A368013BA3602368DF
:102AF8005A1C22601E706269431C9A4204D0A38942
:102B0800DB07E1D50A2EDFD12146284601F040FD3A
:102B18000028D9D0D6E7000038B5294B05461868F3
:102B28000C4618B1036A0BB9FFF708FEB4F90C306C
:102B3800190722D4DA0607D409222A6043F0400391
:102B48004FF0FF30A38133E0580712D5616B41B1D4
:102B580004F14403994202D0284600F08DFF002377
:102B68006363A38923F02403A3810023636023699B
:102B78002360A38943F00803A38123694BB9A38980
:102B880003F42073B3F5007F03D02146284601F0F3
:102B98004CFDB4F90C3013F001020AD00022A260F7
:102BA80062695242A261226942B913F08000C5D11C
:102BB80038BD990758BF6269A260F4E70020F7E7BB
:102BC8002800002003460244934200D1704703F8CE
:102BD800011BF9E7004870476801002038B5002359
:102BE800054D044608462B6001F01AFE431C02D12D
:102BF8002B6803B1236038BD6003002038B5044654
:102C0800084611460022054D2A601A4601F030FE9A
:102C1800431C02D12B6803B1236038BD6003002038
:102C280038B50446084611460022054D2A601A4662
:102C380001F026FE431C02D12B6803B1236038BD86
:102C48006003002038B50023054D044608462B6074
:102C580001F01EFE431C02D12B6803B1236038BD6E
:102C68006003002038B50446084611460022054D89
:102C78002A601A46FEF736FD431C02D12B6803B1C1
:102C8800236038BD6003002070B500260C4D0D4C44
:102C9800641BA410A64209D101F00AFE00260A4DC1
:102CA8000A4C641BA410A64205D170BD55F8043B1C
:102CB80098470136EEE755F8043B98470136F2E7A6
:102CC800D84C0008D84C0008D84C0008DC4C000848
:102CD80070477047034610B5C9B20244934218467C
:102CE80001D1002003E0047801338C42F6D110BDF5
:102CF8000A44914200F1FF3300D1704710B511F832
:102D0800014B914203F8014FF9D110BD2DE9F74F5E
:102D180003690C690746A3427EDB013CA30000F16E
:102D2800140501F11408009305EB8403019358F886
:102D3800243055F8242001339A42B2FBF3F608EB0D
:102D480084092ED34FF0000AC446AE46D3465CF839
:102D5800043B98B206FB00A01B0C020C06FB0323E5
:102D6800DEF8002080B292B2121A5A44DEF800004F
:102D78004FEA134A9BB2C3EB224303EB104392B2D0
:102D880042EA0342E1454FEA234B4EF8042BDED2D8
:102D9800009BEB582BB9019B043B9D421A462FD34D
:102DA8003C61384601F02CF9002825DB2946002033
:102DB80058F8042BD1F800C01FFA82FE1FFA8CF3D2
:102DC800A3EB0E030344120CC2EB234202EB1C429A
:102DD8009BB243EA0243C1454FEA224041F8043B13
:102DE800E6D255F8242005EB840322B9043B9D4222
:102DF8001A460BD33C610136304603B0BDE8F08F6C
:102E08001268043B002ACBD1013CC6E71268043B98
:102E1800002AEFD1013CEAE70020EEE700000000BD
:102E28002DE9F04F14461D46C76997B08346CDE992
:102E38000445239E7FB91020FEF7E8FE0246CBF832
:102E48001C0020B9EF21A24BA24801F04DFCC0E9BB
:102E580001770760C760DBF81C30196859B15A68F8
:102E6800012393404A608B60584600F08DFE002293
:102E7800DBF81C301A602B1EAFBF0023012223F0A1
:102E880000430593A8BF3360059F934BB8BF3260DA
:102E9800BB4319D142F20F73229A1360C7F313038D
:102EA800234300F0E085249B53B98C4B21E08C4BE5
:102EB80008930833249A1360089817B0BDE8F08F78
:102EC800864B08930333F5E7DDE90423CDE90C23AA
:102ED800DDE90C0100220023FDF7AEFD804650B16C
:102EE8000123229A1360249B13B17E4B249A13600A
:102EF8007D4B0893E0E714AB019315AB009358465C
:102F0800DDE90C2301F02CF9C7F30A560390002ED3
:102F18007BD0DDE90C010D9BA6F2FF36C3F313034A
:102F280043F07F5343F44013CDF84C8019460022F8
:102F38006E4BFDF761F960A3D3E90023FDF714FB9D
:102F48005FA3D3E90023FDF759F9044630460D463F
:102F5800FDF7A0FA5CA3D3E90023FDF705FB0246C1
:102F68000B4620462946FDF749F904460D46FDF76C
:102F7800ABFD00220746002320462946FDF766FDE3
:102F880040B13846FDF786FA22462B46FDF754FD38
:102F980000B9013F162F55D8DDE90C01544B03EB5E
:102FA800C703D3E90023FDF751FD00284CD00023C7
:102FB800013F1293149B9B1B5A1E49BFC3F1010387
:102FC8000023069300230A9254BF06930A93002F06
:102FD8003CDB0A9B0F973B440A9300230B93209BEF
:102FE800092B00F28980052BC4BF043B2093209B4A
:102FF800C8BF0024A3F10203D8BF0124032B00F2A9
:103008008680DFE803F02B383657DDE914631E4469
:1030180006F23243202BC1BFC3F140039F4006F2A2
:10302800124324FA03F3D6BFC3F1200347EA03008F
:1030380004FA03F0FDF71EFA0122A1F1F873013E2C
:10304800139273E70123B4E71290B3E7069BDB1BE7
:1030580006937B420B9300230F93C0E700230E9344
:10306800219B002B56DC012399461A46099321928D
:103078000CE00123F3E700230E93219BFB1803F1D7
:10308800010909934B46012BB8BF012300210422F3
:10309800DBF81C0002F114059D423FD941605846F7
:1030A80000F032FD089000283BD1024640F2AF11F3
:1030B800104BC9E60123DFE761436F63A787D23F5F
:1030C800B3C8608B288AC63FFB799F501344D33F0F
:1030D8008B490008A24900080000F07F87490008D2
:1030E8007E4900085B4900085A4900080000F83F7B
:1030F800B04A0008034A0008012400230E942093D4
:103108004FF0FF330022994609931223AFE70123BA
:103118000E93F5E7219B99460993B7E701315200D1
:10312800B8E7DBF81C30089AB9F10E0F1A606FD8AF
:10313800002C6DD0002F36DDA14B07F00F0203EBFA
:10314800C203F805D3E90034CDE910344FEA271457
:1031580017D5DDE90C019B4B4FF00308D3E9082391
:10316800FDF72CFBCDE9040104F00F04954D5CB983
:10317800DDE91023DDE90401FDF720FBCDE90401B9
:103188002BE04FF00208F1E7E10709D5DDE910016E
:10319800D5E90023FDF7E8F9CDE9100108F10108A8
:1031A80064100835E3E700F00781DDE90C017C4293
:1031B800834B04F00F0203EBC203D3E90023FDF7AE
:1031C800D3F94FF002080023CDE904017D4D241105
:1031D800002C40F0E580002BD0D1DDE90445129B9E
:1031E800002B00F04C81002220462946764BFDF743
:1031F8002DFC002800F04381B9F1000F00F03F8159
:10320800099B002B00F3E480DDE90C34CDE904349C
:10321800159B002B02DB0E2F40F342820E9A002AE8
:1032280040F0678200250B9CDDF81880B8F1000F8C
:103238000DD00A9B002B0ADD4345A8BF4346069ADA
:10324800A8EB0308D21A06920A9AD31A0A930B9B80
:103258000BB30E9B002B00F0A682002C00F0A1827D
:1032680029462246584600F005FE039A01460546BF
:10327800584600F057FD03990646584600F084FC6E
:103288000B9B1B1B0B9300F0918231460B9A5846FF
:1032980000F0F0FD03900121584600F02DFD0F9B32
:1032A8000446002B00F084821A460146584600F076
:1032B800E1FD209B0446012B03DC049B002B00F05E
:1032C8007C820026236904EB8303186900F0C4FCA0
:1032D8000F96C0F120000A9B184410F01F0000F060
:1032E8009182C0F12003042B40F38182069BC0F138
:1032F8001C00034406930A9B804403440A93069BDC
:10330800002B05DD1A465846039900F00DFE039080
:103318000A9B002B05DD21461A46584600F004FE9C
:103328000446129B002B00F076822146039800F099
:1033380067FE002880F26F8200230A22584603990C
:1033480000F044FC0E9B7E1E0390002B00F05C8274
:10335800002329460A22584600F038FC099B0546F6
:10336800002B03DC209B022B00F35E82B8F1000FD8
:1033780005DD29464246584600F0D6FD05460F9B16
:10338800002B00F0D0825846696800F0BDFB074664
:10339800002840F07F82024640F2EF210B4B53E5B4
:1033A800E20706D5D5E90023FDF7DEF8012308F189
:1033B8000108641008350BE74FF002080DE700BF5D
:1033C800B04A0008884A00080000F03F034A000895
:1033D800204600222946AC4BFDF7C6F8CDE904018A
:1033E800099C7E1E08F101084046FDF753F8DDE907
:1033F8000423FDF7B9F8A54B0022FCF7FFFEA1F165
:103408005073CDE910011193002C3BD1DDE9040183
:1034180000229F4BFCF7F0FE02460B46CDE9042341
:10342800DDE91023FDF730FB002840F05781DDE986
:10343800102101F10043DDE90401FDF707FB002835
:103448003FF4E2AE00242546219BDDF820A0DE43B0
:103458004FF000082146584600F096FB002D00F07A
:10346800A980B8F1000F05D0A84503D041465846B9
:1034780000F08AFB2946584600F086FB9AE03E4653
:103488004C46B1E7834B03EBC40353E90201089BA5
:103498001C440E9B002B4AD002460B4600207E4956
:1034A800FDF78CF9DDE91023FCF7A6FECDE9100144
:1034B800DDF820A0DDE90401FDF706FB0546FCF771
:1034C800E9FF02460B46DDE90401FCF795FE3035BD
:1034D80002460B46CDE90401DDE910010AF8015B5B
:1034E800FDF7D2FA002865D1DDE9042300206B49F5
:1034F800FCF782FE02460B46DDE91001FDF7C4FA2F
:10350800002840F00D81A24500F0EA80DDE91001B5
:1035180000225D4BFDF728F80022CDE91001DDE916
:103528000401594BFDF720F8CDE90401C2E7DDE9B4
:103538001023FDF719F8A046CDE91001DDF820A009
:10354800DDE90401FDF7C0FA0546FCF7A3FF0246D2
:103558000B46DDE90401FCF74FFE02460B46303509
:103568000AF8015BA245CDE904234FF0000223D1FC
:10357800DDE91001484BFCF741FE02460B46DDE948
:103588000401FDF781FA002840F0CA80DDE9102324
:1035980000204149FCF730FE02460B46DDE90401F4
:1035A800FDF754FA70B1C2461AF8013C08F1FF3829
:1035B800302BF8D0374655E0334BFCF7D5FFCDE933
:1035C8000401BDE7DDE90C34CDE90434159B002B7B
:1035D800FFF628AE0E2F3FF725AE2E4B03EBC703A1
:1035E800D3E90034CDE90634219B002B02DAB9F186
:1035F800000F64D0DDE90445DDF820A0DDE90623ED
:1036080020462946FDF7DAF8FDF75EFA0646FCF78C
:1036180041FFDDE90623FCF7A7FF02460B462046DB
:103628002946FCF7E9FD06F130040AF8014B089C2D
:103638000246AAEB0404A1450B4640F08280FCF741
:10364800DDFDDDE9062304460D46FDF71DFA0028D9
:1036580065D1DDE9062320462946FDF7EDF908B1D5
:10366800F3075CD45846039900F08EFA00238AF8D1
:103678000030229B01371F60249B002B3FF41CACB9
:10368800C3F800A018E400BF0000244000001C405C
:1036980000001440B04A00080000E03F0000F03F7E
:1036A800A24B03EBC703D3E90034CDE90634219BD1
:1036B800002B9FDAB9F1000F9CDC7FF4C3AEDDE983
:1036C800060100229A4BFCF74FFFDDE90423FDF7C2
:1036D800D1F9044600287FF4B5AE3E462546B4E04D
:1036E800DDE90C34CDE90434159B002B01DB0E2FEA
:1036F800D6DD209A012A36DC139A82B303F23343CB
:103708000B9CDDF81880069A01211A4406920A9A41
:1037180058461A440A9200F0EFFA054686E53E46F6
:1037280053469A4613F8012D392A06D1089A9A4227
:10373800F7D13022089901360A701A7801321A70C6
:1037480038E700227B4BFCF70FFF002200230446DA
:103758000D46FDF771F900283FF450AF82E7149B3E
:10376800C3F13603CCE70B9B09F1FF34A34208DB16
:10377800B9F1000FA3EB04040EDB4B46DDF818800B
:10378800C1E70B9B0F9AE31A1A440B944B4600248B
:10379800DDF818800F92B6E7069BA3EB0908002313
:1037A800B1E7039E71E50B9A039970E5039672E5FC
:1037B800209B012B17DC049BABB9059BC3F31303B8
:1037C8009BB9059B23F00046360D360536B1012618
:1037D800069B013306930A9B01330A930F9B002B28
:1037E8007FF470AD0F96012075E50026F6E73FF4EB
:1037F80086AD069A1C331A4406920A9A98441A44CB
:103808000A927CE50346F4E7099B002B2BDC209BFE
:10381800022B09DC27E0B9F1000F1DDC209B022BED
:103828001ADD3E46CDF82490099B002B7FF40CAEA0
:1038380021460522584600F0C9F901460446039876
:1038480000F0DEFB00287FF7FFAD3123DDF820A074
:1038580001360AF8013BFBE50E9B3E46CDF8249065
:10386800002B7FF483AD089F21460398FFF74EFA9B
:10387800089B00F13009099A07F8019BFB1A9A4244
:1038880040F3CB8000230A225846039900F09EF9A2
:103898000390E9E72A6905F10C01023292000C3025
:1038A800FFF726FA01223946584600F03DFBA846A4
:1038B8000546089B03F1010ADDE9082313440A932E
:1038C800049B03F001030B930AF1FF33214603988D
:1038D8000693FFF71BFA4146099000F13009039857
:1038E80000F08EFB2A4621460746584600F0A4FB06
:1038F800C268014602B3584600F046F9002F3ADA8A
:1039080001220399584600F00FFB2146039000F06E
:1039180077FB002803DC29D119F0010F26D0B9F173
:10392800390F1DD132E02846C1E700BFB04A000870
:1039380000001440000024400E90039800F060FB43
:103948000E990C90584600F01FF90C9A5ABB209B10
:1039580053B90B9B43B9B9F1390F17D0002F05DDC7
:10396800099B03F1310901E0002F2ADADDF818A0DC
:103978000AF8019B6EE5209B3B4304D1049B03F0AE
:103988000103002BBCD0B9F1390F36D13923069F7A
:1039980007F8013BBA461AF8013C013F392B5AD0C7
:1039A80001333B7056E5002F06DB209B3B4306D1D5
:1039B800049B03F0010313B9002AA1DCD6E7002A0F
:1039C800E1DC0A9B574653450AF8019C2ED0002398
:1039D8000A220399584600F0F9F8A84503904FF0D9
:1039E80000034FF00A02414658460BD100F0EEF8AA
:1039F800804605460AF1010A66E7DDF818A009F1D4
:103A08000109B5E700F0E2F82946804600230A22BA
:103A1800584600F0DBF80546ECE7099B4FF0000834
:103A2800002BCCBF1F460127089B1F440122039986
:103A3800584600F079FA2146039000F0E1FA002890
:103A4800A8DC02D119F0010FA4D1BA4617F8013D3C
:103A5800302BFAD0FEE4089BBB429BD13123089A55
:103A680001361370F6E4249B002B7FF420AA014B47
:103A7800FFF73FBA7E49000838B50546002940D00F
:103A880051F8043C0C1F002BB8BFE418FEF758F996
:103A98001C4A136833B9636014602846BDE838408F
:103AA800FEF754B9A34208D9206821188B4201BFF8
:103AB80019685B6809182160EDE71A465B680BB165
:103AC800A342FAD911685018A0420BD120680144CA
:103AD800501883421160E0D118685B680844106090
:103AE8005360DAE702D90C232B60D6E72068211847
:103AF8008B4201BF19685B680918216063605460D4
:103B0800CBE738BD2002002070B5C66904460D46D3
:103B180076B91020FEF77AF80246E06120B96B21E9
:103B2800174B184800F0E0FDC0E901660660C66062
:103B3800E669F36883B1E369DB6853F82500B8B92F
:103B4800012101FA05F6721D2046920000F0EAFDF7
:103B580060B1C0E901560EE021220421204600F0A0
:103B6800E1FDE369F060DB68002BE4D1002070BD63
:103B7800026843F825200023C0E90333F7E700BFB4
:103B88008B490008144A000870B5C66905460C46FA
:103B980076B91020FEF73AF80246E86120B98F217D
:103BA800084B094800F0A0FDC0E901660660C66040
:103BB8003CB1EB696268DB6853F82210216043F876
:103BC800224070BD8B490008144A00082DE9F041D5
:103BD80007460C461E4600200D6901F1140CDCF85E
:103BE8000030013099B202FB01611E0C0B0C02FB84
:103BF800063389B201EB034185424FEA13464CF87C
:103C0800041BECDC0EB3A368AB4219DC61683846D0
:103C18000131FFF779FF804628B90246BA210C4BDB
:103C28000C4800F061FD226904F10C010232920097
:103C38000C30FFF75DF821463846FFF7A5FF4446EC
:103C480004EB850301355E6125612046BDE8F081FE
:103C5800034A0008144A00080346B0F5803F3ABFFB
:103C6800030410200020B3F1807F3CBF1B02083002
:103C7800B3F1805F3CBF1B010430B3F1804F03D325
:103C8800002B0ADB013070479B0001D502307047DA
:103C98005B0001D503307047202070470368024657
:103CA80013F007000BD0D90721D4980749BF5B0848
:103CB8009B08012013605CBF02201360704799B213
:103CC80009B910201B0CD9B209B908301B0A190709
:103CD80004BF1B090430990704BF9B080230D907A9
:103CE80003D45B0800F1010003D013607047002083
:103CF800704720207047000010B50C460121FFF7DF
:103D080003FF024628B940F24511044B044800F06D
:103D1800EBFC01234461036110BD00BF034A0008A6
:103D2800144A00082DE9F04F14460A6923690F4622
:103D38009A42A2BF23460C461F46D4F810A0D7F8D3
:103D48001090A36861680AEB0906B34285B0B8BF52
:103D58000131FFF7D9FE30B902464FF4B171434B38
:103D6800434800F0C1FC00F114052B46002205EB86
:103D78008608434521D307F1140104F1140202EB2C
:103D88008A0201EB89030293131B153B23F00303FB
:103D9800043304F11507BA4238BF04230193029B88
:103DA80003918B420CD8002E03DD58F8043D002BFC
:103DB8005AD0066105B0BDE8F08F43F8042BD8E768
:103DC800B1F800A0BAF1000F23D0A9464FF0000CBB
:103DD80004F1140E5EF8047BD9F800301FFA87FB53
:103DE8009BB20AFB0B336344D9F800C03F0C4FEA7F
:103DF8001C4C0AFB07C707EB13479BB243EA074370
:103E080072454FEA174C49F8043BE3D8019B45F843
:103E180003C0039B0431B3F80290B9F1000F21D01D
:103E2800AE464FF0000A2B6804F1140CBCF800B041
:103E3800BEF802709BB209FB0B77574443EA07436D
:103E48004EF8043B5CF8043B4FEA134ABEF80030D6
:103E5800624509FB0A3303EB17434FEA134AE5D8D7
:103E6800019FEB5104359AE7013E9CE7034A00089D
:103E7800144A00082DE9F843154612F003020746D4
:103E88000E4607D0254C013A002354F82220FFF7AC
:103E98009DFE0646AD103DD0FC697CB91020FDF7AB
:103EA800B5FE0246F86128B940F2B3111C4B1D4813
:103EB80000F01AFCC0E901440460C460D7F81C8013
:103EC800D8F808404CB940F271213846FFF714FF82
:103ED80000230446C8F8080003604FF00009EB0708
:103EE8000AD5314622463846FFF71CFF8046314640
:103EF8003846FFF749FE46466D100BD0206838B9A2
:103F0800224621463846FFF70DFF2060C0F8009092
:103F18000446E4E73046BDE8F88300BF784A000865
:103F28008B490008144A00082DE9F0470C4607465B
:103F380091462369496803EB6218A3684FEA621A3D
:103F480008F10106B3420BDB3846FFF7DDFD0546F5
:103F580048B902464FF4EF71274B284800F0C4FBDC
:103F680001315B00EEE7002300F1140100F11002BB
:103F78001846534533DB20692AEAEA7A04F1140328
:103F880019F01F0901EB8A0103EB800C2BD08A463C
:103F98000022C9F1200E186800FA09F010434AF807
:103FA800040B53F8042B9C4522FA0EF2F3D8ACEB21
:103FB8000403153B23F00303043304F1150084457F
:103FC80038BF0423CA500AB108F10206013E384638
:103FD80021462E61FFF7D8FD2846BDE8F08742F854
:103FE800040F0133C5E7043953F8042B9C4541F805
:103FF800042FF9D8EAE700BF034A0008144A00086A
:1040080003460A69006930B5801A0ED11433143199
:1040180003EB820401EB820154F8045D51F8042D8E
:10402800954203D005D24FF0FF3030BDA342F3D301
:10403800FBE70120F9E700002DE9F74F894606461E
:10404800114648461446FFF7DBFF051E12D12946E4
:104058003046FFF759FD024628B940F237213E4B5A
:104068003E4800F041FB0123C0E90435104603B087
:10407800BDE8F08FBCBF4B46A1463046D9F80410C6
:10408800BABF1C4601250025FFF73EFD024618B9B8
:1040980040F24521304BE3E700F1140BD9F81070DA
:1040A80009F11003C5604FF0000C09F11405D94659
:1040B800266904F1140E05EB87080EEB86060193BA
:1040C800019B5EF8040B53F804AF81B201931FFA09
:1040D8008AF35B1A000C6344C0EB1A4000EB2340E0
:1040E8009BB243EA004376454FEA204C49F8043B2B
:1040F800E6D8331B153B23F0030315340433A642DB
:1041080038BF04231D445B441E462C4644450ED349
:1041180008F10301491B21F00301033DA84538BFFD
:1041280000210B4453F8041D99B117619EE7E64638
:1041380054F8041B1FFA81FCF444080C714400EB8A
:104148002C4089B241EA00414FEA204C46F8041B52
:10415800DCE7013FE6E700BF034A0008144A00080D
:104168002DE97343012190469946089EFFF7CCFC40
:10417800044630B9024640F20F31234B234800F081
:10418800B3FAC9F30A55C9F313030DB143F4801305
:104198000193B8F1000324D068460093FFF77EFD31
:1041A800DDE90012D8B1C0F1200302FA03F30B4392
:1041B800C24063610192019B002B0CBF01220222C5
:1041C800A3612261ADB1A5F2334505443560C0F164
:1041D8003500099B1860204602B0BDE87083616114
:1041E800E9E701A8FFF75AFD019B0122636120302E
:1041F800E7E7A0F2324004EB820330601869FFF76A
:104208002BFDC0EB4210E4E7034A0008144A0008FB
:10421800936810B4013B002B936007DA9469A342BA
:1042280001DB0A2902D110BCFEF737BC1368581C01
:1042380010601970084610BC7047F8B506460F465E
:104248001446D518AC4201D1002007E03A46304662
:1042580014F8011BFFF7DCFF431CF3D1F8BD000085
:104268002DE9F04F0D461446984606469DB018B104
:10427800036A0BB9FEF762FA6B6ED90705D4AB89EE
:104288009A0502D4A86DFEF723FDAB891B0701D55B
:104298002B699BB929463046FEF73EFC70B16B6E20
:1042A800DC0704D54FF0FF301DB0BDE8F08FAB89B7
:1042B8009805F7D4A86DFEF70CFDF3E700230993E2
:1042C80020238DF8293030234FF00109CDF80C80D8
:1042D800DFF8A8818DF82A3023469A4613F8012B77
:1042E8000AB1252AF9D1BAEB040B0BD05B4622465A
:1042F80029463046FFF7A1FF013000F0A780099A50
:104308005A4409929AF80030002B00F09F8000234D
:104318004FF0FF32CDE905230AF1010A0493079310
:104328008DF853301A935446052214F8011B53484C
:10433800FEF7D0FC049AD8B9D10644BF20238DF8E3
:104348005330130744BF2B238DF853309AF80030AD
:104358002A2B15D0544600204FF00A0C079A214604
:1043680011F8013B303B092B4BD9B0B1079214E04F
:10437800A0EB080309FA03F31343A2460493D2E718
:10438800039B191D1B680391002BBBBF5B4242F0C6
:10439800020207930793B8BF049223782E2B0AD101
:1043A80063782A2B32D1039B02341A1D1B680392AF
:1043B80043EAE3730593DFF8C8A003225046217847
:1043C800FEF788FC38B14022049BA0EB0A0082402B
:1043D80013430134049314F8011B062229488DF86D
:1043E8002810FEF777FC00283FD0274B1BBB039B08
:1043F800073323F0070308330393099B3B440993CE
:104408006AE70C4601200CFB0232A8E700234FF0B4
:104418000A0C194601340593204610F8012B303A4E
:10442800092A03D9002BC6D00591C4E70446012305
:104438000CFB0121F0E703AB00932A463046134BEF
:1044480004A9FDF72BFD0746781CD6D16B6ED9075A
:1044580005D4AB899A0502D4A86DFEF73AFCAB895E
:104468005B063FF51FAF09981EE703AB00932A468A
:104478003046064B04A9FDF7B9FFE4E7784B00087E
:104488007E4B0008824B0008A51E00084342000826
:10449800B1F90C20F8B5170705460C4656D44B68F9
:1044A800002B02DC0B6C002B3DDDE66A002E3AD0B7
:1044B800002312F480522F68216A2B6025D0626D88
:1044C800A389580705D56368D21A636B0BB1236CAF
:1044D800D21A216A00232846E66AB047411C24D034
:1044E8000023636023692360A389DA0400D560652B
:1044F800616B2F60B9B104F14403994202D0284698
:10450800FFF7BAFA002363630DE001232846B0479A
:10451800461C0246D4D12B68002BD1D01D2B01D0CC
:10452800162B2AD12F6000202EE02A68B4F90C300F
:1045380042B11D2A01D0162A21D1002363602369C4
:104548002360D5E7626022692260CEE70F69002FF9
:10455800E9D0930718BF00230E6808BF4B69F61B04
:104568000F608B60002EDEDD33463A462846216A0E
:10457800D4F828C0E047002807DCB4F90C304FF025
:10458800FF3043F04003A381F8BD0744361AE9E73A
:1045980038B50B6905460C4613B90025284638BDC1
:1045A80018B1036A0BB9FEF7C9F8B4F90C30002B3F
:1045B800F3D0626ED00704D4990502D4A06DFEF73B
:1045C80087FB28462146FFF763FF636E0546DA0737
:1045D800E4D4A3899B05E1D4A06DFEF77AFBDDE75F
:1045E80070B50C46B1F90E10154600291E4696B056
:1045F8000CDAA389002113F0800F14BF40234FF475
:104608008063002031602B6016B070BD6A4600F0F0
:1046180049F80028EDDB019901F47041A1F5005338
:10462800594259414FF48063EBE78B89F7B59D07F1
:1046380006460C4607D504F147032360236101238E
:10464800636103B0F0BD6A4601ABFFF7C9FF009F85
:10465800054639463046FDF703FB48B9B4F90C3036
:104668009A05EED423F0030343F00203A381E2E7A3
:10467800A389C4E9040743F08003A381019B206058
:104688005BB13046B4F90E1000F01EF828B1A389CA
:1046980023F0030343F00103A381A3891D43A581EC
:1046A800CFE7000038B50023064D044608461146FA
:1046B8002B6000F0BDF8431C02D12B6803B12360C6
:1046C80038BD00BF6003002038B50023054D0446FF
:1046D80008462B6000F0BCF8431C02D12B6803B1DC
:1046E800236038BD600300201FB514461A46094BE5
:1046F80005461B68D86854B9074B1C46CDE90134F8
:1047080000912B460549FEF731F800F03EF8044BBE
:10471800F4E700BF28000020CE4B0008A04B00089B
:10472800934B000870B5A1FB02543CB92946FDF72C
:1047380097FA064628B90026304670BD0C2202605A
:10474800F9E72A462146FEF73DFAF5E782B001B9B6
:1047580001A942B14BB113780B601278101E18BF33
:10476800012002B070471046FBE76FF00100F8E740
:104778000346084641B1FF2A04D98A224FF0FF3088
:104788001A60704701200A707047062008B500F0CB
:104798002BF8012000F08AF81F2938B505460C4689
:1047A80004D9162303604FF0FF3038BDC26B12B135
:1047B80052F821304BB9284600F030F8224601461D
:1047C8002846BDE8384000F017B8012B0AD0591C1C
:1047D80003D1162303600120E7E70021204642F8B1
:1047E800241098470020E0E7024B01461868FFF7BD
:1047F800D3BF00BF2800002038B50023064D04466B
:10480800084611462B6000F02BF8431C02D12B6898
:1048180003B1236038BD00BF6003002000F010B86A
:104828005822024B4FF0FF301A6070476003002097
:104838005822024B4FF0FF301A6070476003002087
:104848005822024B4FF0FF301A6070476003002077
:104858005822024B00201A60704700BF60030020F6
:104868005822024B4FF0FF301A6070476003002057
:104878005822024B4FF0FF301A6070476003002047
:104888005822024B4FF0FF301A6070476003002037
:10489800044A05491368002B08BF0B4618441060EA
:1048A800184670476803002070030020FEE700BF29
:1048B800F8B500BFF8BC08BC9E467047F8B500BF05
:0848C800F8BC08BC9E467047D5
:1048D0001800034801000328000201180004010425
:1048E00000C201000000000000000C0000000000F9
:1048F000250F0001000102030405060752656369E4
:104900006576653A202523582C202523582C202510
:1049100023582C202523582C202523582C202523B0
:10492000582C202523582C202523580D0A00000040
:10493000E68C89E4B88B4B455930E58F91E980814D
:10494000E695B0E68DAE3A200D00494E4600696E00
:1049500066004E414E006E616E00300030313233E1
:1049600034353637383941424344454600303132D8
:104970003334353637383961626364656600496EB1
:1049800066696E697479004E614E005245454E5419
:10499000206D616C6C6F632073756363656564651E
:1049A00064002F646174612F6A656E6B696E732F8A
:1049B000776F726B73706163652F474E552D746FFF
:1049C0006F6C636861696E2F61726D2D31322D6D70
:1049D0007061636274692F7372632F6E65776C699F
:1049E000622D63796777696E2F6E65776C69622FC8
:1049F0006C6962632F7374646C69622F64746F6195
:104A00002E630042616C6C6F632073756363656530
:104A1000646564002F646174612F6A656E6B696EF2
:104A2000732F776F726B73706163652F474E552DCF
:104A3000746F6F6C636861696E2F61726D2D3132B6
:104A40002D6D7061636274692F7372632F6E657769
:104A50006C69622D63796777696E2F6E65776C6913
:104A6000622F6C6962632F7374646C69622F6D705E
:104A70007265632E6300000005000000190000004D
:104A80007D000000000000000080E03779C3414352
:104A9000176E05B5B5B89346F5F93FE9034F384DA4
:104AA000321D30F94877825A3CBF737FDD4F157550
:104AB000000000000000F03F000000000000244063
:104AC00000000000000059400000000000408F403E
:104AD000000000000088C34000000000006AF840A9
:104AE0000000000080842E4100000000D0126341CD
:104AF0000000000084D797410000000065CDCD4143
:104B0000000000205FA00242000000E87648374223
:104B1000000000A2941A6D42000040E59C30A242C1
:104B20000000901EC4BCD64200003426F56B0C4336
:104B30000080E03779C3414300A0D88557347643DD
:104B400000C84E676DC1AB43003D9160E458E1433E
:104B5000408CB5781DAF154450EFE2D6E41A4B44B3
:104B600092D54D06CFF08044F64AE1C7022DB544F8
:104B7000B49DD9794378EA44232D302B2000686C0A
:104B80004C00656667454647004300504F534958FF
:104B9000002E002C2066756E6374696F6E3A2000DB
:104BA000617373657274696F6E20222573222066AB
:104BB00061696C65643A2066696C65202225732200
:104BC0002C206C696E65202564257325730A00000E
:104BD00020202020202020202028282828282020AD
:104BE00020202020202020202020202020202020C5
:104BF000881010101010101010101010101010103D
:104C0000040404040404040404041010101010101C
:104C100010414141414141010101010101010101F5
:104C20000101010101010101010101101010101029
:104C300010424242424242020202020202020202C6
:104C400002020202020202020202021010101020EE
:104C50000000000000000000000000000000000054
:104C60000000000000000000000000000000000044
:104C70000000000000000000000000000000000034
:104C80000000000000000000000000000000000024
:104C90000000000000000000000000000000000014
:104CA0000000000000000000000000000000000004
:104CB00000000000000000000000000000000000F4
:104CC00000000000000000000000000000000000E4
:084CD00018B5FF7F0100000090
:044CD800890B00083C
:044CDC00610B000860
:104CE000020406080000000001020304010203049C
:104CF0000607080900A24A04017F00000000000026
:104D000003000000240200202C000020000000000E
:104D1000240200208C020020F40200200000000089
:104D20000000000000000000000000000000000083
:104D30000000000000000000000000000000000073
:104D40000000000000000000000000000000000063
:104D50000000000000000000430000000000000010
:104D60000000000000000000000000000000000043
:104D700000000000000000004300000000000000F0
:104D80000000000000000000000000000000000023
:104D900000000000000000004300000000000000D0
:104DA0000000000000000000000000000000000003
:104DB00000000000000000004300000000000000B0
:104DC00000000000000000000000000000000000E3
:104DD0000000000000000000430000000000000090
:104DE00000000000000000000000000000000000C3
:104DF0000000000000000000430000000000000070
:104E000000000000000000000000000000000000A2
:104E1000000000000000000043000000000000004F
:104E20000000000000000000000000000000000082
:104E30000000000000000000794700085547000806
:104E400000000000CF4B0008914B0008CE4B00083B
:104E5000CE4B0008CE4B0008CE4B0008CE4B0008CE
:104E6000CE4B0008CE4B0008CE4B0008CE4B0008BE
:104E7000FFFFFFFFFFFFFFFFFFFFFFFFFFFF000040
:104E800001004153434949000000000000000000B8
:104E90000000000000000000000000000000000012
:104EA0000000415343494900000000000000000099
:104EB00000000000000000000000000000000000F2
:044EC00000000000EE
:0400000508001BC90B
:00000001FF
